{"abi":[{"type":"constructor","inputs":[],"stateMutability":"nonpayable"},{"type":"function","name":"DEFAULT_ADMIN_ROLE","inputs":[],"outputs":[{"name":"","type":"bytes32","internalType":"bytes32"}],"stateMutability":"view"},{"type":"function","name":"associatedNFT","inputs":[{"name":"","type":"address","internalType":"address"}],"outputs":[{"name":"","type":"address","internalType":"address"}],"stateMutability":"view"},{"type":"function","name":"batchGetNFTs","inputs":[{"name":"_owner","type":"address","internalType":"address"},{"name":"_start","type":"uint256","internalType":"uint256"},{"name":"_end","type":"uint256","internalType":"uint256"},{"name":"_limit","type":"uint256","internalType":"uint256"}],"outputs":[{"name":"","type":"address[]","internalType":"address[]"},{"name":"","type":"uint256[]","internalType":"uint256[]"},{"name":"","type":"uint256[]","internalType":"uint256[]"},{"name":"","type":"string[]","internalType":"string[]"},{"name":"","type":"uint256[]","internalType":"uint256[]"},{"name":"","type":"uint256","internalType":"uint256"}],"stateMutability":"view"},{"type":"function","name":"deployNFT","inputs":[{"name":"_name","type":"string","internalType":"string"},{"name":"_recordCompanyAdmin","type":"address","internalType":"address"},{"name":"_treasury","type":"address","internalType":"address"},{"name":"_initialFee","type":"uint256","internalType":"uint256"}],"outputs":[],"stateMutability":"nonpayable"},{"type":"function","name":"deployedNFTs","inputs":[{"name":"","type":"uint256","internalType":"uint256"}],"outputs":[{"name":"","type":"address","internalType":"address"}],"stateMutability":"view"},{"type":"function","name":"getRoleAdmin","inputs":[{"name":"role","type":"bytes32","internalType":"bytes32"}],"outputs":[{"name":"","type":"bytes32","internalType":"bytes32"}],"stateMutability":"view"},{"type":"function","name":"grantRole","inputs":[{"name":"role","type":"bytes32","internalType":"bytes32"},{"name":"account","type":"address","internalType":"address"}],"outputs":[],"stateMutability":"nonpayable"},{"type":"function","name":"hasRole","inputs":[{"name":"role","type":"bytes32","internalType":"bytes32"},{"name":"account","type":"address","internalType":"address"}],"outputs":[{"name":"","type":"bool","internalType":"bool"}],"stateMutability":"view"},{"type":"function","name":"isFactoryDeployed","inputs":[{"name":"","type":"address","internalType":"address"}],"outputs":[{"name":"","type":"bool","internalType":"bool"}],"stateMutability":"view"},{"type":"function","name":"nextNFTId","inputs":[],"outputs":[{"name":"","type":"uint256","internalType":"uint256"}],"stateMutability":"view"},{"type":"function","name":"renounceRole","inputs":[{"name":"role","type":"bytes32","internalType":"bytes32"},{"name":"callerConfirmation","type":"address","internalType":"address"}],"outputs":[],"stateMutability":"nonpayable"},{"type":"function","name":"revokeRole","inputs":[{"name":"role","type":"bytes32","internalType":"bytes32"},{"name":"account","type":"address","internalType":"address"}],"outputs":[],"stateMutability":"nonpayable"},{"type":"function","name":"setAssociatedNFT","inputs":[{"name":"_admin","type":"address","internalType":"address"},{"name":"_nft","type":"address","internalType":"address"}],"outputs":[],"stateMutability":"nonpayable"},{"type":"function","name":"supportsInterface","inputs":[{"name":"interfaceId","type":"bytes4","internalType":"bytes4"}],"outputs":[{"name":"","type":"bool","internalType":"bool"}],"stateMutability":"view"},{"type":"event","name":"NewNFT","inputs":[{"name":"_nft","type":"address","indexed":true,"internalType":"address"},{"name":"_initialAdmin","type":"address","indexed":true,"internalType":"address"}],"anonymous":false},{"type":"event","name":"RoleAdminChanged","inputs":[{"name":"role","type":"bytes32","indexed":true,"internalType":"bytes32"},{"name":"previousAdminRole","type":"bytes32","indexed":true,"internalType":"bytes32"},{"name":"newAdminRole","type":"bytes32","indexed":true,"internalType":"bytes32"}],"anonymous":false},{"type":"event","name":"RoleGranted","inputs":[{"name":"role","type":"bytes32","indexed":true,"internalType":"bytes32"},{"name":"account","type":"address","indexed":true,"internalType":"address"},{"name":"sender","type":"address","indexed":true,"internalType":"address"}],"anonymous":false},{"type":"event","name":"RoleRevoked","inputs":[{"name":"role","type":"bytes32","indexed":true,"internalType":"bytes32"},{"name":"account","type":"address","indexed":true,"internalType":"address"},{"name":"sender","type":"address","indexed":true,"internalType":"address"}],"anonymous":false},{"type":"error","name":"AccessControlBadConfirmation","inputs":[]},{"type":"error","name":"AccessControlUnauthorizedAccount","inputs":[{"name":"account","type":"address","internalType":"address"},{"name":"neededRole","type":"bytes32","internalType":"bytes32"}]}],"bytecode":{"object":"0x6080604052346100225761001233610027565b506040516135bf90816100b88239f35b600080fd5b6001600160a01b031660008181527fad3228b676f7d3cd4284a5443f17f1962b36e491b30a40b2405849e597ba5fb5602052604081205490919060ff166100b357818052816020526040822081835260205260408220600160ff1982541617905533917f2f8788117e7eff1d82e926ec794901d17c78024a50270940304540a733656f0d8180a4600190565b509056fe60808060405260043610156200001457600080fd5b60003560e01c90816301ffc9a71462000ac1575080630da292a6146200064b57806313df82231462000615578063248a9ca314620005e45780632911136f14620005a55780632f2ff15d146200055e578063335f4c76146200051b57806336568abe14620004cd57806341f9faec14620002cf57806391d14854146200027e578063a217fddf1462000260578063be2d146f1462000136578063c909adc014620001165763d547741f14620000c857600080fd5b346200011157604036600319011262000111576200010f600435620000ec62000b30565b908060005260006020526200010960016040600020015462000c09565b62000ccd565b005b600080fd5b346200011157600036600319011262000111576020600454604051908152f35b346200011157604036600319011262000111576200015362000b19565b6200015d62000b30565b33600052600160205260ff60406000205416156200021b576001600160a01b0390811691338314801562000212575b15620001df5782620001bb575b16600090815260026020526040902080546001600160a01b0319169091179055005b8181166000526002602052620001d982604060002054161562000d43565b62000199565b60405162461bcd60e51b815260206004820152600b60248201526a125b9d985b1a590813919560aa1b6044820152606490fd5b5082156200018c565b60405162461bcd60e51b815260206004820152601b60248201527f4e4654206973206e6f7420666163746f7279206465706c6f79656400000000006044820152606490fd5b34620001115760003660031901126200011157602060405160008152f35b346200011157604036600319011262000111576200029b62000b30565b600435600052600060205260406000209060018060a01b0316600052602052602060ff604060002054166040519015158152f35b3462000111576080366003190112620001115767ffffffffffffffff6004358181116200011157366023820112156200011157806004013591620003138362000bec565b9262000323604051948562000bc9565b808452366024828501011162000111576024928160009260209586930183880137850101526200035262000b30565b6001600160a01b03604435818116959193929086900362000111576000805260008552604060002033600052855260ff6040600020541615620004ae578316948560005260028552620003ad84604060002054161562000d43565b604051926127588085019182118583101762000498578493620003df9162000e32863960808352608083019062000ba2565b9187878301526040820152606060643591015203906000f080156200048c57169081600052600181526040600020600160ff19825416179055826000526002815260036040600020916bffffffffffffffffffffffff60a01b92848482541617905560045460005252816040600020918254161790556200046260045462000d8f565b6004557f9b9baa5d69859ba32edc2bc8324addb556bbf24d80c4420733d99d714ab551bd600080a3005b6040513d6000823e3d90fd5b634e487b7160e01b600052604160045260246000fd5b60405163e2517d3f60e01b815233600482015260006024820152604490fd5b34620001115760403660031901126200011157620004ea62000b30565b336001600160a01b0382160362000509576200010f9060043562000ccd565b60405163334bd91960e11b8152600490fd5b346200011157602036600319011262000111576001600160a01b036200054062000b19565b166000526001602052602060ff604060002054166040519015158152f35b346200011157604036600319011262000111576200010f6004356200058262000b30565b908060005260006020526200059f60016040600020015462000c09565b62000c4e565b3462000111576020366003190112620001115760206001600160a01b0380620005cd62000b19565b166000526002825260406000205416604051908152f35b3462000111576020366003190112620001115760043560005260006020526020600160406000200154604051908152f35b346200011157602036600319011262000111576004356000526003602052602060018060a01b0360406000205416604051908152f35b346200011157608036600319011262000111576200066862000b19565b6200067560643562000db5565b9062000685604051928362000bc9565b6064358252601f196200069a60643562000db5565b01366020840137620006ae60643562000dce565b90620006bc60643562000dce565b90620006ca60643562000db5565b620006d9604051918262000bc9565b6064358152601f19620006ee60643562000db5565b0160005b81811062000aaf5750506200070960643562000dce565b90600093602435955b60443587108062000aa3575b15620009b2576000878152600360205260408120546001600160a01b031698905b6040516336bea65960e11b81526020816004818e5afa9081156200048c576000916200097a575b508110806200096e575b156200095857604051627eeac760e11b81526001600160a01b0388166004820152602481018290526020816044818e5afa9081156200048c5760009162000920575b5080620007cc575b50620007c69062000d8f565b6200073f565b60008a815260036020526040902054919890916001600160a01b0316620007f4828562000e06565b528862000802828662000e06565b528162000810828762000e06565b526040516303a24d0760e21b8152600481018a90526000816024818f5afa9081156200048c5760009162000880575b5090620007c692620008789262000857838a62000e06565b5262000864828962000e06565b5062000871828a62000e06565b5262000d8f565b9790620007ba565b9190503d92836000843e62000896848462000bc9565b6020838581010312620001115782519367ffffffffffffffff85116200011157808401601f86860101121562000111578484015194620008d68662000bec565b91620008e6604051938462000bc9565b86835285016020878388010101116200011157620007c69562000878956020620009169381860192010162000b7d565b919250926200083f565b90506020813d6020116200094f575b816200093e6020938362000bc9565b810103126200011157518b620007b2565b3d91506200092f565b50975095620009679062000d8f565b9562000712565b50606435881062000770565b90506020813d602011620009a9575b81620009986020938362000bc9565b810103126200011157518b62000766565b3d915062000989565b91928591886040519460c0860160c087528251809152602060e0880193019060005b81811062000a835750505081620009f8918762000a07959403602089015262000b47565b90858203604087015262000b47565b8381036060850152845180825260208201916020808360051b8301019701926000915b83831062000a535787808862000a498c8a848203608086015262000b47565b9060a08301520390f35b909192939760208062000a73600193601f198682030187528c5162000ba2565b9a01930193019193929062000a2a565b82516001600160a01b0316855260209485019490920191600101620009d4565b5060643586106200071e565b806060602080938601015201620006f2565b346200011157602036600319011262000111576004359063ffffffff60e01b82168092036200011157602091637965db0b60e01b811490811562000b07575b5015158152f35b6301ffc9a760e01b1490508362000b00565b600435906001600160a01b03821682036200011157565b602435906001600160a01b03821682036200011157565b90815180825260208080930193019160005b82811062000b68575050505090565b83518552938101939281019260010162000b59565b60005b83811062000b915750506000910152565b818101518382015260200162000b80565b9060209162000bbd8151809281855285808601910162000b7d565b601f01601f1916010190565b90601f8019910116810190811067ffffffffffffffff8211176200049857604052565b67ffffffffffffffff81116200049857601f01601f191660200190565b80600052600060205260406000203360005260205260ff604060002054161562000c305750565b6044906040519063e2517d3f60e01b82523360048301526024820152fd5b9060009180835282602052604083209160018060a01b03169182845260205260ff6040842054161560001462000cc857808352826020526040832082845260205260408320600160ff198254161790557f2f8788117e7eff1d82e926ec794901d17c78024a50270940304540a733656f0d339380a4600190565b505090565b9060009180835282602052604083209160018060a01b03169182845260205260ff60408420541660001462000cc85780835282602052604083208284526020526040832060ff1981541690557ff6391f5c32d9c69d2a47ea670b442974b53935d1edc7fd64eb21e047a839171b339380a4600190565b1562000d4b57565b606460405162461bcd60e51b815260206004820152602060248201527f41646d696e20616c726561647920686173206173736f636961746564204e46546044820152fd5b600019811462000d9f5760010190565b634e487b7160e01b600052601160045260246000fd5b67ffffffffffffffff8111620004985760051b60200190565b9062000dda8262000db5565b62000de9604051918262000bc9565b828152809262000dfc601f199162000db5565b0190602036910137565b805182101562000e1b5760209160051b010190565b634e487b7160e01b600052603260045260246000fdfe60406080815234620003555762002758803803806200001e816200035a565b9283398101608082820312620003555781516001600160401b03908181116200035557830190601f928084840112156200035557825193828511620002ee57602094601f199462000075838301871688016200035a565b938285528783830101116200035557869060005b8381106200034057505060009184010152620000a785870162000380565b916060620000b789890162000380565b9701519588518181019080821087831117620002ee576000918b5252600254936001948581811c9116801562000335575b83821014620002cd5784811162000304575b5062000117906000600255620001103262000395565b5062000416565b507f768dd85fed03ac9c2c0f14fe090b045c29124f162b5fa7d6dd8ca0009807d4db8060005260058252848a600020018181549155817fbd79b86ffe0ab8e8776151514217cd7cacd52c909f66475c3af44e129f0b00ff600080a4600d80546001600160a01b03999099166001600160a01b0319998a161790558151948511620002ee57600c548481811c91168015620002e3575b82821014620002cd5783811162000281575b5080928511600114620002165750839450908392916000946200020a575b50501b916000199060031b1c191617600c555b600b553390600e541617600e555161227e9081620004ba8239f35b015192503880620001dc565b929484908116600c60005284600020946000905b888383106200026657505050106200024c575b505050811b01600c55620001ef565b015160001960f88460031b161c191690553880806200023d565b8587015188559096019594850194879350908101906200022a565b600c600052816000208480880160051c820192848910620002c3575b0160051c019085905b828110620002b6575050620001be565b60008155018590620002a6565b925081926200029d565b634e487b7160e01b600052602260045260246000fd5b90607f1690620001ac565b634e487b7160e01b600052604160045260246000fd5b6002600052858584600020920160051c8201915b82811062000328575050620000fa565b6000815501869062000318565b90607f1690620000e8565b81810183015186820184015288920162000089565b600080fd5b6040519190601f01601f191682016001600160401b03811183821017620002ee57604052565b51906001600160a01b03821682036200035557565b6001600160a01b031660008181527f05b8ccbb9d4d8fb16ea74ce3c29a41f1b461fbdaff4714a0d9a8eb05499746bc602052604081205490919060ff16620004125781805260056020526040822081835260205260408220600160ff198254161790553391600080516020620027388339815191528180a4600190565b5090565b6001600160a01b031660008181527f79ed740027bf2a2d788cad2f071271c4cc92108c1a879ef33ec044da1905c17f60205260408120549091907f768dd85fed03ac9c2c0f14fe090b045c29124f162b5fa7d6dd8ca0009807d4db9060ff16620004b45780835260056020526040832082845260205260408320600160ff1982541617905560008051602062002738833981519152339380a4600190565b50509056fe6080604052600436101561001257600080fd5b60003560e01c8062fdd58e1461020657806301ffc9a714610201578063047a35a4146101fc578063061f8aa6146101f757806306fdde03146101f25780630d1e691a146101ed5780630e89341c146101e85780630fe18841146101e357806318160ddd146101de578063248a9ca3146101d95780632d6c8ed5146101d45780632eb2c2d6146101cf5780632f2ff15d146101ca57806336568abe146101c557806344663cc2146101c05780634e1273f4146101bb5780634f558e79146101b657806350a8ae61146101b1578063535ca46c146101ac57806361d027b3146101a75780636d7d4cb2146101a2578063846a98981461019d57806391d1485414610198578063a217fddf14610193578063a22cb4651461018e578063bd85b03914610189578063c45a015514610184578063d547741f1461017f578063e985e9c51461017a578063ea5df059146101755763f242432a1461017057600080fd5b6112a7565b611252565b611201565b61115f565b611136565b61110a565b61104e565b611032565b610fe0565b610fc2565b610fa4565b610f7b565b610f0c565b610e5d565b610e27565b610d6d565b610c55565b610b56565b610a92565b61096b565b6108cc565b61089d565b61087f565b610793565b61070f565b6106cc565b6105e7565b610425565b610337565b6102af565b610250565b600435906001600160a01b038216820361022157565b600080fd5b602435906001600160a01b038216820361022157565b35906001600160a01b038216820361022157565b3461022157604036600319011261022157602061029461026e61020b565b6024356000526000835260406000209060018060a01b0316600052602052604060002090565b54604051908152f35b6001600160e01b031981160361022157565b346102215760203660031901126102215760206004356102ce8161029d565b63ffffffff60e01b16637965db0b60e01b81149081156102f4575b506040519015158152f35b636cdb3d1360e11b811491508115610326575b8115610315575b50386102e9565b6301ffc9a760e01b1490503861030e565b6303a24d0760e21b81149150610307565b34610221576000366003190112610221576020600b54604051908152f35b634e487b7160e01b600052604160045260246000fd5b67ffffffffffffffff811161037f57604052565b610355565b60a0810190811067ffffffffffffffff82111761037f57604052565b90601f8019910116810190811067ffffffffffffffff82111761037f57604052565b67ffffffffffffffff811161037f57601f01601f191660200190565b81601f82011215610221578035906103f5826103c2565b9261040360405194856103a0565b8284526020838301011161022157816000926020809301838601378301015290565b346102215760803660031901126102215767ffffffffffffffff600435818111610221576104579036906004016103de565b6024358281116102215761046f9036906004016103de565b604435838111610221576104879036906004016103de565b90606435938411610221576104a36104a99436906004016103de565b92611d2c565b005b90600182811c921680156104db575b60208310146104c557565b634e487b7160e01b600052602260045260246000fd5b91607f16916104ba565b90604051918260008254926104f9846104ab565b9081845260019485811690816000146105685750600114610525575b5050610523925003836103a0565b565b9093915060005260209081600020936000915b81831061055057505061052393508201013880610515565b85548884018501529485019487945091830191610538565b91505061052394506020925060ff191682840152151560051b8201013880610515565b60005b83811061059e5750506000910152565b818101518382015260200161058e565b906020916105c78151809281855285808601910161058b565b601f01601f1916010190565b9060206105e49281815201906105ae565b90565b34610221576000806003193601126106c9576040519080600c5461060a816104ab565b8085529160019180831690811561069f5750600114610644575b61064085610634818703826103a0565b604051918291826105d3565b0390f35b9250600c83527fdf6966c971051c3d54ec59162606531493a51404a002842f56009d7e5cf4a8c75b82841061068757505050810160200161063482610640610624565b8054602085870181019190915290930192810161066c565b8695506106409693506020925061063494915060ff191682840152151560051b8201019293610624565b80fd5b34610221576020366003190112610221576106e561020b565b6106ed611f53565b600d80546001600160a01b0319166001600160a01b0392909216919091179055005b346102215760203660031901126102215760043561073a816000526003602052604060002054151590565b1561075a57600052600760205261064061063460026040600020016104e5565b60405162461bcd60e51b81526020600482015260116024820152702737b732bc34b9ba32b73a103a37b5b2b760791b6044820152606490fd5b346102215760603660031901126102215760243560043560443567ffffffffffffffff8111610221576107ca9036906004016103de565b916107d3611f53565b80600052600660205260ff60046040600020015416156108425761082f92829161081661080c600a546000526007602052604060002090565b9260028401611e84565b600182015555600a5490610828611746565b9133611fc0565b6104a961083d600a54611473565b600a55565b60405162461bcd60e51b815260206004820152601560248201527414da5b99d95c88191bd95cc81b9bdd08195e1a5cdd605a1b6044820152606490fd5b34610221576000366003190112610221576020600454604051908152f35b346102215760203660031901126102215760043560005260056020526020600160406000200154604051908152f35b346102215760003660031901126102215760206040516000805160206122298339815191528152f35b67ffffffffffffffff811161037f5760051b60200190565b81601f8201121561022157803591610924836108f5565b9261093260405194856103a0565b808452602092838086019260051b820101928311610221578301905b82821061095c575050505090565b8135815290830190830161094e565b346102215760a03660031901126102215761098461020b565b61098c610226565b906044359167ffffffffffffffff90818411610221576109b16004943690860161090d565b90606435838111610221576109c9903690870161090d565b92608435908111610221576109e190369087016103de565b936001600160a01b03808216903382141580610a6e575b610a4157831615610a295715610a12576104a99550611576565b604051626a0d4560e21b8152600081880152602490fd5b604051632bfa23e760e11b8152600081890152602490fd5b6040805163711bec9160e11b815233818b019081526001600160a01b038616602082015290918291010390fd5b50600082815260016020908152604080832033845290915290205460ff16156109f8565b3461022157600060403660031901126106c95780600435600080516020612229833981519152610ac0610226565b918084526005602052610ad96001604086200154611f9f565b610ae38382612194565b5014610aec5750f35b600e546001600160a01b031690813b15610b525760405163be2d146f60e01b81526001600160a01b03909116600482015230602482015291908290818381604481015b03925af18015610b4d57610b41575080f35b610b4a9061036b565b80f35b61173a565b5050fd5b3461022157604036600319011261022157610b6f610226565b336001600160a01b03821603610b8b576104a9906004356113c5565b60405163334bd91960e11b8152600490fd5b602080820190808352835180925260409283810182858560051b8401019601946000925b858410610bd2575050505050505090565b909192939495968580600192603f198582030187528a5190610c38610c25610c15610c05855160a08087528601906105ae565b86860151858203888701526105ae565b898501518482038b8601526105ae565b60608085015190848303908501526105ae565b916080809101511515910152990194019401929594939190610bc1565b34610221576040366003190112610221576004356024356009548111610cf557610c8182821015612076565b610c93610c8e83836120b7565b6120c4565b91805b828110610cab57604051806106408682610b9d565b80610cea610cc6610cf0936000526006602052604060002090565b610cd9610cd386856120b7565b91612137565b610ce38289611487565b5286611487565b50611473565b610c96565b60405162461bcd60e51b815260206004820152600b60248201526a125b9d985b1a5908195b9960aa1b6044820152606490fd5b90815180825260208080930193019160005b828110610d48575050505090565b835185529381019392810192600101610d3a565b9060206105e4928181520190610d28565b346102215760403660031901126102215760043567ffffffffffffffff8082116102215736602383011215610221578160040135610daa816108f5565b92610db860405194856103a0565b81845260209160248386019160051b8301019136831161022157602401905b828210610e1057856024358681116102215761064091610dfe610e0492369060040161090d565b906114b1565b60405191829182610d5c565b838091610e1c8461023c565b815201910190610dd7565b34610221576020366003190112610221576020610e536004356000526003602052604060002054151590565b6040519015158152f35b34610221576020366003190112610221576004356000526006602052610ed66040600020610e8a816104e5565b90610f00610e9a600183016104e5565b91610ef2610eaa600283016104e5565b610ee460ff6004610ebd600387016104e5565b950154169560405198899860a08a5260a08a01906105ae565b9088820360208a01526105ae565b9086820360408801526105ae565b9084820360608601526105ae565b90151560808301520390f35b34610221576020366003190112610221573360009081527f05b8ccbb9d4d8fb16ea74ce3c29a41f1b461fbdaff4714a0d9a8eb05499746bc602052604081205460ff1615610f5d57600435600b5580f35b6044906040519063e2517d3f60e01b82523360048301526024820152fd5b3461022157600036600319011261022157600d546040516001600160a01b039091168152602090f35b34610221576000366003190112610221576020600a54604051908152f35b34610221576000366003190112610221576020600954604051908152f35b3461022157604036600319011261022157602060ff611026611000610226565b6004356000526005845260406000209060018060a01b0316600052602052604060002090565b54166040519015158152f35b3461022157600036600319011261022157602060405160008152f35b346102215760403660031901126102215761106761020b565b6024359081151590818303610221576001600160a01b0381169283156110f2576110b36110c49233600052600160205260406000209060018060a01b0316600052602052604060002090565b9060ff801983541691151516179055565b6040519081527f17307eab39ab6107e8899845ad3d59bd9653f200f220920489ca2b5937696c3160203392a3005b60405162ced3e160e81b815260006004820152602490fd5b346102215760203660031901126102215760043560005260036020526020604060002054604051908152f35b3461022157600036600319011261022157600e546040516001600160a01b039091168152602090f35b3461022157600060403660031901126106c9578060043560008051602061222983398151915261118d610226565b9180845260056020526111a66001604086200154611f9f565b6111b083826113c5565b50146111b95750f35b600e546001600160a01b031690813b15610b525760405163be2d146f60e01b81526001600160a01b039091166004820152600060248201529190829081838160448101610b2f565b3461022157604036600319011261022157602060ff61102661122161020b565b611229610226565b6001600160a01b0391821660009081526001865260408082209290931681526020919091522090565b34610221576020366003190112610221576004356000526007602052604060002080546106406112896002600185015494016104e5565b604051938493845260208401526060604084015260608301906105ae565b346102215760a0366003190112610221576112c061020b565b6112c8610226565b60843567ffffffffffffffff8111610221576112e89036906004016103de565b906001600160a01b038381169033821415806113a1575b61137a578216156113615715611349576104a9926113416064356044359160405192600184526020840152604083019160018352606084015260808301604052565b929091611576565b604051626a0d4560e21b815260006004820152602490fd5b604051632bfa23e760e11b815260006004820152602490fd5b60405163711bec9160e11b81523360048201526001600160a01b0386166024820152604490fd5b50600082815260016020908152604080832033845290915290205460ff16156112ff565b600090808252600560205260ff6113f184604085209060018060a01b0316600052602052604060002090565b541615611457578082526005602090815260408084206001600160a01b038616600090815292529020805460ff1916905533926001600160a01b0316917ff6391f5c32d9c69d2a47ea670b442974b53935d1edc7fd64eb21e047a839171b9080a4600190565b50905090565b634e487b7160e01b600052601160045260246000fd5b60001981146114825760010190565b61145d565b805182101561149b5760209160051b010190565b634e487b7160e01b600052603260045260246000fd5b919091805183518082036115545750508051906114cd826108f5565b916114db60405193846103a0565b8083526114ea601f19916108f5565b0190602091368385013760005b815181101561154c57600581901b8281018401519087018401516000908152602081815260408083206001600160a01b039094168352929052205461154791906115418287611487565b52611473565b6114f7565b509193505050565b604051635b05999160e01b815260048101919091526024810191909152604490fd5b9193929061158682868386611b80565b6001600160a01b038381161561164f575b811615806115e4575b156115ad575b5050505050565b84516001036115d3576020806115c99601519201519233611894565b38808080806115a6565b6115df949192336119e0565b6115c9565b94939092600093845b865186101561163757611631906116048787611487565b5190611624611613898b611487565b516000526003602052604060002090565b8281540390550195611473565b946115ed565b61164a9193969792955060045403600455565b6115a0565b95919260009491855b875187101561169f57611693611699916116728989611487565b51906116816116138b8d611487565b61168c838254611a17565b9055611a17565b96611473565b95611658565b6116bc919396506116b7909892959498600454611a17565b600455565b611597565b9081602091031261022157516105e48161029d565b909260a0926105e49594600180861b03168352600060208401526040830152606082015281608082015201906105ae565b91926105e495949160a094600180871b0380921685521660208401526040830152606082015281608082015201906105ae565b6040513d6000823e3d90fd5b604051906020820182811067ffffffffffffffff82111761037f5760405260008252565b3d15611795573d9061177b826103c2565b9161178960405193846103a0565b82523d6000602084013e565b606090565b9293919093843b6117ac575050505050565b6020916117cf604051948593849363f23a6e6160e01b98898652600486016116d6565b038160006001600160a01b0388165af160009181611864575b5061182757826117f661176a565b805191908261182057604051632bfa23e760e11b81526001600160a01b0383166004820152602490fd5b9050602001fd5b6001600160e01b03191603611841575038808080806115a6565b604051632bfa23e760e11b81526001600160a01b03919091166004820152602490fd5b61188691925060203d811161188d575b61187e81836103a0565b8101906116c1565b90386117e8565b503d611874565b939290949194853b6118a9575b505050505050565b6118cc602093604051958694859463f23a6e6160e01b998a875260048701611707565b038160006001600160a01b0388165af16000918161190e575b506118f357826117f661176a565b6001600160e01b0319160361184157503880808080806118a1565b61192791925060203d811161188d5761187e81836103a0565b90386118e5565b9261195d6105e4959361196b9360018060a01b031686526000602087015260a0604087015260a0860190610d28565b908482036060860152610d28565b9160808184039101526105ae565b93906105e4959361195d9161196b9460018060a01b03809216885216602087015260a0604087015260a0860190610d28565b9293919093843b6119bd575050505050565b6020916117cf604051948593849363bc197c8160e01b988986526004860161192e565b939290949194853b6119f457505050505050565b6118cc602093604051958694859463bc197c8160e01b998a875260048701611979565b9190820180921161148257565b9091611a3b6105e493604084526040840190610d28565b916020818403910152610d28565b919091825182519081810361155457505060005b8351811015611ae057600581901b8481016020908101519185010151611a97929184906001600160a01b038216611a9c575b505050611473565b611a5d565b611ad691611ab7611ace926000526000602052604060002090565b9060018060a01b0316600052602052604060002090565b918254611a17565b9055388381611a8f565b50916001815114600014611b41576020908101519181015160408051938452918301526001600160a01b039092169160009133917fc3d58168c5ae7397731d063d5bbf3d657854427343f4c083240f7aacaa2d0f629190819081015b0390a4565b7f4a39dc06d4c0dbc64b70af90fd698a233a518aa5d07e595d983b8c0526c8f7fb611b3c6000939460405191829160018060a01b031696339583611a24565b939291805183519081810361155457505060005b8151811015611c8757600581901b82810160209081015191860101516001600160a01b0392918590898516611c00575b611bd6948216611bdb57505050611473565b611b94565b611bf691611ab7611ace926000526000602052604060002090565b9055388481611a8f565b9192939050611c1d89611ab7846000526000602052604060002090565b54838110611c505791869184611bd696959403611c488c611ab7856000526000602052604060002090565b559450611bc4565b6040516303dee4c560e01b81526001600160a01b038b16600482015260248101919091526044810184905260648101839052608490fd5b508051939493919291600103611ce9576020908101519181015160408051938452918301526001600160a01b03928316939092169133917fc3d58168c5ae7397731d063d5bbf3d657854427343f4c083240f7aacaa2d0f629181908101611b3c565b6040516001600160a01b03938416949093169233927f4a39dc06d4c0dbc64b70af90fd698a233a518aa5d07e595d983b8c0526c8f7fb928291611b3c9183611a24565b9091611d36611f53565b60ff611d4183611e0a565b5416611dcd576004611dad93611d9a611dba96611d91611da895611d88611d746009546000526006602052604060002090565b95611d7f8a88611e84565b60018701611e84565b60028501611e84565b60038301611e84565b01805460ff19166001179055565b611e0a565b805460ff19166001179055565b610523611dc8600954611473565b600955565b60405162461bcd60e51b815260206004820152601560248201527453696e67657220616c72656164792065786973747360581b6044820152606490fd5b6020611e2391816040519382858094519384920161058b565b8101600881520301902090565b90601f8111611e3e57505050565b600091825260208220906020601f850160051c83019410611e7a575b601f0160051c01915b828110611e6f57505050565b818155600101611e63565b9092508290611e5a565b919091825167ffffffffffffffff811161037f57611eac81611ea684546104ab565b84611e30565b602080601f8311600114611ee8575081929394600092611edd575b50508160011b916000199060031b1c1916179055565b015190503880611ec7565b90601f19831695611efe85600052602060002090565b926000905b888210611f3b57505083600195969710611f22575b505050811b019055565b015160001960f88460031b161c19169055388080611f18565b80600185968294968601518155019501930190611f03565b3360009081527f79ed740027bf2a2d788cad2f071271c4cc92108c1a879ef33ec044da1905c17f602052604090206000805160206122298339815191529060ff905b541615610f5d5750565b6000818152600560209081526040808320338452909152902060ff90611f95565b93916001600160a01b0385161561136157611ff860405192600184526020840152604083019160018352606084015260808301604052565b9091612005828487611a49565b600094855b845187101561203957611693612033916120248987611487565b51906116816116138b8a611487565b9561200a565b61204e9195949296506116b790600454611a17565b805160010361206c579060208061052395930151910151913361179a565b61052393336119ab565b1561207d57565b60405162461bcd60e51b8152602060048201526012602482015271496e76616c696420706172616d657465727360701b6044820152606490fd5b9190820391821161148257565b906120ce826108f5565b6040906120dd825191826103a0565b83815280936120ee601f19916108f5565b0191600091825b848110612103575050505050565b602090835161211181610384565b6060808252839080828401528087840152808301528660808301528285010152016120f5565b9060405161214481610384565b608060ff60048395612155816104e5565b8552612163600182016104e5565b6020860152612174600282016104e5565b6040860152612185600382016104e5565b60608601520154161515910152565b600090808252600560205260ff6121c084604085209060018060a01b0316600052602052604060002090565b5416611457578082526005602090815260408084206001600160a01b038616600090815292529020805460ff1916600117905533926001600160a01b0316917f2f8788117e7eff1d82e926ec794901d17c78024a50270940304540a733656f0d9080a460019056fe768dd85fed03ac9c2c0f14fe090b045c29124f162b5fa7d6dd8ca0009807d4dba26469706673582212203ec63b2d9d36b4a8dfb98ab2c2b5758b6416a9485485f5b75d5cd46ec718fdbf64736f6c634300081400332f8788117e7eff1d82e926ec794901d17c78024a50270940304540a733656f0da26469706673582212206a919d2a8e8f4884162355c5876d2e47dcc5c21840684c69d2d3843e2fd0442764736f6c63430008140033","linkReferences":{}},"methodIdentifiers":{"DEFAULT_ADMIN_ROLE()":"a217fddf","associatedNFT(address)":"2911136f","batchGetNFTs(address,uint256,uint256,uint256)":"0da292a6","deployNFT(string,address,address,uint256)":"41f9faec","deployedNFTs(uint256)":"13df8223","getRoleAdmin(bytes32)":"248a9ca3","grantRole(bytes32,address)":"2f2ff15d","hasRole(bytes32,address)":"91d14854","isFactoryDeployed(address)":"335f4c76","nextNFTId()":"c909adc0","renounceRole(bytes32,address)":"36568abe","revokeRole(bytes32,address)":"d547741f","setAssociatedNFT(address,address)":"be2d146f","supportsInterface(bytes4)":"01ffc9a7"},"id":51}