{"abi":[{"type":"constructor","inputs":[{"name":"_name","type":"string","internalType":"string"},{"name":"_recordCompanyAdmin","type":"address","internalType":"address"},{"name":"_treasury","type":"address","internalType":"address"},{"name":"_initialFee","type":"uint256","internalType":"uint256"}],"stateMutability":"nonpayable"},{"type":"function","name":"DEFAULT_ADMIN_ROLE","inputs":[],"outputs":[{"name":"","type":"bytes32","internalType":"bytes32"}],"stateMutability":"view"},{"type":"function","name":"PERCENT_DIVIDER","inputs":[],"outputs":[{"name":"","type":"uint256","internalType":"uint256"}],"stateMutability":"view"},{"type":"function","name":"RECORD_COMPANY_ROLE","inputs":[],"outputs":[{"name":"","type":"bytes32","internalType":"bytes32"}],"stateMutability":"view"},{"type":"function","name":"albumIdCounter","inputs":[],"outputs":[{"name":"","type":"uint256","internalType":"uint256"}],"stateMutability":"view"},{"type":"function","name":"albums","inputs":[{"name":"","type":"uint256","internalType":"uint256"}],"outputs":[{"name":"shareCount","type":"uint256","internalType":"uint256"},{"name":"singerId","type":"uint256","internalType":"uint256"},{"name":"metadataUrl","type":"string","internalType":"string"}],"stateMutability":"view"},{"type":"function","name":"balanceOf","inputs":[{"name":"account","type":"address","internalType":"address"},{"name":"id","type":"uint256","internalType":"uint256"}],"outputs":[{"name":"","type":"uint256","internalType":"uint256"}],"stateMutability":"view"},{"type":"function","name":"balanceOfBatch","inputs":[{"name":"accounts","type":"address[]","internalType":"address[]"},{"name":"ids","type":"uint256[]","internalType":"uint256[]"}],"outputs":[{"name":"","type":"uint256[]","internalType":"uint256[]"}],"stateMutability":"view"},{"type":"function","name":"createAlbum","inputs":[{"name":"_shareCount","type":"uint256","internalType":"uint256"},{"name":"_singerId","type":"uint256","internalType":"uint256"},{"name":"_metadataUrl","type":"string","internalType":"string"}],"outputs":[],"stateMutability":"nonpayable"},{"type":"function","name":"createSinger","inputs":[{"name":"_stageName","type":"string","internalType":"string"},{"name":"_description","type":"string","internalType":"string"},{"name":"_genre","type":"string","internalType":"string"},{"name":"_imageUrl","type":"string","internalType":"string"}],"outputs":[],"stateMutability":"nonpayable"},{"type":"function","name":"exists","inputs":[{"name":"id","type":"uint256","internalType":"uint256"}],"outputs":[{"name":"","type":"bool","internalType":"bool"}],"stateMutability":"view"},{"type":"function","name":"factory","inputs":[],"outputs":[{"name":"","type":"address","internalType":"contract INFTFactory"}],"stateMutability":"view"},{"type":"function","name":"getRoleAdmin","inputs":[{"name":"role","type":"bytes32","internalType":"bytes32"}],"outputs":[{"name":"","type":"bytes32","internalType":"bytes32"}],"stateMutability":"view"},{"type":"function","name":"getSingers","inputs":[{"name":"_start","type":"uint256","internalType":"uint256"},{"name":"_end","type":"uint256","internalType":"uint256"}],"outputs":[{"name":"","type":"tuple[]","internalType":"struct NFT.Singer[]","components":[{"name":"stageName","type":"string","internalType":"string"},{"name":"description","type":"string","internalType":"string"},{"name":"genre","type":"string","internalType":"string"},{"name":"imageUrl","type":"string","internalType":"string"},{"name":"exists","type":"bool","internalType":"bool"}]}],"stateMutability":"view"},{"type":"function","name":"grantRole","inputs":[{"name":"_role","type":"bytes32","internalType":"bytes32"},{"name":"_account","type":"address","internalType":"address"}],"outputs":[],"stateMutability":"nonpayable"},{"type":"function","name":"hasRole","inputs":[{"name":"role","type":"bytes32","internalType":"bytes32"},{"name":"account","type":"address","internalType":"address"}],"outputs":[{"name":"","type":"bool","internalType":"bool"}],"stateMutability":"view"},{"type":"function","name":"isApprovedForAll","inputs":[{"name":"account","type":"address","internalType":"address"},{"name":"operator","type":"address","internalType":"address"}],"outputs":[{"name":"","type":"bool","internalType":"bool"}],"stateMutability":"view"},{"type":"function","name":"name","inputs":[],"outputs":[{"name":"","type":"string","internalType":"string"}],"stateMutability":"view"},{"type":"function","name":"recordCompanyFee","inputs":[],"outputs":[{"name":"","type":"uint256","internalType":"uint256"}],"stateMutability":"view"},{"type":"function","name":"renounceRole","inputs":[{"name":"role","type":"bytes32","internalType":"bytes32"},{"name":"callerConfirmation","type":"address","internalType":"address"}],"outputs":[],"stateMutability":"nonpayable"},{"type":"function","name":"revokeRole","inputs":[{"name":"_role","type":"bytes32","internalType":"bytes32"},{"name":"_account","type":"address","internalType":"address"}],"outputs":[],"stateMutability":"nonpayable"},{"type":"function","name":"safeBatchTransferFrom","inputs":[{"name":"from","type":"address","internalType":"address"},{"name":"to","type":"address","internalType":"address"},{"name":"ids","type":"uint256[]","internalType":"uint256[]"},{"name":"values","type":"uint256[]","internalType":"uint256[]"},{"name":"data","type":"bytes","internalType":"bytes"}],"outputs":[],"stateMutability":"nonpayable"},{"type":"function","name":"safeTransferFrom","inputs":[{"name":"from","type":"address","internalType":"address"},{"name":"to","type":"address","internalType":"address"},{"name":"id","type":"uint256","internalType":"uint256"},{"name":"value","type":"uint256","internalType":"uint256"},{"name":"data","type":"bytes","internalType":"bytes"}],"outputs":[],"stateMutability":"nonpayable"},{"type":"function","name":"setApprovalForAll","inputs":[{"name":"operator","type":"address","internalType":"address"},{"name":"approved","type":"bool","internalType":"bool"}],"outputs":[],"stateMutability":"nonpayable"},{"type":"function","name":"singerIdCounter","inputs":[],"outputs":[{"name":"","type":"uint256","internalType":"uint256"}],"stateMutability":"view"},{"type":"function","name":"singers","inputs":[{"name":"","type":"uint256","internalType":"uint256"}],"outputs":[{"name":"stageName","type":"string","internalType":"string"},{"name":"description","type":"string","internalType":"string"},{"name":"genre","type":"string","internalType":"string"},{"name":"imageUrl","type":"string","internalType":"string"},{"name":"exists","type":"bool","internalType":"bool"}],"stateMutability":"view"},{"type":"function","name":"supportsInterface","inputs":[{"name":"_interfaceId","type":"bytes4","internalType":"bytes4"}],"outputs":[{"name":"","type":"bool","internalType":"bool"}],"stateMutability":"view"},{"type":"function","name":"totalSupply","inputs":[],"outputs":[{"name":"","type":"uint256","internalType":"uint256"}],"stateMutability":"view"},{"type":"function","name":"totalSupply","inputs":[{"name":"id","type":"uint256","internalType":"uint256"}],"outputs":[{"name":"","type":"uint256","internalType":"uint256"}],"stateMutability":"view"},{"type":"function","name":"treasury","inputs":[],"outputs":[{"name":"","type":"address","internalType":"address"}],"stateMutability":"view"},{"type":"function","name":"updateRecordCompanyFee","inputs":[{"name":"_newFee","type":"uint256","internalType":"uint256"}],"outputs":[],"stateMutability":"nonpayable"},{"type":"function","name":"updateRecordTreasury","inputs":[{"name":"_treasury","type":"address","internalType":"address"}],"outputs":[],"stateMutability":"nonpayable"},{"type":"function","name":"uri","inputs":[{"name":"_id","type":"uint256","internalType":"uint256"}],"outputs":[{"name":"","type":"string","internalType":"string"}],"stateMutability":"view"},{"type":"event","name":"ApprovalForAll","inputs":[{"name":"account","type":"address","indexed":true,"internalType":"address"},{"name":"operator","type":"address","indexed":true,"internalType":"address"},{"name":"approved","type":"bool","indexed":false,"internalType":"bool"}],"anonymous":false},{"type":"event","name":"RoleAdminChanged","inputs":[{"name":"role","type":"bytes32","indexed":true,"internalType":"bytes32"},{"name":"previousAdminRole","type":"bytes32","indexed":true,"internalType":"bytes32"},{"name":"newAdminRole","type":"bytes32","indexed":true,"internalType":"bytes32"}],"anonymous":false},{"type":"event","name":"RoleGranted","inputs":[{"name":"role","type":"bytes32","indexed":true,"internalType":"bytes32"},{"name":"account","type":"address","indexed":true,"internalType":"address"},{"name":"sender","type":"address","indexed":true,"internalType":"address"}],"anonymous":false},{"type":"event","name":"RoleRevoked","inputs":[{"name":"role","type":"bytes32","indexed":true,"internalType":"bytes32"},{"name":"account","type":"address","indexed":true,"internalType":"address"},{"name":"sender","type":"address","indexed":true,"internalType":"address"}],"anonymous":false},{"type":"event","name":"TransferBatch","inputs":[{"name":"operator","type":"address","indexed":true,"internalType":"address"},{"name":"from","type":"address","indexed":true,"internalType":"address"},{"name":"to","type":"address","indexed":true,"internalType":"address"},{"name":"ids","type":"uint256[]","indexed":false,"internalType":"uint256[]"},{"name":"values","type":"uint256[]","indexed":false,"internalType":"uint256[]"}],"anonymous":false},{"type":"event","name":"TransferSingle","inputs":[{"name":"operator","type":"address","indexed":true,"internalType":"address"},{"name":"from","type":"address","indexed":true,"internalType":"address"},{"name":"to","type":"address","indexed":true,"internalType":"address"},{"name":"id","type":"uint256","indexed":false,"internalType":"uint256"},{"name":"value","type":"uint256","indexed":false,"internalType":"uint256"}],"anonymous":false},{"type":"event","name":"URI","inputs":[{"name":"value","type":"string","indexed":false,"internalType":"string"},{"name":"id","type":"uint256","indexed":true,"internalType":"uint256"}],"anonymous":false},{"type":"error","name":"AccessControlBadConfirmation","inputs":[]},{"type":"error","name":"AccessControlUnauthorizedAccount","inputs":[{"name":"account","type":"address","internalType":"address"},{"name":"neededRole","type":"bytes32","internalType":"bytes32"}]},{"type":"error","name":"ERC1155InsufficientBalance","inputs":[{"name":"sender","type":"address","internalType":"address"},{"name":"balance","type":"uint256","internalType":"uint256"},{"name":"needed","type":"uint256","internalType":"uint256"},{"name":"tokenId","type":"uint256","internalType":"uint256"}]},{"type":"error","name":"ERC1155InvalidApprover","inputs":[{"name":"approver","type":"address","internalType":"address"}]},{"type":"error","name":"ERC1155InvalidArrayLength","inputs":[{"name":"idsLength","type":"uint256","internalType":"uint256"},{"name":"valuesLength","type":"uint256","internalType":"uint256"}]},{"type":"error","name":"ERC1155InvalidOperator","inputs":[{"name":"operator","type":"address","internalType":"address"}]},{"type":"error","name":"ERC1155InvalidReceiver","inputs":[{"name":"receiver","type":"address","internalType":"address"}]},{"type":"error","name":"ERC1155InvalidSender","inputs":[{"name":"sender","type":"address","internalType":"address"}]},{"type":"error","name":"ERC1155MissingApprovalForAll","inputs":[{"name":"operator","type":"address","internalType":"address"},{"name":"owner","type":"address","internalType":"address"}]}],"bytecode":{"object":"0x60806040523461030c576124d88038038061001981610310565b92833981019060808183031261030c5780516001600160401b03811161030c57810182601f8201121561030c578051906001600160401b0382116102c45761006a601f8301601f1916602001610310565b938285526020838301011161030c57815f9260208093018387015e8401015261009560208201610335565b60606100a360408401610335565b920151916020915f6100b484610310565b52600254600181811c91168015610302575b848210146102a657601f81116102d8575b506100ef905f6002556100e932610349565b506103bf565b505f805160206124988339815191525f52600582525f80516020612498833981519152600160405f200154815f526005845281600160405f200155817fbd79b86ffe0ab8e8776151514217cd7cacd52c909f66475c3af44e129f0b00ff5f80a4600d80546001600160a01b0319166001600160a01b03929092169190911790558251906001600160401b0382116102c457600c54600181811c911680156102ba575b828210146102a657601f8111610262575b5080601f83116001146101fe57508192935f926101f3575b50508160011b915f199060031b1c191617600c555b600b55600e80546001600160a01b0319163317905560405161201290816104668239f35b015190505f806101ba565b90601f19831694600c5f52825f20925f905b87821061024a575050836001959610610232575b505050811b01600c556101cf565b01515f1960f88460031b161c191690555f8080610224565b80600185968294968601518155019501930190610210565b600c5f52815f20601f840160051c81019183851061029c575b601f0160051c01905b81811061029157506101a2565b5f8155600101610284565b909150819061027b565b634e487b7160e01b5f52602260045260245ffd5b90607f1690610191565b634e487b7160e01b5f52604160045260245ffd5b60025f52601f845f20910160051c8101905b8181106102f757506100d7565b5f81556001016102ea565b90607f16906100c6565b5f80fd5b6040519190601f01601f191682016001600160401b038111838210176102c457604052565b51906001600160a01b038216820361030c57565b6001600160a01b0381165f9081525f805160206124b8833981519152602052604090205460ff166103ba576001600160a01b03165f8181525f805160206124b883398151915260205260408120805460ff191660011790553391905f805160206124788339815191528180a4600190565b505f90565b6001600160a01b0381165f9081527f79ed740027bf2a2d788cad2f071271c4cc92108c1a879ef33ec044da1905c17f602052604090205460ff166103ba576001600160a01b03165f8181527f79ed740027bf2a2d788cad2f071271c4cc92108c1a879ef33ec044da1905c17f60205260408120805460ff191660011790553391905f80516020612498833981519152905f805160206124788339815191529080a460019056fe60806040526004361015610011575f80fd5b5f3560e01c8062fdd58e1461021357806301ffc9a71461020e578063047a35a414610209578063061f8aa61461020457806306fdde03146101ff5780630d1e691a146101fa5780630e89341c146101f55780630fe18841146101f057806318160ddd146101eb578063248a9ca3146101e657806329fc7bd8146101e15780632d6c8ed5146101dc5780632eb2c2d6146101d75780632f2ff15d146101d257806336568abe146101cd57806344663cc2146101c85780634e1273f4146101c35780634f558e79146101be57806350a8ae61146101b9578063535ca46c146101b457806361d027b3146101af5780636d7d4cb2146101aa578063846a9898146101a557806391d14854146101a0578063a217fddf1461019b578063a22cb46514610196578063bd85b03914610191578063c45a01551461018c578063d547741f14610187578063e985e9c514610182578063ea5df0591461017d5763f242432a14610178575f80fd5b6111fc565b6111a9565b611159565b6110bc565b611094565b61106a565b610fb8565b610f9e565b610f4f565b610f32565b610f15565b610eed565b610e47565b610d9a565b610d66565b610ca7565b610b97565b610aa0565b6109da565b610950565b6108b5565b610898565b610865565b610848565b610761565b6106e1565b61069e565b6105c4565b61041a565b610349565b6102b6565b61025c565b600435906001600160a01b038216820361022e57565b5f80fd5b602435906001600160a01b038216820361022e57565b35906001600160a01b038216820361022e57565b3461022e57604036600319011261022e57602061029b61027a610218565b6024355f525f835260405f209060018060a01b03165f5260205260405f2090565b54604051908152f35b6001600160e01b031981160361022e57565b3461022e57602036600319011261022e576004356102d3816102a4565b63ffffffff60e01b16637965db0b60e01b81149081156102fc575b506040519015158152602090f35b636cdb3d1360e11b81149150811561032e575b811561031d575b505f6102ee565b6301ffc9a760e01b1490505f610316565b6303a24d0760e21b8114915061030f565b5f91031261022e57565b3461022e575f36600319011261022e576020600b54604051908152f35b634e487b7160e01b5f52604160045260245ffd5b60a081019081106001600160401b0382111761039557604052565b610366565b90601f801991011681019081106001600160401b0382111761039557604052565b6001600160401b03811161039557601f01601f191660200190565b81601f8201121561022e576020813591016103f0826103bb565b926103fe604051948561039a565b8284528282011161022e57815f92602092838601378301015290565b3461022e57608036600319011261022e576004356001600160401b03811161022e5761044a9036906004016103d6565b6024356001600160401b03811161022e576104699036906004016103d6565b906044356001600160401b03811161022e576104899036906004016103d6565b606435926001600160401b03841161022e576104ac6104b29436906004016103d6565b92611302565b005b90600182811c921680156104e2575b60208310146104ce57565b634e487b7160e01b5f52602260045260245ffd5b91607f16916104c3565b9060405191825f8254926104ff846104b4565b808452936001811690811561056a5750600114610526575b506105249250038361039a565b565b90505f9291925260205f20905f915b81831061054e575050906020610524928201015f610517565b6020919350806001915483858901015201910190918492610535565b90506020925061052494915060ff191682840152151560051b8201015f610517565b805180835260209291819084018484015e5f828201840152601f01601f1916010190565b9060206105c192818152019061058c565b90565b3461022e575f36600319011261022e576040515f600c546105e4816104b4565b808452906001811690811561067a575060011461061c575b6106188361060c8185038261039a565b604051918291826105b0565b0390f35b600c5f9081527fdf6966c971051c3d54ec59162606531493a51404a002842f56009d7e5cf4a8c7939250905b8082106106605750909150810160200161060c6105fc565b919260018160209254838588010152019101909291610648565b60ff191660208086019190915291151560051b8401909101915061060c90506105fc565b3461022e57602036600319011261022e576106b7610218565b6106bf6117b0565b600d80546001600160a01b0319166001600160a01b0392909216919091179055005b3461022e57602036600319011261022e5760043561070a815f52600360205260405f2054151590565b15610728575f52600760205261061861060c600260405f20016104ec565b60405162461bcd60e51b81526020600482015260116024820152702737b732bc34b9ba32b73a103a37b5b2b760791b6044820152606490fd5b3461022e57606036600319011261022e576024356004356044356001600160401b03811161022e576107979036906004016103d6565b916107a06117b0565b805f52600660205260ff600460405f200154161561080b576107f89282916107df6107d5600a545f52600760205260405f2090565b926002840161144c565b600182015555600a54906107f161153e565b9133611846565b6104b2610806600a5461152b565b600a55565b60405162461bcd60e51b815260206004820152601560248201527414da5b99d95c88191bd95cc81b9bdd08195e1a5cdd605a1b6044820152606490fd5b3461022e575f36600319011261022e576020600454604051908152f35b3461022e57602036600319011261022e5760206108906004355f526005602052600160405f20015490565b604051908152f35b3461022e575f36600319011261022e576020604051620f42408152f35b3461022e575f36600319011261022e5760206040515f80516020611fbd8339815191528152f35b6001600160401b0381116103955760051b60200190565b9080601f8301121561022e57813561090a816108dc565b92610918604051948561039a565b81845260208085019260051b82010192831161022e57602001905b8282106109405750505090565b8135815260209182019101610933565b3461022e5760a036600319011261022e57610969610218565b610971610232565b906044356001600160401b03811161022e576109919036906004016108f3565b6064356001600160401b03811161022e576109b09036906004016108f3565b90608435936001600160401b03851161022e576109d46104b29536906004016103d6565b93611552565b3461022e57604036600319011261022e576004355f80516020611fbd833981519152610a04610232565b91610a23610a1e825f526005602052600160405f20015490565b61180c565b610a2d8382611925565b5014610a3557005b600e546001600160a01b0316803b1561022e5760405163be2d146f60e01b81526001600160a01b0390921660048301523060248301525f908290818381604481015b03925af18015610a9b57610a8757005b80610a955f6104b29361039a565b8061033f565b6115ae565b3461022e57604036600319011261022e57600435610abc610232565b336001600160a01b03821603610ad5576104b2916119b5565b63334bd91960e11b5f5260045ffd5b602081016020825282518091526040820191602060408360051b8301019401925f915b838310610b1657505050505090565b9091929394602080600192603f19858203018652885190608080610b80610b6e610b5c610b4c875160a0885260a088019061058c565b888801518782038a89015261058c565b6040870151868203604088015261058c565b6060860151858203606087015261058c565b930151151591015297019301930191939290610b07565b3461022e57604036600319011261022e576004356024356009548111610c3057610bc3828210156115b9565b610bd5610bd083836115fa565b611607565b91805b828110610bed57604051806106188682610ae4565b80610c29610c056001935f52600660205260405f2090565b610c18610c1286856115fa565b9161169f565b610c228289611677565b5286611677565b5001610bd8565b60405162461bcd60e51b815260206004820152600b60248201526a125b9d985b1a5908195b9960aa1b6044820152606490fd5b90602080835192838152019201905f5b818110610c805750505090565b8251845260209384019390920191600101610c73565b9060206105c1928181520190610c63565b3461022e57604036600319011261022e576004356001600160401b03811161022e573660238201121561022e57806004013590610ce3826108dc565b91610cf1604051938461039a565b8083526024602084019160051b8301019136831161022e57602401905b828210610d4e57836024356001600160401b03811161022e5761061891610d3c610d429236906004016108f3565b906116fc565b60405191829182610c96565b60208091610d5b84610248565b815201910190610d0e565b3461022e57602036600319011261022e576020610d906004355f52600360205260405f2054151590565b6040519015158152f35b3461022e57602036600319011261022e576004355f526006602052610e1160405f20610dc5816104ec565b90610e3b610dd5600183016104ec565b91610e2d610de5600283016104ec565b610e1f60ff6004610df8600387016104ec565b950154169560405198899860a08a5260a08a019061058c565b9088820360208a015261058c565b90868203604088015261058c565b90848203606086015261058c565b90151560808301520390f35b3461022e57602036600319011261022e57335f9081527f05b8ccbb9d4d8fb16ea74ce3c29a41f1b461fbdaff4714a0d9a8eb05499746bc60205260409020546004359060ff1615610ed657620f42408111610ea157600b55005b60405162461bcd60e51b815260206004820152600d60248201526c466565206f766572203130302560981b6044820152606490fd5b63e2517d3f60e01b5f52336004525f60245260445ffd5b3461022e575f36600319011261022e57600d546040516001600160a01b039091168152602090f35b3461022e575f36600319011261022e576020600a54604051908152f35b3461022e575f36600319011261022e576020600954604051908152f35b3461022e57604036600319011261022e57602060ff610f92600435610f72610232565b905f526005845260405f209060018060a01b03165f5260205260405f2090565b54166040519015158152f35b3461022e575f36600319011261022e5760206040515f8152f35b3461022e57604036600319011261022e57610fd1610218565b602435908115159081830361022e576001600160a01b0381169283156110585761101961102a92335f52600160205260405f209060018060a01b03165f5260205260405f2090565b9060ff801983541691151516179055565b6040519081527f17307eab39ab6107e8899845ad3d59bd9653f200f220920489ca2b5937696c3160203392a3005b62ced3e160e81b5f525f60045260245ffd5b3461022e57602036600319011261022e576004355f526003602052602060405f2054604051908152f35b3461022e575f36600319011261022e57600e546040516001600160a01b039091168152602090f35b3461022e57604036600319011261022e576004355f80516020611fbd8339815191526110e6610232565b91611100610a1e825f526005602052600160405f20015490565b61110a83826119b5565b501461111257005b600e546001600160a01b0316803b1561022e5760405163be2d146f60e01b81526001600160a01b0390921660048301525f6024830181905290829081838160448101610a77565b3461022e57604036600319011261022e57602060ff610f92611179610218565b611181610232565b6001600160a01b039182165f9081526001865260408082209290931681526020919091522090565b3461022e57602036600319011261022e576004355f52600760205260405f2080546106186111de6002600185015494016104ec565b6040519384938452602084015260606040840152606083019061058c565b3461022e5760a036600319011261022e57611215610218565b61121d610232565b60443590606435926084356001600160401b03811161022e576112449036906004016103d6565b926001600160a01b03821633811415806112df575b6112c9576001600160a01b038416156112b657156112a4576104b29461129c60405192600184526020840152604083019160018352606084015260808301604052565b929091611a3d565b626a0d4560e21b5f525f60045260245ffd5b632bfa23e760e11b5f525f60045260245ffd5b63711bec9160e11b5f523360045260245260445ffd5b505f81815260016020908152604080832033845290915290205460ff1615611259565b909161130c6117b0565b60ff611317836113de565b54166113a15760046113819361136e61138e9661136561137c9561135c6113486009545f52600660205260405f2090565b956113538a8861144c565b6001870161144c565b6002850161144c565b6003830161144c565b01805460ff19166001179055565b6113de565b805460ff19166001179055565b61052461139c60095461152b565b600955565b60405162461bcd60e51b815260206004820152601560248201527453696e67657220616c72656164792065786973747360581b6044820152606490fd5b60208091604051928184925191829101835e8101600881520301902090565b601f821161140a57505050565b5f5260205f20906020601f840160051c83019310611442575b601f0160051c01905b818110611437575050565b5f815560010161142c565b9091508190611423565b91909182516001600160401b038111610395576114738161146d84546104b4565b846113fd565b6020601f82116001146114b25781906114a39394955f926114a7575b50508160011b915f199060031b1c19161790565b9055565b015190505f8061148f565b601f198216906114c5845f5260205f2090565b915f5b8181106114ff575095836001959697106114e7575b505050811b019055565b01515f1960f88460031b161c191690555f80806114dd565b9192602060018192868b0151815501940192016114c8565b634e487b7160e01b5f52601160045260245ffd5b5f1981146115395760010190565b611517565b6040519061154d60208361039a565b5f8252565b939291906001600160a01b038516338114158061158b575b6112c9576001600160a01b038216156112b657156112a45761052494611a3d565b505f81815260016020908152604080832033845290915290205460ff161561156a565b6040513d5f823e3d90fd5b156115c057565b60405162461bcd60e51b8152602060048201526012602482015271496e76616c696420706172616d657465727360701b6044820152606490fd5b9190820391821161153957565b90611611826108dc565b61161e604051918261039a565b828152809261162f601f19916108dc565b01905f5b82811061163f57505050565b60209060405161164e8161037a565b60608152606083820152606060408201526060808201525f608082015282828501015201611633565b805182101561168b5760209160051b010190565b634e487b7160e01b5f52603260045260245ffd5b906040516116ac8161037a565b608060ff600483956116bd816104ec565b85526116cb600182016104ec565b60208601526116dc600282016104ec565b60408601526116ed600382016104ec565b60608601520154161515910152565b9190918051835180820361179b575050805190611718826108dc565b91611726604051938461039a565b808352611735601f19916108dc565b013660208401375f5b8151811015611794578061178360019260051b60208082870101519189010151905f918252602082815260408084206001600160a01b03909316845291905290205490565b61178d8286611677565b520161173e565b5090925050565b635b05999160e01b5f5260045260245260445ffd5b335f9081527f79ed740027bf2a2d788cad2f071271c4cc92108c1a879ef33ec044da1905c17f602052604090205460ff16156117e857565b63e2517d3f60e01b5f52336004525f80516020611fbd83398151915260245260445ffd5b5f81815260056020908152604080832033845290915290205460ff16156118305750565b63e2517d3f60e01b5f523360045260245260445ffd5b93916001600160a01b038516156112b65761187e60405192600184526020840152604083019160018352606084015260808301604052565b909161188c8284875f611ded565b5f94855b84518710156118e1576118d96001916118a98987611677565b51906118c76118b88b8a611677565b515f52600360205260405f2090565b6118d2838254611b57565b9055611b57565b960195611890565b6118fb9195949296506118f690600454611b57565b600455565b805160010361191a579060208061052495930151910151915f33611d2a565b610524935f33611bfb565b5f8181526005602090815260408083206001600160a01b038616845290915290205460ff166119af575f8181526005602090815260408083206001600160a01b03861684529091529020805460ff1916600117905533916001600160a01b0316907f2f8788117e7eff1d82e926ec794901d17c78024a50270940304540a733656f0d5f80a4600190565b50505f90565b5f8181526005602090815260408083206001600160a01b038616845290915290205460ff16156119af575f8181526005602090815260408083206001600160a01b03861684529091529020805460ff1916905533916001600160a01b0316907ff6391f5c32d9c69d2a47ea670b442974b53935d1edc7fd64eb21e047a839171b5f80a4600190565b91939290611a4d82868386611ded565b6001600160a01b03831615611b06575b6001600160a01b0381161580611ab2575b15611a7b575b5050505050565b8451600103611aa157602080611a979601519201519233611d2a565b5f80808080611a74565b611aad94919233611bfb565b611a97565b94935f939091845b8651861015611aee57600190611ad08787611677565b5190611adf6118b8898b611677565b82815403905501950194611aba565b611b019193969792955060045403600455565b611a6e565b93925f92835b8551851015611b3c57611b34600191611b258787611677565b51906118c76118b8898b611677565b940193611b0c565b611b529194506118f69096929596600454611b57565b611a5d565b9190820180921161153957565b9081602091031261022e57516105c1816102a4565b6001600160a01b0391821681529116602082015260a0604082018190526105c19491939192611bbe9291611bb09190860190610c63565b908482036060860152610c63565b91608081840391015261058c565b3d15611bf6573d90611bdd826103bb565b91611beb604051938461039a565b82523d5f602084013e565b606090565b9091949293853b611c0f575b505050505050565b602093611c3191604051968795869563bc197c8160e01b875260048701611b79565b03815f6001600160a01b0387165af15f9181611cc0575b50611c825750611c56611bcc565b8051919082611c7b57632bfa23e760e11b5f526001600160a01b03821660045260245ffd5b9050602001fd5b6001600160e01b0319166343e6837f60e01b01611ca557505f8080808080611c07565b632bfa23e760e11b5f526001600160a01b031660045260245ffd5b611ce391925060203d602011611cea575b611cdb818361039a565b810190611b64565b905f611c48565b503d611cd1565b6001600160a01b039182168152911660208201526040810191909152606081019190915260a0608082018190526105c19291019061058c565b9091949293853b611d3d57505050505050565b602093611d5f91604051968795869563f23a6e6160e01b875260048701611cf1565b03815f6001600160a01b0387165af15f9181611da7575b50611d845750611c56611bcc565b6001600160e01b031916630dc5919f60e01b01611ca557505f8080808080611c07565b611dc191925060203d602011611cea57611cdb818361039a565b905f611d76565b9091611ddf6105c193604084526040840190610c63565b916020818403910152610c63565b9392918051835190818103611fa75750505f5b8151811015611f01578060051b90602080838501015192860101518460018060a01b038916611e84575b6001936001600160a01b038216611e45575b50505001611e00565b611e7a91611e5d611e72925f525f60205260405f2090565b9060018060a01b03165f5260205260405f2090565b918254611b57565b90555f8481611e3c565b509091611e9c88611e5d835f525f60205260405f2090565b54828110611eca57829160019493879203611ec28b611e5d845f525f60205260405f2090565b559350611e2a565b6040516303dee4c560e01b81526001600160a01b038a16600482015260248101919091526044810183905260648101829052608490fd5b508051939493919291600103611f64576020908101519181015160408051938452918301526001600160a01b03928316939092169133917fc3d58168c5ae7397731d063d5bbf3d657854427343f4c083240f7aacaa2d0f6291819081015b0390a4565b6040516001600160a01b03938416949093169233927f4a39dc06d4c0dbc64b70af90fd698a233a518aa5d07e595d983b8c0526c8f7fb928291611f5f9183611dc8565b635b05999160e01b5f5260045260245260445ffdfe768dd85fed03ac9c2c0f14fe090b045c29124f162b5fa7d6dd8ca0009807d4dba26469706673582212202f35c01b89d3bb73fd0bfe1ca2e383a1f5433bc0e8278f82f0c5768f6afc8efb64736f6c634300081a00332f8788117e7eff1d82e926ec794901d17c78024a50270940304540a733656f0d768dd85fed03ac9c2c0f14fe090b045c29124f162b5fa7d6dd8ca0009807d4db05b8ccbb9d4d8fb16ea74ce3c29a41f1b461fbdaff4714a0d9a8eb05499746bc","linkReferences":{}},"methodIdentifiers":{"DEFAULT_ADMIN_ROLE()":"a217fddf","PERCENT_DIVIDER()":"29fc7bd8","RECORD_COMPANY_ROLE()":"2d6c8ed5","albumIdCounter()":"6d7d4cb2","albums(uint256)":"ea5df059","balanceOf(address,uint256)":"00fdd58e","balanceOfBatch(address[],uint256[])":"4e1273f4","createAlbum(uint256,uint256,string)":"0fe18841","createSinger(string,string,string,string)":"061f8aa6","exists(uint256)":"4f558e79","factory()":"c45a0155","getRoleAdmin(bytes32)":"248a9ca3","getSingers(uint256,uint256)":"44663cc2","grantRole(bytes32,address)":"2f2ff15d","hasRole(bytes32,address)":"91d14854","isApprovedForAll(address,address)":"e985e9c5","name()":"06fdde03","recordCompanyFee()":"047a35a4","renounceRole(bytes32,address)":"36568abe","revokeRole(bytes32,address)":"d547741f","safeBatchTransferFrom(address,address,uint256[],uint256[],bytes)":"2eb2c2d6","safeTransferFrom(address,address,uint256,uint256,bytes)":"f242432a","setApprovalForAll(address,bool)":"a22cb465","singerIdCounter()":"846a9898","singers(uint256)":"50a8ae61","supportsInterface(bytes4)":"01ffc9a7","totalSupply()":"18160ddd","totalSupply(uint256)":"bd85b039","treasury()":"61d027b3","updateRecordCompanyFee(uint256)":"535ca46c","updateRecordTreasury(address)":"0d1e691a","uri(uint256)":"0e89341c"},"id":51}