{"abi":[{"type":"constructor","inputs":[{"name":"_name","type":"string","internalType":"string"},{"name":"_recordCompanyAdmin","type":"address","internalType":"address"},{"name":"_treasury","type":"address","internalType":"address"},{"name":"_initialFee","type":"uint256","internalType":"uint256"}],"stateMutability":"nonpayable"},{"type":"function","name":"DEFAULT_ADMIN_ROLE","inputs":[],"outputs":[{"name":"","type":"bytes32","internalType":"bytes32"}],"stateMutability":"view"},{"type":"function","name":"RECORD_COMPANY_ROLE","inputs":[],"outputs":[{"name":"","type":"bytes32","internalType":"bytes32"}],"stateMutability":"view"},{"type":"function","name":"albumIdCounter","inputs":[],"outputs":[{"name":"","type":"uint256","internalType":"uint256"}],"stateMutability":"view"},{"type":"function","name":"albums","inputs":[{"name":"","type":"uint256","internalType":"uint256"}],"outputs":[{"name":"shareCount","type":"uint256","internalType":"uint256"},{"name":"singerId","type":"uint256","internalType":"uint256"},{"name":"metadataUrl","type":"string","internalType":"string"}],"stateMutability":"view"},{"type":"function","name":"balanceOf","inputs":[{"name":"account","type":"address","internalType":"address"},{"name":"id","type":"uint256","internalType":"uint256"}],"outputs":[{"name":"","type":"uint256","internalType":"uint256"}],"stateMutability":"view"},{"type":"function","name":"balanceOfBatch","inputs":[{"name":"accounts","type":"address[]","internalType":"address[]"},{"name":"ids","type":"uint256[]","internalType":"uint256[]"}],"outputs":[{"name":"","type":"uint256[]","internalType":"uint256[]"}],"stateMutability":"view"},{"type":"function","name":"createAlbum","inputs":[{"name":"_shareCount","type":"uint256","internalType":"uint256"},{"name":"_singerId","type":"uint256","internalType":"uint256"},{"name":"_metadataUrl","type":"string","internalType":"string"}],"outputs":[],"stateMutability":"nonpayable"},{"type":"function","name":"createSinger","inputs":[{"name":"_stageName","type":"string","internalType":"string"},{"name":"_description","type":"string","internalType":"string"},{"name":"_genre","type":"string","internalType":"string"},{"name":"_imageUrl","type":"string","internalType":"string"}],"outputs":[],"stateMutability":"nonpayable"},{"type":"function","name":"exists","inputs":[{"name":"id","type":"uint256","internalType":"uint256"}],"outputs":[{"name":"","type":"bool","internalType":"bool"}],"stateMutability":"view"},{"type":"function","name":"factory","inputs":[],"outputs":[{"name":"","type":"address","internalType":"contract INFTFactory"}],"stateMutability":"view"},{"type":"function","name":"getRoleAdmin","inputs":[{"name":"role","type":"bytes32","internalType":"bytes32"}],"outputs":[{"name":"","type":"bytes32","internalType":"bytes32"}],"stateMutability":"view"},{"type":"function","name":"getSingers","inputs":[{"name":"_start","type":"uint256","internalType":"uint256"},{"name":"_end","type":"uint256","internalType":"uint256"}],"outputs":[{"name":"","type":"tuple[]","internalType":"struct NFT.Singer[]","components":[{"name":"stageName","type":"string","internalType":"string"},{"name":"description","type":"string","internalType":"string"},{"name":"genre","type":"string","internalType":"string"},{"name":"imageUrl","type":"string","internalType":"string"},{"name":"exists","type":"bool","internalType":"bool"}]}],"stateMutability":"view"},{"type":"function","name":"grantRole","inputs":[{"name":"_role","type":"bytes32","internalType":"bytes32"},{"name":"_account","type":"address","internalType":"address"}],"outputs":[],"stateMutability":"nonpayable"},{"type":"function","name":"hasRole","inputs":[{"name":"role","type":"bytes32","internalType":"bytes32"},{"name":"account","type":"address","internalType":"address"}],"outputs":[{"name":"","type":"bool","internalType":"bool"}],"stateMutability":"view"},{"type":"function","name":"isApprovedForAll","inputs":[{"name":"account","type":"address","internalType":"address"},{"name":"operator","type":"address","internalType":"address"}],"outputs":[{"name":"","type":"bool","internalType":"bool"}],"stateMutability":"view"},{"type":"function","name":"name","inputs":[],"outputs":[{"name":"","type":"string","internalType":"string"}],"stateMutability":"view"},{"type":"function","name":"recordCompanyFee","inputs":[],"outputs":[{"name":"","type":"uint256","internalType":"uint256"}],"stateMutability":"view"},{"type":"function","name":"renounceRole","inputs":[{"name":"role","type":"bytes32","internalType":"bytes32"},{"name":"account","type":"address","internalType":"address"}],"outputs":[],"stateMutability":"nonpayable"},{"type":"function","name":"revokeRole","inputs":[{"name":"_role","type":"bytes32","internalType":"bytes32"},{"name":"_account","type":"address","internalType":"address"}],"outputs":[],"stateMutability":"nonpayable"},{"type":"function","name":"safeBatchTransferFrom","inputs":[{"name":"from","type":"address","internalType":"address"},{"name":"to","type":"address","internalType":"address"},{"name":"ids","type":"uint256[]","internalType":"uint256[]"},{"name":"amounts","type":"uint256[]","internalType":"uint256[]"},{"name":"data","type":"bytes","internalType":"bytes"}],"outputs":[],"stateMutability":"nonpayable"},{"type":"function","name":"safeTransferFrom","inputs":[{"name":"from","type":"address","internalType":"address"},{"name":"to","type":"address","internalType":"address"},{"name":"id","type":"uint256","internalType":"uint256"},{"name":"amount","type":"uint256","internalType":"uint256"},{"name":"data","type":"bytes","internalType":"bytes"}],"outputs":[],"stateMutability":"nonpayable"},{"type":"function","name":"setApprovalForAll","inputs":[{"name":"operator","type":"address","internalType":"address"},{"name":"approved","type":"bool","internalType":"bool"}],"outputs":[],"stateMutability":"nonpayable"},{"type":"function","name":"singerIdCounter","inputs":[],"outputs":[{"name":"","type":"uint256","internalType":"uint256"}],"stateMutability":"view"},{"type":"function","name":"singers","inputs":[{"name":"","type":"uint256","internalType":"uint256"}],"outputs":[{"name":"stageName","type":"string","internalType":"string"},{"name":"description","type":"string","internalType":"string"},{"name":"genre","type":"string","internalType":"string"},{"name":"imageUrl","type":"string","internalType":"string"},{"name":"exists","type":"bool","internalType":"bool"}],"stateMutability":"view"},{"type":"function","name":"supportsInterface","inputs":[{"name":"_interfaceId","type":"bytes4","internalType":"bytes4"}],"outputs":[{"name":"","type":"bool","internalType":"bool"}],"stateMutability":"view"},{"type":"function","name":"totalSupply","inputs":[{"name":"id","type":"uint256","internalType":"uint256"}],"outputs":[{"name":"","type":"uint256","internalType":"uint256"}],"stateMutability":"view"},{"type":"function","name":"treasury","inputs":[],"outputs":[{"name":"","type":"address","internalType":"address"}],"stateMutability":"view"},{"type":"function","name":"updateRecordCompanyFee","inputs":[{"name":"_newFee","type":"uint256","internalType":"uint256"}],"outputs":[],"stateMutability":"nonpayable"},{"type":"function","name":"updateRecordTreasury","inputs":[{"name":"_treasury","type":"address","internalType":"address"}],"outputs":[],"stateMutability":"nonpayable"},{"type":"function","name":"uri","inputs":[{"name":"_id","type":"uint256","internalType":"uint256"}],"outputs":[{"name":"","type":"string","internalType":"string"}],"stateMutability":"view"},{"type":"event","name":"ApprovalForAll","inputs":[{"name":"account","type":"address","indexed":true,"internalType":"address"},{"name":"operator","type":"address","indexed":true,"internalType":"address"},{"name":"approved","type":"bool","indexed":false,"internalType":"bool"}],"anonymous":false},{"type":"event","name":"RoleAdminChanged","inputs":[{"name":"role","type":"bytes32","indexed":true,"internalType":"bytes32"},{"name":"previousAdminRole","type":"bytes32","indexed":true,"internalType":"bytes32"},{"name":"newAdminRole","type":"bytes32","indexed":true,"internalType":"bytes32"}],"anonymous":false},{"type":"event","name":"RoleGranted","inputs":[{"name":"role","type":"bytes32","indexed":true,"internalType":"bytes32"},{"name":"account","type":"address","indexed":true,"internalType":"address"},{"name":"sender","type":"address","indexed":true,"internalType":"address"}],"anonymous":false},{"type":"event","name":"RoleRevoked","inputs":[{"name":"role","type":"bytes32","indexed":true,"internalType":"bytes32"},{"name":"account","type":"address","indexed":true,"internalType":"address"},{"name":"sender","type":"address","indexed":true,"internalType":"address"}],"anonymous":false},{"type":"event","name":"TransferBatch","inputs":[{"name":"operator","type":"address","indexed":true,"internalType":"address"},{"name":"from","type":"address","indexed":true,"internalType":"address"},{"name":"to","type":"address","indexed":true,"internalType":"address"},{"name":"ids","type":"uint256[]","indexed":false,"internalType":"uint256[]"},{"name":"values","type":"uint256[]","indexed":false,"internalType":"uint256[]"}],"anonymous":false},{"type":"event","name":"TransferSingle","inputs":[{"name":"operator","type":"address","indexed":true,"internalType":"address"},{"name":"from","type":"address","indexed":true,"internalType":"address"},{"name":"to","type":"address","indexed":true,"internalType":"address"},{"name":"id","type":"uint256","indexed":false,"internalType":"uint256"},{"name":"value","type":"uint256","indexed":false,"internalType":"uint256"}],"anonymous":false},{"type":"event","name":"URI","inputs":[{"name":"value","type":"string","indexed":false,"internalType":"string"},{"name":"id","type":"uint256","indexed":true,"internalType":"uint256"}],"anonymous":false}],"bytecode":{"object":"0x604060808152346200042457620031e7803803806200001e8162000429565b9283398101608082820312620004245781516001600160401b03908181116200042457830190601f928084840112156200042457825193828511620003f957602094601f1994620000758383018716880162000429565b938285528783830101116200042457869060005b8381106200040f57505060009184010152620000a78587016200044f565b916060620000b78989016200044f565b9701519588518181019080821087831117620003f9576000918b5252600254936001948581811c91168015620003ee575b83821014620003d857848111620003a7575b506000600255600080526004908183528a60002032600052835260ff8b6000205416156200036b575b7f768dd85fed03ac9c2c0f14fe090b045c29124f162b5fa7d6dd8ca0009807d4db60008181528385528c81206001600160a01b03938416808352908652908d90205460ff16156200032e575b5080600052828452868c600020018181549155817fbd79b86ffe0ab8e8776151514217cd7cacd52c909f66475c3af44e129f0b00ff600080a460018060a01b0319991689600c541617600c5582519586116200031957600b54908582811c921680156200030e575b83831014620002f95750838111620002ad575b50809285116001146200024257508394509083929160009462000236575b50501b916000199060031b1c191617600b555b600a553390600d541617600d5551612d629081620004658239f35b01519250388062000208565b929484908116600b60005284600020946000905b8883831062000292575050501062000278575b505050811b01600b556200021b565b015160001960f88460031b161c1916905538808062000269565b85870151885590960195948501948793509081019062000256565b600b600052816000208480880160051c820192848910620002ef575b0160051c019085905b828110620002e2575050620001ea565b60008155018590620002d2565b92508192620002c9565b602290634e487b7160e01b6000525260246000fd5b91607f1691620001d7565b604190634e487b7160e01b6000525260246000fd5b816000528385528c6000208160005285528c6000208860ff19825416179055339082600080516020620031c7833981519152600080a4386200016f565b600080528183528a6000203260005283528a6000208660ff1982541617905533326000600080516020620031c78339815191528180a462000123565b6002600052858584600020920160051c8201915b828110620003cb575050620000fa565b60008155018690620003bb565b634e487b7160e01b600052602260045260246000fd5b90607f1690620000e8565b634e487b7160e01b600052604160045260246000fd5b81810183015186820184015288920162000089565b600080fd5b6040519190601f01601f191682016001600160401b03811183821017620003f957604052565b51906001600160a01b0382168203620004245756fe6080604052600436101561001257600080fd5b6000803560e01c8062fdd58e1461227d57806301ffc9a7146121f4578063047a35a4146121d6578063061f8aa614611c0357806306fdde0314611b325780630d1e691a14611aed5780630e89341c14611a555780630fe188411461162a578063248a9ca3146115fd5780632d6c8ed5146115d45780632eb2c2d61461116f5780632f2ff15d1461105d57806336568abe14610fc757806344663cc214610d6e5780634e1273f414610bc35780634f558e7914610b8c57806350a8ae6114610ade578063535ca46c146108f257806361d027b3146108c95780636d7d4cb2146108ab578063846a98981461088d57806391d1485414610841578063a217fddf14610825578063a22cb4651461073d578063bd85b03914610713578063c45a0155146106ea578063d547741f14610628578063e985e9c5146105d4578063ea5df0591461057c5763f242432a1461016657600080fd5b346105795760a03660031901126105795761017f6122ad565b6101876122c3565b90608480356001600160401b038111610575576101a8903690600401612359565b6001600160a01b0391908383163314801561054c575b6101c79061269e565b828516156101d58115612701565b6101e06044356128bf565b6101eb6064356128bf565b91858716156104ef575b61042e575b5050604435865260209486865260408720848616600052865260406000205461022760643582101561275b565b604435885287875260408820858716600052875260643590036040600020556044358752868652604087208482166000528652604060002061026c60643582546127ba565b905560405160443581526064358782015284821690858716907fc3d58168c5ae7397731d063d5bbf3d657854427343f4c083240f7aacaa2d0f6260403392a4803b6102b5578680f35b60a060006102ff958895604051978896879586938563f23a6e6160e01b9d8e87523360048801521660248601526044356044860152606435606486015284015260a48301906124b2565b0393165af1600091816103ff575b506103d557505060019061031f612830565b6308c379a0146103a0575b5061033a575b3880808080808680f35b60405162461bcd60e51b815260206004820152603460248201527f455243313135353a207472616e7366657220746f206e6f6e2d455243313135356044820152732932b1b2b4bb32b91034b6b83632b6b2b73a32b960611b6064820152608490fd5b0390fd5b6103a861284e565b90816103b4575061032a565b61039c60405192839262461bcd60e51b8452600484015260248301906124b2565b6001600160e01b0319161490506103305760405162461bcd60e51b81528061039c600482016127e7565b610420919250843d8611610427575b6104188183612338565b8101906127c7565b903861030d565b503d61040e565b9293879591979692965b84518110156104e05761044b818661268a565b51610456828b61268a565b5190808952600360205260408920549082821061048b57906104869392918a52600360205203604089205561267b565b610438565b60405162461bcd60e51b815260206004820152602860248201527f455243313135353a206275726e20616d6f756e74206578636565647320746f74604482015267616c537570706c7960c01b60648201528990fd5b509392509395509338806101fa565b9693909592889592955b875181101561053e5780610510610539928961268a565b5161051b828b61268a565b518c52600360205261053260408d209182546127ba565b905561267b565b6104f9565b5092959093969491946101f5565b508284168652600160205260408620336000526020526101c760ff6040600020541690506101be565b8480fd5b80fd5b503461057957602036600319011261057957604090600435815260066020522080546105d06105b26002600185015494016123e9565b604051938493845260208401526060604084015260608301906124b2565b0390f35b5034610579576040366003190112610579576105ee6122ad565b60406105f86122c3565b9260018060a01b0380931681526001602052209116600052602052602060ff604060002054166040519015158152f35b50346105795760403660031901126105795780600435600080516020612d0d8339815191526106556122c3565b91808452600460205261066e6001604086200154612ad3565b6106788382612580565b146106805750f35b600d546001600160a01b039081169190823b156106e5576044849283604051958694859363be2d146f60e01b8552166004840152600060248401525af180156106da576106ca5750f35b6106d3906122d9565b6105795780f35b6040513d84823e3d90fd5b505050fd5b5034610579578060031936011261057957600d546040516001600160a01b039091168152602090f35b50346105795760203660031901126105795760406020916004358152600383522054604051908152f35b5034610579576040366003190112610579576107576122ad565b60243590811515809203610821576001600160a01b0316903382146107ca5733835260016020526040832082600052602052604060002060ff1981541660ff83161790556040519081527f17307eab39ab6107e8899845ad3d59bd9653f200f220920489ca2b5937696c3160203392a380f35b60405162461bcd60e51b815260206004820152602960248201527f455243313135353a2073657474696e6720617070726f76616c20737461747573604482015268103337b91039b2b63360b91b6064820152608490fd5b8280fd5b5034610579578060031936011261057957602090604051908152f35b503461057957604036600319011261057957604061085d6122c3565b9160043581526004602052209060018060a01b0316600052602052602060ff604060002054166040519015158152f35b50346105795780600319360112610579576020600854604051908152f35b50346105795780600319360112610579576020600954604051908152f35b5034610579578060031936011261057957600c546040516001600160a01b039091168152602090f35b503461057957602080600319360112610ada576000805260048152604060002033600052815260ff60406000205416156109305750600435600a5580f35b61093933612bf1565b9060006040516109488161231d565b60428152828101916060368437815115610ac657603083538151600190811015610ab257607860218401536041905b808211610a425750506109ff576109f0936103b49260489260405196879376020b1b1b2b9b9a1b7b73a3937b61d1030b1b1b7bab73a1604d1b888601526109c7815180928a60378901910161248f565b8401917001034b99036b4b9b9b4b733903937b6329607d1b60378401525180938684019061248f565b01036028810185520183612338565b6064836040519062461bcd60e51b825280600483015260248201527f537472696e67733a20686578206c656e67746820696e73756666696369656e746044820152fd5b9091600f81166010811015610a9c576f181899199a1a9b1b9c1cb0b131b232b360811b901a610a718486612be0565b5360041c918015610a86576000190190610977565b634e487b7160e01b600052601160045260246000fd5b634e487b7160e01b600052603260045260246000fd5b634e487b7160e01b82526032600452602482fd5b634e487b7160e01b81526032600452602490fd5b5080fd5b5034610579576020366003190112610579576040610b56916004358152600560205220610b0a816123e9565b90610b80610b1a600183016123e9565b91610b72610b2a600283016123e9565b610b6460ff6004610b3d600387016123e9565b950154169560405198899860a08a5260a08a01906124b2565b9088820360208a01526124b2565b9086820360408801526124b2565b9084820360608601526124b2565b90151560808301520390f35b5034610579576020366003190112610579576020610bb96004356000526003602052604060002054151590565b6040519015158152f35b5034610579576040366003190112610579576001600160401b03600435818111610821573660238201121561082157806004013591610c01836124d7565b91610c0f6040519384612338565b83835260209360248585019160051b83010191368311610d6a57602401905b828210610d4657505050602435908111610d4257610c509036906004016124ee565b908051825103610ceb57805193610c66856124d7565b94610c746040519687612338565b808652610c83601f19916124d7565b0136858701375b8151811015610cd457610ccf90610cbf6001600160a01b03610cac838661268a565b5116610cb8838761268a565b51906125f6565b610cc9828861268a565b5261267b565b610c8a565b5050506105d060405192828493845283019061254c565b60405162461bcd60e51b815260048101849052602960248201527f455243313135353a206163636f756e747320616e6420696473206c656e677468604482015268040dad2e6dac2e8c6d60bb1b6064820152608490fd5b8380fd5b81356001600160a01b0381168103610d65578152908501908501610c2e565b600080fd5b8680fd5b5034610579576040366003190112610579576004356024356008548111610f9457818110610f5a57610da08282612cff565b91610daa836124d7565b92610db86040519485612338565b808452610dc7601f19916124d7565b01845b818110610f24575050805b828110610e9057505060408051602080825284518183018190529194600583901b86018401945081019285015b828710610e0f5785850386f35b909192938280600192603f19898203018552875190610e74610e61610e4f610e3f855160a08087528601906124b2565b86860151858203888701526124b2565b604085015184820360408601526124b2565b60608085015190848303908501526124b2565b9160808091015115159101529601920196019592919092610e02565b80610f1f918652610f19602060058152604088209060ff6004610eb38887612cff565b9360405193610ec185612302565b610eca826123e9565b8552610ed8600183016123e9565b90850152610ee8600282016123e9565b6040850152610ef9600382016123e9565b606085015201541615156080820152610f12828961268a565b528661268a565b5061267b565b610dd5565b602090604051610f3381612302565b60608082528390808284015280604084015280830152886080830152828801015201610dca565b60405162461bcd60e51b8152602060048201526012602482015271496e76616c696420706172616d657465727360701b6044820152606490fd5b60405162461bcd60e51b815260206004820152600b60248201526a125b9d985b1a5908195b9960aa1b6044820152606490fd5b503461057957604036600319011261057957610fe16122c3565b336001600160a01b0382160361100057610ffd90600435612580565b80f35b60405162461bcd60e51b815260206004820152602f60248201527f416363657373436f6e74726f6c3a2063616e206f6e6c792072656e6f756e636560448201526e103937b632b9903337b91039b2b63360891b6064820152608490fd5b5034610579576040366003190112610579578060043561107b6122c3565b81835260046020526110936001604085200154612ad3565b8183526004602090815260408085206001600160a01b0393841680875292528420549092600080516020612d0d8339815191529160ff1615611122575b146110d9575050f35b600d5416803b1561111e5760448392604051948593849263be2d146f60e01b845260048401523060248401525af180156106da57611115575080f35b610ffd906122d9565b5050fd5b80855260046020526040852084865260205260408520600160ff198254161790553384827f2f8788117e7eff1d82e926ec794901d17c78024a50270940304540a733656f0d8880a46110d0565b50346105795760031960a036820112610ada5761118a6122ad565b6111926122c3565b6001600160401b03916044358381116115d0576111b39036906004016124ee565b92606435818111610d6a576111cc9036906004016124ee565b9360849182359081116115cc576111e7903690600401612359565b6001600160a01b039290848416331480156115a5575b6112069061269e565b8251875103611551578386161561121d8115612701565b848616156114f7575b611434575b885b83518110156112b557806112446112b0928661268a565b5161124f828b61268a565b5190808d526020908d82528d60408120908a8c16905282528d6040848183205461127b8282101561275b565b8484528386528d8d848620911685528652039120558d528c815260408d20908d898c1690525261053260408d209182546127ba565b61122d565b5090959396604051604081526112ce604082018561254c565b908082036020820152858816917f4a39dc06d4c0dbc64b70af90fd698a233a518aa5d07e595d983b8c0526c8f7fb878c16928061130c33948c61254c565b0390a4853b611319578880f35b60405163bc197c8160e01b808252336004830152988516602482015260a06044820152968795869461134f9060a487019061254c565b838682030160648701526113629161254c565b918483030190840152611374916124b2565b0392169181865a94602095f1839181611414575b506113ec5750506001611399612830565b6308c379a0146113b5575b61033a575b38808080808080808880f35b6113bd61284e565b806113c857506113a4565b60405162461bcd60e51b81526020600482015290819061039c9060248301906124b2565b6001600160e01b031916146113a95760405162461bcd60e51b81528061039c600482016127e7565b61142d91925060203d8111610427576104188183612338565b9038611388565b969288969895929491955b85518110156114e757611452818761268a565b5161145d828c61268a565b5190808a52600360205260408a205490828210611492579061148d9392918b5260036020520360408a205561267b565b61143f565b60405162461bcd60e51b815260206004820152602860248201527f455243313135353a206275726e20616d6f756e74206578636565647320746f74604482015267616c537570706c7960c01b60648201528a90fd5b509296979597949093919461122b565b9794929695939190895b8a8951821015611542579089610532604061153d9461152c856115258f829061268a565b519561268a565b5181526003602052209182546127ba565b611501565b50509091939596929497611226565b5060405162461bcd60e51b815260206004820152602860248201527f455243313135353a2069647320616e6420616d6f756e7473206c656e677468206044820152670dad2e6dac2e8c6d60c31b6064820152fd5b508385168952600160205260408920338a5260205261120660ff60408b20541690506111fd565b8780fd5b8580fd5b50346105795780600319360112610579576020604051600080516020612d0d8339815191528152f35b50346105795760203660031901126105795760016040602092600435815260048452200154604051908152f35b5034610579576060366003190112610579576001600160401b03602480356004356044358481116115d057611663903690600401612359565b9361166c6128f4565b8286526020946005865260ff60046040892001541615611a195760095487526006865260408720906002820190805190848211611a06579082916116b2879594546123af565b601f81116119b2575b508990601f831160011461194c578b919083611941575b50508160011b916000199060031b1c19161790555b60019485820155556009549160405191868301908382109082111761192e5760405286825233156118e0578361171c846128bf565b611725836128bf565b8980845b61189a575b5091505084915052868652604087203388528652604087206117518282546127ba565b905560405183815281878201528733917fc3d58168c5ae7397731d063d5bbf3d657854427343f4c083240f7aacaa2d0f6260403392a4333b6117a0575b8661179a60095461267b565b60095580f35b6117e0918691604051938492839263f23a6e6160e01b978885523360048601528c8b8601526044850152606484015260a0608484015260a48301906124b2565b038189335af186918161187b575b5061184e575050916117fe612830565b6308c379a01461181b575b505061033a575b38808080808061178e565b61182361284e565b8061182e5750611809565b61039c9060405193849362461bcd60e51b855260048501528301906124b2565b6001600160e01b0319161492506118109150505760405162461bcd60e51b81528061039c600482016127e7565b611893919250863d8811610427576104188183612338565b90386117ee565b8a84518210156118da5761053260406118d29460036118b9868961268a565b51946118c5878b61268a565b51835252209182546127ba565b8a9084611729565b5061172e565b60405162461bcd60e51b8152600481018790526021818701527f455243313135353a206d696e7420746f20746865207a65726f206164647265736044820152607360f81b6064820152608490fd5b634e487b7160e01b885260416004528588fd5b0151905038806116d2565b838c528a8c209190601f1984168d5b8d828210611999575050908460019594939210611980575b505050811b0190556116e7565b015160001960f88460031b161c19169055388080611973565b8484015186558b9950600190950194938401930161195b565b909192809495508b52898b20601f840160051c8101918b85106119fc575b90601f899796959493920160051c01905b8181106119ee57506116bb565b8c81558896506001016119e1565b90915081906119d0565b634e487b7160e01b8a526041600452878afd5b60405162461bcd60e51b8152600481018790526015818701527414da5b99d95c88191bd95cc81b9bdd08195e1a5cdd605a1b6044820152606490fd5b503461057957602036600319011261057957600435611a81816000526003602052604060002054151590565b15611ab4576002604083611aa0936105d09552600660205220016123e9565b6040519182916020835260208301906124b2565b60405162461bcd60e51b81526020600482015260116024820152702737b732bc34b9ba32b73a103a37b5b2b760791b6044820152606490fd5b503461057957602036600319011261057957611b076122ad565b611b0f6128f4565b60018060a01b03166bffffffffffffffffffffffff60a01b600c541617600c5580f35b50346105795780600319360112610579576040519080600b54611b54816123af565b80855291600191808316908115611bd95750600114611b7e575b6105d085611aa081870382612338565b9250600b83527f0175b7a638427703f0dbe7bb9bbf987a2551717b34e79f33b5b1008d1fa01db95b828410611bc1575050508101602001611aa0826105d0611b6e565b80546020858701810191909152909301928101611ba6565b8695506105d096935060209250611aa094915060ff191682840152151560051b8201019293611b6e565b5034610579576080366003190112610579576004356001600160401b038111610ada57611c34903690600401612359565b6024356001600160401b03811161082157611c53903690600401612359565b6044356001600160401b038111610d4257611c72903690600401612359565b6064356001600160401b03811161057557611c91903690600401612359565b90611c9a6128f4565b60ff6040516020818751611cb18183858c0161248f565b8101600781520301902054166121995760085485526005602052604085209284516001600160401b0381116120d557611cea85546123af565b601f8111612158575b50806020601f82116001146120f45788916120e9575b508160011b916000199060031b1c19161784555b8051906001600160401b0382116120d5578190611d3d60018701546123af565b601f8111612085575b50602090601f831160011461201657889261200b575b50508160011b916000199060031b1c19161760018401555b8051906001600160401b038211611f2d578190611d9460028601546123af565b601f8111611fbb575b50602090601f8311600114611f4c578792611f41575b50508160011b916000199060031b1c19161760028301555b805160038301916001600160401b038211611f2d57611dea83546123af565b601f8111611ee8575b50602090601f8311600114611e7a5793611e4d93836020946004946001988b92611e6f575b5050600019600383901b1c191690871b1790555b019360ff19948486825416179055816040519382858094519384920161248f565b8101600781520301902091825416179055611e6960085461267b565b60085580f35b015190503880611e18565b838752602087209190601f198416885b818110611ed057508460049460019894611e4d98946020988b9510611eb7575b505050811b019055611e2c565b015160001960f88460031b161c19169055388080611eaa565b92936020600181928786015181550195019301611e8a565b83875260208720601f840160051c81019160208510611f23575b601f0160051c01905b818110611f185750611df3565b878155600101611f0b565b9091508190611f02565b634e487b7160e01b86526041600452602486fd5b015190503880611db3565b9250600285018752602087209087935b601f1984168510611fa0576001945083601f19811610611f87575b505050811b016002830155611dcb565b015160001960f88460031b161c19169055388080611f77565b81810151835560209485019460019093019290910190611f5c565b90915060028501875260208720601f840160051c810160208510612004575b90849392915b601f830160051c82018110611ff6575050611d9d565b898155859450600101611fe0565b5080611fda565b015190503880611d5c565b9250600186018852602088209088935b601f198416851061206a576001945083601f19811610612051575b505050811b016001840155611d74565b015160001960f88460031b161c19169055388080612041565b81810151835560209485019460019093019290910190612026565b90915060018601885260208820601f840160051c8101602085106120ce575b90849392915b601f830160051c820181106120c0575050611d46565b8a81558594506001016120aa565b50806120a4565b634e487b7160e01b87526041600452602487fd5b905086015138611d09565b91508588526020882088925b601f1983168410612140576001935082601f19811610612127575b5050811b018455611d1d565b88015160001960f88460031b161c19169055388061211b565b88810151825560209384019360019092019101612100565b85885260208820601f830160051c810160208410612192575b601f830160051c82018110612187575050611cf3565b898155600101612171565b5080612171565b60405162461bcd60e51b815260206004820152601560248201527453696e67657220616c72656164792065786973747360581b6044820152606490fd5b50346105795780600319360112610579576020600a54604051908152f35b50346105795760203660031901126105795760043563ffffffff60e01b8116809103610ada57602090637965db0b60e01b811490811561223a575b506040519015158152f35b636cdb3d1360e11b81149150811561226c575b811561225b575b508261222f565b6301ffc9a760e01b14905082612254565b6303a24d0760e21b8114915061224d565b50346105795760403660031901126105795760206122a561229c6122ad565b602435906125f6565b604051908152f35b600435906001600160a01b0382168203610d6557565b602435906001600160a01b0382168203610d6557565b6001600160401b0381116122ec57604052565b634e487b7160e01b600052604160045260246000fd5b60a081019081106001600160401b038211176122ec57604052565b608081019081106001600160401b038211176122ec57604052565b90601f801991011681019081106001600160401b038211176122ec57604052565b81601f82011215610d65578035906001600160401b0382116122ec576040519261238d601f8401601f191660200185612338565b82845260208383010111610d6557816000926020809301838601378301015290565b90600182811c921680156123df575b60208310146123c957565b634e487b7160e01b600052602260045260246000fd5b91607f16916123be565b90604051918260008254926123fd846123af565b90818452600194858116908160001461246c5750600114612429575b505061242792500383612338565b565b9093915060005260209081600020936000915b81831061245457505061242793508201013880612419565b8554888401850152948501948794509183019161243c565b91505061242794506020925060ff191682840152151560051b8201013880612419565b60005b8381106124a25750506000910152565b8181015183820152602001612492565b906020916124cb8151809281855285808601910161248f565b601f01601f1916010190565b6001600160401b0381116122ec5760051b60200190565b81601f82011215610d6557803591612505836124d7565b926125136040519485612338565b808452602092838086019260051b820101928311610d65578301905b82821061253d575050505090565b8135815290830190830161252f565b90815180825260208080930193019160005b82811061256c575050505090565b83518552938101939281019260010161255e565b906000918083526004602052604083209160018060a01b03169182845260205260ff6040842054166125b157505050565b8083526004602052604083208284526020526040832060ff1981541690557ff6391f5c32d9c69d2a47ea670b442974b53935d1edc7fd64eb21e047a839171b339380a4565b6001600160a01b031690811561262357600052600060205260406000209060005260205260406000205490565b60405162461bcd60e51b815260206004820152602a60248201527f455243313135353a2061646472657373207a65726f206973206e6f742061207660448201526930b634b21037bbb732b960b11b6064820152608490fd5b6000198114610a865760010190565b8051821015610a9c5760209160051b010190565b156126a557565b60405162461bcd60e51b815260206004820152602e60248201527f455243313135353a2063616c6c6572206973206e6f7420746f6b656e206f776e60448201526d195c881bdc88185c1c1c9bdd995960921b6064820152608490fd5b1561270857565b60405162461bcd60e51b815260206004820152602560248201527f455243313135353a207472616e7366657220746f20746865207a65726f206164604482015264647265737360d81b6064820152608490fd5b1561276257565b60405162461bcd60e51b815260206004820152602a60248201527f455243313135353a20696e73756666696369656e742062616c616e636520666f60448201526939103a3930b739b332b960b11b6064820152608490fd5b91908201809211610a8657565b90816020910312610d6557516001600160e01b031981168103610d655790565b60809060208152602860208201527f455243313135353a204552433131353552656365697665722072656a656374656040820152676420746f6b656e7360c01b60608201520190565b60009060033d1161283d57565b905060046000803e60005160e01c90565b600060443d106128ab57604051600319913d83016004833e81516001600160401b03918282113d6024840111176128ae578184019485519384116128b6573d850101602084870101116128ae57506128ab92910160200190612338565b90565b949350505050565b50949350505050565b60405190604082018281106001600160401b038211176122ec5760405260018252602082016020368237825115610a9c575290565b3360009081527fade3854e0e71bae7fd0b538029b412998689099781c4f9a6379639796a45a0ec60209081526040808320549192600492600080516020612d0d833981519152919060ff161561294b575050505050565b61295433612bf1565b918351906129618261231d565b60428252868201926060368537825115612ac05760308453825190600191821015612aad5790607860218501536041915b818311612a4257505050612a015760486109f09385936129e79361039c975196879376020b1b1b2b9b9a1b7b73a3937b61d1030b1b1b7bab73a1604d1b8c8601526109c78c825192839160378901910161248f565b5193849362461bcd60e51b855284015260248301906124b2565b606485878087519262461bcd60e51b845283015260248201527f537472696e67733a20686578206c656e67746820696e73756666696369656e746044820152fd5b909192600f81166010811015612a9a576f181899199a1a9b1b9c1cb0b131b232b360811b901a612a728587612be0565b53881c928015612a8757600019019190612992565b634e487b7160e01b825260118952602482fd5b634e487b7160e01b835260328a52602483fd5b634e487b7160e01b815260328852602490fd5b634e487b7160e01b815260328752602490fd5b6000818152600490602092828452604091828120338252855260ff838220541615612aff575050505050565b612b0833612bf1565b91835190612b158261231d565b60428252868201926060368537825115612ac05760308453825190600191821015612aad5790607860218501536041915b818311612b9b57505050612a015760486109f09385936129e79361039c975196879376020b1b1b2b9b9a1b7b73a3937b61d1030b1b1b7bab73a1604d1b8c8601526109c78c825192839160378901910161248f565b909192600f81166010811015612a9a576f181899199a1a9b1b9c1cb0b131b232b360811b901a612bcb8587612be0565b53881c928015612a8757600019019190612b46565b908151811015610a9c570160200190565b60405190606082018281106001600160401b038211176122ec57604052602a8252602082016040368237825115610a9c57603090538151600190811015610a9c57607860218401536029905b808211612c91575050612c4d5790565b606460405162461bcd60e51b815260206004820152602060248201527f537472696e67733a20686578206c656e67746820696e73756666696369656e746044820152fd5b9091600f81166010811015612cea576f181899199a1a9b1b9c1cb0b131b232b360811b901a612cc08486612be0565b5360041c918015612cd5576000190190612c3d565b60246000634e487b7160e01b81526011600452fd5b60246000634e487b7160e01b81526032600452fd5b91908203918211610a865756fe768dd85fed03ac9c2c0f14fe090b045c29124f162b5fa7d6dd8ca0009807d4dba2646970667358221220fb3fb1431cdff55142210eddcbe32cb9cf2106d9b1c83ebe75afe53c362065ca64736f6c634300081300332f8788117e7eff1d82e926ec794901d17c78024a50270940304540a733656f0d","linkReferences":{}},"methodIdentifiers":{"DEFAULT_ADMIN_ROLE()":"a217fddf","RECORD_COMPANY_ROLE()":"2d6c8ed5","albumIdCounter()":"6d7d4cb2","albums(uint256)":"ea5df059","balanceOf(address,uint256)":"00fdd58e","balanceOfBatch(address[],uint256[])":"4e1273f4","createAlbum(uint256,uint256,string)":"0fe18841","createSinger(string,string,string,string)":"061f8aa6","exists(uint256)":"4f558e79","factory()":"c45a0155","getRoleAdmin(bytes32)":"248a9ca3","getSingers(uint256,uint256)":"44663cc2","grantRole(bytes32,address)":"2f2ff15d","hasRole(bytes32,address)":"91d14854","isApprovedForAll(address,address)":"e985e9c5","name()":"06fdde03","recordCompanyFee()":"047a35a4","renounceRole(bytes32,address)":"36568abe","revokeRole(bytes32,address)":"d547741f","safeBatchTransferFrom(address,address,uint256[],uint256[],bytes)":"2eb2c2d6","safeTransferFrom(address,address,uint256,uint256,bytes)":"f242432a","setApprovalForAll(address,bool)":"a22cb465","singerIdCounter()":"846a9898","singers(uint256)":"50a8ae61","supportsInterface(bytes4)":"01ffc9a7","totalSupply(uint256)":"bd85b039","treasury()":"61d027b3","updateRecordCompanyFee(uint256)":"535ca46c","updateRecordTreasury(address)":"0d1e691a","uri(uint256)":"0e89341c"},"id":41}