{"abi":[{"type":"constructor","inputs":[{"name":"_name","type":"string","internalType":"string"},{"name":"_recordCompanyAdmin","type":"address","internalType":"address"},{"name":"_treasury","type":"address","internalType":"address"},{"name":"_initialFee","type":"uint256","internalType":"uint256"}],"stateMutability":"nonpayable"},{"type":"function","name":"DEFAULT_ADMIN_ROLE","inputs":[],"outputs":[{"name":"","type":"bytes32","internalType":"bytes32"}],"stateMutability":"view"},{"type":"function","name":"RECORD_COMPANY_ROLE","inputs":[],"outputs":[{"name":"","type":"bytes32","internalType":"bytes32"}],"stateMutability":"view"},{"type":"function","name":"albumIdCounter","inputs":[],"outputs":[{"name":"","type":"uint256","internalType":"uint256"}],"stateMutability":"view"},{"type":"function","name":"albums","inputs":[{"name":"","type":"uint256","internalType":"uint256"}],"outputs":[{"name":"shareCount","type":"uint256","internalType":"uint256"},{"name":"singerId","type":"uint256","internalType":"uint256"},{"name":"metadataUrl","type":"string","internalType":"string"}],"stateMutability":"view"},{"type":"function","name":"balanceOf","inputs":[{"name":"account","type":"address","internalType":"address"},{"name":"id","type":"uint256","internalType":"uint256"}],"outputs":[{"name":"","type":"uint256","internalType":"uint256"}],"stateMutability":"view"},{"type":"function","name":"balanceOfBatch","inputs":[{"name":"accounts","type":"address[]","internalType":"address[]"},{"name":"ids","type":"uint256[]","internalType":"uint256[]"}],"outputs":[{"name":"","type":"uint256[]","internalType":"uint256[]"}],"stateMutability":"view"},{"type":"function","name":"createAlbum","inputs":[{"name":"_shareCount","type":"uint256","internalType":"uint256"},{"name":"_singerId","type":"uint256","internalType":"uint256"},{"name":"_metadataUrl","type":"string","internalType":"string"}],"outputs":[],"stateMutability":"nonpayable"},{"type":"function","name":"createSinger","inputs":[{"name":"_stageName","type":"string","internalType":"string"},{"name":"_description","type":"string","internalType":"string"},{"name":"_genre","type":"string","internalType":"string"},{"name":"_imageUrl","type":"string","internalType":"string"}],"outputs":[],"stateMutability":"nonpayable"},{"type":"function","name":"exists","inputs":[{"name":"id","type":"uint256","internalType":"uint256"}],"outputs":[{"name":"","type":"bool","internalType":"bool"}],"stateMutability":"view"},{"type":"function","name":"factory","inputs":[],"outputs":[{"name":"","type":"address","internalType":"contract INFTFactory"}],"stateMutability":"view"},{"type":"function","name":"getRoleAdmin","inputs":[{"name":"role","type":"bytes32","internalType":"bytes32"}],"outputs":[{"name":"","type":"bytes32","internalType":"bytes32"}],"stateMutability":"view"},{"type":"function","name":"getSingers","inputs":[{"name":"_start","type":"uint256","internalType":"uint256"},{"name":"_end","type":"uint256","internalType":"uint256"}],"outputs":[{"name":"","type":"tuple[]","internalType":"struct NFT.Singer[]","components":[{"name":"stageName","type":"string","internalType":"string"},{"name":"description","type":"string","internalType":"string"},{"name":"genre","type":"string","internalType":"string"},{"name":"imageUrl","type":"string","internalType":"string"},{"name":"exists","type":"bool","internalType":"bool"}]}],"stateMutability":"view"},{"type":"function","name":"grantRole","inputs":[{"name":"_role","type":"bytes32","internalType":"bytes32"},{"name":"_account","type":"address","internalType":"address"}],"outputs":[],"stateMutability":"nonpayable"},{"type":"function","name":"hasRole","inputs":[{"name":"role","type":"bytes32","internalType":"bytes32"},{"name":"account","type":"address","internalType":"address"}],"outputs":[{"name":"","type":"bool","internalType":"bool"}],"stateMutability":"view"},{"type":"function","name":"isApprovedForAll","inputs":[{"name":"account","type":"address","internalType":"address"},{"name":"operator","type":"address","internalType":"address"}],"outputs":[{"name":"","type":"bool","internalType":"bool"}],"stateMutability":"view"},{"type":"function","name":"name","inputs":[],"outputs":[{"name":"","type":"string","internalType":"string"}],"stateMutability":"view"},{"type":"function","name":"recordCompanyFee","inputs":[],"outputs":[{"name":"","type":"uint256","internalType":"uint256"}],"stateMutability":"view"},{"type":"function","name":"renounceRole","inputs":[{"name":"role","type":"bytes32","internalType":"bytes32"},{"name":"callerConfirmation","type":"address","internalType":"address"}],"outputs":[],"stateMutability":"nonpayable"},{"type":"function","name":"revokeRole","inputs":[{"name":"_role","type":"bytes32","internalType":"bytes32"},{"name":"_account","type":"address","internalType":"address"}],"outputs":[],"stateMutability":"nonpayable"},{"type":"function","name":"safeBatchTransferFrom","inputs":[{"name":"from","type":"address","internalType":"address"},{"name":"to","type":"address","internalType":"address"},{"name":"ids","type":"uint256[]","internalType":"uint256[]"},{"name":"values","type":"uint256[]","internalType":"uint256[]"},{"name":"data","type":"bytes","internalType":"bytes"}],"outputs":[],"stateMutability":"nonpayable"},{"type":"function","name":"safeTransferFrom","inputs":[{"name":"from","type":"address","internalType":"address"},{"name":"to","type":"address","internalType":"address"},{"name":"id","type":"uint256","internalType":"uint256"},{"name":"value","type":"uint256","internalType":"uint256"},{"name":"data","type":"bytes","internalType":"bytes"}],"outputs":[],"stateMutability":"nonpayable"},{"type":"function","name":"setApprovalForAll","inputs":[{"name":"operator","type":"address","internalType":"address"},{"name":"approved","type":"bool","internalType":"bool"}],"outputs":[],"stateMutability":"nonpayable"},{"type":"function","name":"singerIdCounter","inputs":[],"outputs":[{"name":"","type":"uint256","internalType":"uint256"}],"stateMutability":"view"},{"type":"function","name":"singers","inputs":[{"name":"","type":"uint256","internalType":"uint256"}],"outputs":[{"name":"stageName","type":"string","internalType":"string"},{"name":"description","type":"string","internalType":"string"},{"name":"genre","type":"string","internalType":"string"},{"name":"imageUrl","type":"string","internalType":"string"},{"name":"exists","type":"bool","internalType":"bool"}],"stateMutability":"view"},{"type":"function","name":"supportsInterface","inputs":[{"name":"_interfaceId","type":"bytes4","internalType":"bytes4"}],"outputs":[{"name":"","type":"bool","internalType":"bool"}],"stateMutability":"view"},{"type":"function","name":"totalSupply","inputs":[],"outputs":[{"name":"","type":"uint256","internalType":"uint256"}],"stateMutability":"view"},{"type":"function","name":"totalSupply","inputs":[{"name":"id","type":"uint256","internalType":"uint256"}],"outputs":[{"name":"","type":"uint256","internalType":"uint256"}],"stateMutability":"view"},{"type":"function","name":"treasury","inputs":[],"outputs":[{"name":"","type":"address","internalType":"address"}],"stateMutability":"view"},{"type":"function","name":"updateRecordCompanyFee","inputs":[{"name":"_newFee","type":"uint256","internalType":"uint256"}],"outputs":[],"stateMutability":"nonpayable"},{"type":"function","name":"updateRecordTreasury","inputs":[{"name":"_treasury","type":"address","internalType":"address"}],"outputs":[],"stateMutability":"nonpayable"},{"type":"function","name":"uri","inputs":[{"name":"_id","type":"uint256","internalType":"uint256"}],"outputs":[{"name":"","type":"string","internalType":"string"}],"stateMutability":"view"},{"type":"event","name":"ApprovalForAll","inputs":[{"name":"account","type":"address","indexed":true,"internalType":"address"},{"name":"operator","type":"address","indexed":true,"internalType":"address"},{"name":"approved","type":"bool","indexed":false,"internalType":"bool"}],"anonymous":false},{"type":"event","name":"RoleAdminChanged","inputs":[{"name":"role","type":"bytes32","indexed":true,"internalType":"bytes32"},{"name":"previousAdminRole","type":"bytes32","indexed":true,"internalType":"bytes32"},{"name":"newAdminRole","type":"bytes32","indexed":true,"internalType":"bytes32"}],"anonymous":false},{"type":"event","name":"RoleGranted","inputs":[{"name":"role","type":"bytes32","indexed":true,"internalType":"bytes32"},{"name":"account","type":"address","indexed":true,"internalType":"address"},{"name":"sender","type":"address","indexed":true,"internalType":"address"}],"anonymous":false},{"type":"event","name":"RoleRevoked","inputs":[{"name":"role","type":"bytes32","indexed":true,"internalType":"bytes32"},{"name":"account","type":"address","indexed":true,"internalType":"address"},{"name":"sender","type":"address","indexed":true,"internalType":"address"}],"anonymous":false},{"type":"event","name":"TransferBatch","inputs":[{"name":"operator","type":"address","indexed":true,"internalType":"address"},{"name":"from","type":"address","indexed":true,"internalType":"address"},{"name":"to","type":"address","indexed":true,"internalType":"address"},{"name":"ids","type":"uint256[]","indexed":false,"internalType":"uint256[]"},{"name":"values","type":"uint256[]","indexed":false,"internalType":"uint256[]"}],"anonymous":false},{"type":"event","name":"TransferSingle","inputs":[{"name":"operator","type":"address","indexed":true,"internalType":"address"},{"name":"from","type":"address","indexed":true,"internalType":"address"},{"name":"to","type":"address","indexed":true,"internalType":"address"},{"name":"id","type":"uint256","indexed":false,"internalType":"uint256"},{"name":"value","type":"uint256","indexed":false,"internalType":"uint256"}],"anonymous":false},{"type":"event","name":"URI","inputs":[{"name":"value","type":"string","indexed":false,"internalType":"string"},{"name":"id","type":"uint256","indexed":true,"internalType":"uint256"}],"anonymous":false},{"type":"error","name":"AccessControlBadConfirmation","inputs":[]},{"type":"error","name":"AccessControlUnauthorizedAccount","inputs":[{"name":"account","type":"address","internalType":"address"},{"name":"neededRole","type":"bytes32","internalType":"bytes32"}]},{"type":"error","name":"ERC1155InsufficientBalance","inputs":[{"name":"sender","type":"address","internalType":"address"},{"name":"balance","type":"uint256","internalType":"uint256"},{"name":"needed","type":"uint256","internalType":"uint256"},{"name":"tokenId","type":"uint256","internalType":"uint256"}]},{"type":"error","name":"ERC1155InvalidApprover","inputs":[{"name":"approver","type":"address","internalType":"address"}]},{"type":"error","name":"ERC1155InvalidArrayLength","inputs":[{"name":"idsLength","type":"uint256","internalType":"uint256"},{"name":"valuesLength","type":"uint256","internalType":"uint256"}]},{"type":"error","name":"ERC1155InvalidOperator","inputs":[{"name":"operator","type":"address","internalType":"address"}]},{"type":"error","name":"ERC1155InvalidReceiver","inputs":[{"name":"receiver","type":"address","internalType":"address"}]},{"type":"error","name":"ERC1155InvalidSender","inputs":[{"name":"sender","type":"address","internalType":"address"}]},{"type":"error","name":"ERC1155MissingApprovalForAll","inputs":[{"name":"operator","type":"address","internalType":"address"},{"name":"owner","type":"address","internalType":"address"}]}],"bytecode":{"object":"0x60806040523461030c5761246c8038038061001981610310565b92833981019060808183031261030c5780516001600160401b03811161030c57810182601f8201121561030c578051906001600160401b0382116102c45761006a601f8301601f1916602001610310565b938285526020838301011161030c57815f9260208093018387015e8401015261009560208201610335565b60606100a360408401610335565b920151916020915f6100b484610310565b52600254600181811c91168015610302575b848210146102a657601f81116102d8575b506100ef905f6002556100e932610349565b506103bf565b505f8051602061242c8339815191525f52600582525f8051602061242c833981519152600160405f200154815f526005845281600160405f200155817fbd79b86ffe0ab8e8776151514217cd7cacd52c909f66475c3af44e129f0b00ff5f80a4600d80546001600160a01b0319166001600160a01b03929092169190911790558251906001600160401b0382116102c457600c54600181811c911680156102ba575b828210146102a657601f8111610262575b5080601f83116001146101fe57508192935f926101f3575b50508160011b915f199060031b1c191617600c555b600b55600e80546001600160a01b03191633179055604051611fa690816104668239f35b015190505f806101ba565b90601f19831694600c5f52825f20925f905b87821061024a575050836001959610610232575b505050811b01600c556101cf565b01515f1960f88460031b161c191690555f8080610224565b80600185968294968601518155019501930190610210565b600c5f52815f20601f840160051c81019183851061029c575b601f0160051c01905b81811061029157506101a2565b5f8155600101610284565b909150819061027b565b634e487b7160e01b5f52602260045260245ffd5b90607f1690610191565b634e487b7160e01b5f52604160045260245ffd5b60025f52601f845f20910160051c8101905b8181106102f757506100d7565b5f81556001016102ea565b90607f16906100c6565b5f80fd5b6040519190601f01601f191682016001600160401b038111838210176102c457604052565b51906001600160a01b038216820361030c57565b6001600160a01b0381165f9081525f8051602061244c833981519152602052604090205460ff166103ba576001600160a01b03165f8181525f8051602061244c83398151915260205260408120805460ff191660011790553391905f8051602061240c8339815191528180a4600190565b505f90565b6001600160a01b0381165f9081527f79ed740027bf2a2d788cad2f071271c4cc92108c1a879ef33ec044da1905c17f602052604090205460ff166103ba576001600160a01b03165f8181527f79ed740027bf2a2d788cad2f071271c4cc92108c1a879ef33ec044da1905c17f60205260408120805460ff191660011790553391905f8051602061242c833981519152905f8051602061240c8339815191529080a460019056fe60806040526004361015610011575f80fd5b5f3560e01c8062fdd58e1461020357806301ffc9a7146101fe578063047a35a4146101f9578063061f8aa6146101f457806306fdde03146101ef5780630d1e691a146101ea5780630e89341c146101e55780630fe18841146101e057806318160ddd146101db578063248a9ca3146101d65780632d6c8ed5146101d15780632eb2c2d6146101cc5780632f2ff15d146101c757806336568abe146101c257806344663cc2146101bd5780634e1273f4146101b85780634f558e79146101b357806350a8ae61146101ae578063535ca46c146101a957806361d027b3146101a45780636d7d4cb21461019f578063846a98981461019a57806391d1485414610195578063a217fddf14610190578063a22cb4651461018b578063bd85b03914610186578063c45a015514610181578063d547741f1461017c578063e985e9c514610177578063ea5df059146101725763f242432a1461016d575f80fd5b611190565b61113d565b6110ed565b611050565b611028565b610ffe565b610f4c565b610f32565b610ee3565b610ec6565b610ea9565b610e81565b610e1a565b610d6d565b610d39565b610c7a565b610b6a565b610a73565b6109ad565b610923565b610888565b610855565b610838565b610751565b6106d1565b61068e565b6105b4565b61040a565b610339565b6102a6565b61024c565b600435906001600160a01b038216820361021e57565b5f80fd5b602435906001600160a01b038216820361021e57565b35906001600160a01b038216820361021e57565b3461021e57604036600319011261021e57602061028b61026a610208565b6024355f525f835260405f209060018060a01b03165f5260205260405f2090565b54604051908152f35b6001600160e01b031981160361021e57565b3461021e57602036600319011261021e576004356102c381610294565b63ffffffff60e01b16637965db0b60e01b81149081156102ec575b506040519015158152602090f35b636cdb3d1360e11b81149150811561031e575b811561030d575b505f6102de565b6301ffc9a760e01b1490505f610306565b6303a24d0760e21b811491506102ff565b5f91031261021e57565b3461021e575f36600319011261021e576020600b54604051908152f35b634e487b7160e01b5f52604160045260245ffd5b60a081019081106001600160401b0382111761038557604052565b610356565b90601f801991011681019081106001600160401b0382111761038557604052565b6001600160401b03811161038557601f01601f191660200190565b81601f8201121561021e576020813591016103e0826103ab565b926103ee604051948561038a565b8284528282011161021e57815f92602092838601378301015290565b3461021e57608036600319011261021e576004356001600160401b03811161021e5761043a9036906004016103c6565b6024356001600160401b03811161021e576104599036906004016103c6565b906044356001600160401b03811161021e576104799036906004016103c6565b606435926001600160401b03841161021e5761049c6104a29436906004016103c6565b92611296565b005b90600182811c921680156104d2575b60208310146104be57565b634e487b7160e01b5f52602260045260245ffd5b91607f16916104b3565b9060405191825f8254926104ef846104a4565b808452936001811690811561055a5750600114610516575b506105149250038361038a565b565b90505f9291925260205f20905f915b81831061053e575050906020610514928201015f610507565b6020919350806001915483858901015201910190918492610525565b90506020925061051494915060ff191682840152151560051b8201015f610507565b805180835260209291819084018484015e5f828201840152601f01601f1916010190565b9060206105b192818152019061057c565b90565b3461021e575f36600319011261021e576040515f600c546105d4816104a4565b808452906001811690811561066a575060011461060c575b610608836105fc8185038261038a565b604051918291826105a0565b0390f35b600c5f9081527fdf6966c971051c3d54ec59162606531493a51404a002842f56009d7e5cf4a8c7939250905b808210610650575090915081016020016105fc6105ec565b919260018160209254838588010152019101909291610638565b60ff191660208086019190915291151560051b840190910191506105fc90506105ec565b3461021e57602036600319011261021e576106a7610208565b6106af611744565b600d80546001600160a01b0319166001600160a01b0392909216919091179055005b3461021e57602036600319011261021e576004356106fa815f52600360205260405f2054151590565b15610718575f5260076020526106086105fc600260405f20016104dc565b60405162461bcd60e51b81526020600482015260116024820152702737b732bc34b9ba32b73a103a37b5b2b760791b6044820152606490fd5b3461021e57606036600319011261021e576024356004356044356001600160401b03811161021e576107879036906004016103c6565b91610790611744565b805f52600660205260ff600460405f20015416156107fb576107e89282916107cf6107c5600a545f52600760205260405f2090565b92600284016113e0565b600182015555600a54906107e16114d2565b91336117da565b6104a26107f6600a546114bf565b600a55565b60405162461bcd60e51b815260206004820152601560248201527414da5b99d95c88191bd95cc81b9bdd08195e1a5cdd605a1b6044820152606490fd5b3461021e575f36600319011261021e576020600454604051908152f35b3461021e57602036600319011261021e5760206108806004355f526005602052600160405f20015490565b604051908152f35b3461021e575f36600319011261021e5760206040515f80516020611f518339815191528152f35b6001600160401b0381116103855760051b60200190565b9080601f8301121561021e5781356108dd816108af565b926108eb604051948561038a565b81845260208085019260051b82010192831161021e57602001905b8282106109135750505090565b8135815260209182019101610906565b3461021e5760a036600319011261021e5761093c610208565b610944610222565b906044356001600160401b03811161021e576109649036906004016108c6565b6064356001600160401b03811161021e576109839036906004016108c6565b90608435936001600160401b03851161021e576109a76104a29536906004016103c6565b936114e6565b3461021e57604036600319011261021e576004355f80516020611f518339815191526109d7610222565b916109f66109f1825f526005602052600160405f20015490565b6117a0565b610a0083826118b9565b5014610a0857005b600e546001600160a01b0316803b1561021e5760405163be2d146f60e01b81526001600160a01b0390921660048301523060248301525f908290818381604481015b03925af18015610a6e57610a5a57005b80610a685f6104a29361038a565b8061032f565b611542565b3461021e57604036600319011261021e57600435610a8f610222565b336001600160a01b03821603610aa8576104a291611949565b63334bd91960e11b5f5260045ffd5b602081016020825282518091526040820191602060408360051b8301019401925f915b838310610ae957505050505090565b9091929394602080600192603f19858203018652885190608080610b53610b41610b2f610b1f875160a0885260a088019061057c565b888801518782038a89015261057c565b6040870151868203604088015261057c565b6060860151858203606087015261057c565b930151151591015297019301930191939290610ada565b3461021e57604036600319011261021e576004356024356009548111610c0357610b968282101561154d565b610ba8610ba3838361158e565b61159b565b91805b828110610bc057604051806106088682610ab7565b80610bfc610bd86001935f52600660205260405f2090565b610beb610be5868561158e565b91611633565b610bf5828961160b565b528661160b565b5001610bab565b60405162461bcd60e51b815260206004820152600b60248201526a125b9d985b1a5908195b9960aa1b6044820152606490fd5b90602080835192838152019201905f5b818110610c535750505090565b8251845260209384019390920191600101610c46565b9060206105b1928181520190610c36565b3461021e57604036600319011261021e576004356001600160401b03811161021e573660238201121561021e57806004013590610cb6826108af565b91610cc4604051938461038a565b8083526024602084019160051b8301019136831161021e57602401905b828210610d2157836024356001600160401b03811161021e5761060891610d0f610d159236906004016108c6565b90611690565b60405191829182610c69565b60208091610d2e84610238565b815201910190610ce1565b3461021e57602036600319011261021e576020610d636004355f52600360205260405f2054151590565b6040519015158152f35b3461021e57602036600319011261021e576004355f526006602052610de460405f20610d98816104dc565b90610e0e610da8600183016104dc565b91610e00610db8600283016104dc565b610df260ff6004610dcb600387016104dc565b950154169560405198899860a08a5260a08a019061057c565b9088820360208a015261057c565b90868203604088015261057c565b90848203606086015261057c565b90151560808301520390f35b3461021e57602036600319011261021e57335f9081527f05b8ccbb9d4d8fb16ea74ce3c29a41f1b461fbdaff4714a0d9a8eb05499746bc60205260409020546004359060ff1615610e6a57600b55005b63e2517d3f60e01b5f52336004525f60245260445ffd5b3461021e575f36600319011261021e57600d546040516001600160a01b039091168152602090f35b3461021e575f36600319011261021e576020600a54604051908152f35b3461021e575f36600319011261021e576020600954604051908152f35b3461021e57604036600319011261021e57602060ff610f26600435610f06610222565b905f526005845260405f209060018060a01b03165f5260205260405f2090565b54166040519015158152f35b3461021e575f36600319011261021e5760206040515f8152f35b3461021e57604036600319011261021e57610f65610208565b602435908115159081830361021e576001600160a01b038116928315610fec57610fad610fbe92335f52600160205260405f209060018060a01b03165f5260205260405f2090565b9060ff801983541691151516179055565b6040519081527f17307eab39ab6107e8899845ad3d59bd9653f200f220920489ca2b5937696c3160203392a3005b62ced3e160e81b5f525f60045260245ffd5b3461021e57602036600319011261021e576004355f526003602052602060405f2054604051908152f35b3461021e575f36600319011261021e57600e546040516001600160a01b039091168152602090f35b3461021e57604036600319011261021e576004355f80516020611f5183398151915261107a610222565b916110946109f1825f526005602052600160405f20015490565b61109e8382611949565b50146110a657005b600e546001600160a01b0316803b1561021e5760405163be2d146f60e01b81526001600160a01b0390921660048301525f6024830181905290829081838160448101610a4a565b3461021e57604036600319011261021e57602060ff610f2661110d610208565b611115610222565b6001600160a01b039182165f9081526001865260408082209290931681526020919091522090565b3461021e57602036600319011261021e576004355f52600760205260405f2080546106086111726002600185015494016104dc565b6040519384938452602084015260606040840152606083019061057c565b3461021e5760a036600319011261021e576111a9610208565b6111b1610222565b60443590606435926084356001600160401b03811161021e576111d89036906004016103c6565b926001600160a01b0382163381141580611273575b61125d576001600160a01b0384161561124a5715611238576104a29461123060405192600184526020840152604083019160018352606084015260808301604052565b9290916119d1565b626a0d4560e21b5f525f60045260245ffd5b632bfa23e760e11b5f525f60045260245ffd5b63711bec9160e11b5f523360045260245260445ffd5b505f81815260016020908152604080832033845290915290205460ff16156111ed565b90916112a0611744565b60ff6112ab83611372565b541661133557600461131593611302611322966112f9611310956112f06112dc6009545f52600660205260405f2090565b956112e78a886113e0565b600187016113e0565b600285016113e0565b600383016113e0565b01805460ff19166001179055565b611372565b805460ff19166001179055565b6105146113306009546114bf565b600955565b60405162461bcd60e51b815260206004820152601560248201527453696e67657220616c72656164792065786973747360581b6044820152606490fd5b60208091604051928184925191829101835e8101600881520301902090565b601f821161139e57505050565b5f5260205f20906020601f840160051c830193106113d6575b601f0160051c01905b8181106113cb575050565b5f81556001016113c0565b90915081906113b7565b91909182516001600160401b038111610385576114078161140184546104a4565b84611391565b6020601f82116001146114465781906114379394955f9261143b575b50508160011b915f199060031b1c19161790565b9055565b015190505f80611423565b601f19821690611459845f5260205f2090565b915f5b8181106114935750958360019596971061147b575b505050811b019055565b01515f1960f88460031b161c191690555f8080611471565b9192602060018192868b01518155019401920161145c565b634e487b7160e01b5f52601160045260245ffd5b5f1981146114cd5760010190565b6114ab565b604051906114e160208361038a565b5f8252565b939291906001600160a01b038516338114158061151f575b61125d576001600160a01b0382161561124a571561123857610514946119d1565b505f81815260016020908152604080832033845290915290205460ff16156114fe565b6040513d5f823e3d90fd5b1561155457565b60405162461bcd60e51b8152602060048201526012602482015271496e76616c696420706172616d657465727360701b6044820152606490fd5b919082039182116114cd57565b906115a5826108af565b6115b2604051918261038a565b82815280926115c3601f19916108af565b01905f5b8281106115d357505050565b6020906040516115e28161036a565b60608152606083820152606060408201526060808201525f6080820152828285010152016115c7565b805182101561161f5760209160051b010190565b634e487b7160e01b5f52603260045260245ffd5b906040516116408161036a565b608060ff60048395611651816104dc565b855261165f600182016104dc565b6020860152611670600282016104dc565b6040860152611681600382016104dc565b60608601520154161515910152565b9190918051835180820361172f5750508051906116ac826108af565b916116ba604051938461038a565b8083526116c9601f19916108af565b013660208401375f5b8151811015611728578061171760019260051b60208082870101519189010151905f918252602082815260408084206001600160a01b03909316845291905290205490565b611721828661160b565b52016116d2565b5090925050565b635b05999160e01b5f5260045260245260445ffd5b335f9081527f79ed740027bf2a2d788cad2f071271c4cc92108c1a879ef33ec044da1905c17f602052604090205460ff161561177c57565b63e2517d3f60e01b5f52336004525f80516020611f5183398151915260245260445ffd5b5f81815260056020908152604080832033845290915290205460ff16156117c45750565b63e2517d3f60e01b5f523360045260245260445ffd5b93916001600160a01b0385161561124a5761181260405192600184526020840152604083019160018352606084015260808301604052565b90916118208284875f611d81565b5f94855b84518710156118755761186d60019161183d898761160b565b519061185b61184c8b8a61160b565b515f52600360205260405f2090565b611866838254611aeb565b9055611aeb565b960195611824565b61188f91959492965061188a90600454611aeb565b600455565b80516001036118ae579060208061051495930151910151915f33611cbe565b610514935f33611b8f565b5f8181526005602090815260408083206001600160a01b038616845290915290205460ff16611943575f8181526005602090815260408083206001600160a01b03861684529091529020805460ff1916600117905533916001600160a01b0316907f2f8788117e7eff1d82e926ec794901d17c78024a50270940304540a733656f0d5f80a4600190565b50505f90565b5f8181526005602090815260408083206001600160a01b038616845290915290205460ff1615611943575f8181526005602090815260408083206001600160a01b03861684529091529020805460ff1916905533916001600160a01b0316907ff6391f5c32d9c69d2a47ea670b442974b53935d1edc7fd64eb21e047a839171b5f80a4600190565b919392906119e182868386611d81565b6001600160a01b03831615611a9a575b6001600160a01b0381161580611a46575b15611a0f575b5050505050565b8451600103611a3557602080611a2b9601519201519233611cbe565b5f80808080611a08565b611a4194919233611b8f565b611a2b565b94935f939091845b8651861015611a8257600190611a64878761160b565b5190611a7361184c898b61160b565b82815403905501950194611a4e565b611a959193969792955060045403600455565b611a02565b93925f92835b8551851015611ad057611ac8600191611ab9878761160b565b519061185b61184c898b61160b565b940193611aa0565b611ae691945061188a9096929596600454611aeb565b6119f1565b919082018092116114cd57565b9081602091031261021e57516105b181610294565b6001600160a01b0391821681529116602082015260a0604082018190526105b19491939192611b529291611b449190860190610c36565b908482036060860152610c36565b91608081840391015261057c565b3d15611b8a573d90611b71826103ab565b91611b7f604051938461038a565b82523d5f602084013e565b606090565b9091949293853b611ba3575b505050505050565b602093611bc591604051968795869563bc197c8160e01b875260048701611b0d565b03815f6001600160a01b0387165af15f9181611c54575b50611c165750611bea611b60565b8051919082611c0f57632bfa23e760e11b5f526001600160a01b03821660045260245ffd5b9050602001fd5b6001600160e01b0319166343e6837f60e01b01611c3957505f8080808080611b9b565b632bfa23e760e11b5f526001600160a01b031660045260245ffd5b611c7791925060203d602011611c7e575b611c6f818361038a565b810190611af8565b905f611bdc565b503d611c65565b6001600160a01b039182168152911660208201526040810191909152606081019190915260a0608082018190526105b19291019061057c565b9091949293853b611cd157505050505050565b602093611cf391604051968795869563f23a6e6160e01b875260048701611c85565b03815f6001600160a01b0387165af15f9181611d3b575b50611d185750611bea611b60565b6001600160e01b031916630dc5919f60e01b01611c3957505f8080808080611b9b565b611d5591925060203d602011611c7e57611c6f818361038a565b905f611d0a565b9091611d736105b193604084526040840190610c36565b916020818403910152610c36565b9392918051835190818103611f3b5750505f5b8151811015611e95578060051b90602080838501015192860101518460018060a01b038916611e18575b6001936001600160a01b038216611dd9575b50505001611d94565b611e0e91611df1611e06925f525f60205260405f2090565b9060018060a01b03165f5260205260405f2090565b918254611aeb565b90555f8481611dd0565b509091611e3088611df1835f525f60205260405f2090565b54828110611e5e57829160019493879203611e568b611df1845f525f60205260405f2090565b559350611dbe565b6040516303dee4c560e01b81526001600160a01b038a16600482015260248101919091526044810183905260648101829052608490fd5b508051939493919291600103611ef8576020908101519181015160408051938452918301526001600160a01b03928316939092169133917fc3d58168c5ae7397731d063d5bbf3d657854427343f4c083240f7aacaa2d0f6291819081015b0390a4565b6040516001600160a01b03938416949093169233927f4a39dc06d4c0dbc64b70af90fd698a233a518aa5d07e595d983b8c0526c8f7fb928291611ef39183611d5c565b635b05999160e01b5f5260045260245260445ffdfe768dd85fed03ac9c2c0f14fe090b045c29124f162b5fa7d6dd8ca0009807d4dba264697066735822122023ca39a5160713ccd935bc9754a6c884baa93f9cc32505daf1d0136c0e03efd764736f6c634300081a00332f8788117e7eff1d82e926ec794901d17c78024a50270940304540a733656f0d768dd85fed03ac9c2c0f14fe090b045c29124f162b5fa7d6dd8ca0009807d4db05b8ccbb9d4d8fb16ea74ce3c29a41f1b461fbdaff4714a0d9a8eb05499746bc","linkReferences":{}},"methodIdentifiers":{"DEFAULT_ADMIN_ROLE()":"a217fddf","RECORD_COMPANY_ROLE()":"2d6c8ed5","albumIdCounter()":"6d7d4cb2","albums(uint256)":"ea5df059","balanceOf(address,uint256)":"00fdd58e","balanceOfBatch(address[],uint256[])":"4e1273f4","createAlbum(uint256,uint256,string)":"0fe18841","createSinger(string,string,string,string)":"061f8aa6","exists(uint256)":"4f558e79","factory()":"c45a0155","getRoleAdmin(bytes32)":"248a9ca3","getSingers(uint256,uint256)":"44663cc2","grantRole(bytes32,address)":"2f2ff15d","hasRole(bytes32,address)":"91d14854","isApprovedForAll(address,address)":"e985e9c5","name()":"06fdde03","recordCompanyFee()":"047a35a4","renounceRole(bytes32,address)":"36568abe","revokeRole(bytes32,address)":"d547741f","safeBatchTransferFrom(address,address,uint256[],uint256[],bytes)":"2eb2c2d6","safeTransferFrom(address,address,uint256,uint256,bytes)":"f242432a","setApprovalForAll(address,bool)":"a22cb465","singerIdCounter()":"846a9898","singers(uint256)":"50a8ae61","supportsInterface(bytes4)":"01ffc9a7","totalSupply()":"18160ddd","totalSupply(uint256)":"bd85b039","treasury()":"61d027b3","updateRecordCompanyFee(uint256)":"535ca46c","updateRecordTreasury(address)":"0d1e691a","uri(uint256)":"0e89341c"},"id":49}