{"abi":[{"type":"constructor","inputs":[{"name":"_name","type":"string","internalType":"string"},{"name":"_recordCompanyAdmin","type":"address","internalType":"address"},{"name":"_treasury","type":"address","internalType":"address"},{"name":"_initialFee","type":"uint256","internalType":"uint256"}],"stateMutability":"nonpayable"},{"type":"function","name":"DEFAULT_ADMIN_ROLE","inputs":[],"outputs":[{"name":"","type":"bytes32","internalType":"bytes32"}],"stateMutability":"view"},{"type":"function","name":"RECORD_COMPANY_ROLE","inputs":[],"outputs":[{"name":"","type":"bytes32","internalType":"bytes32"}],"stateMutability":"view"},{"type":"function","name":"albumIdCounter","inputs":[],"outputs":[{"name":"","type":"uint256","internalType":"uint256"}],"stateMutability":"view"},{"type":"function","name":"albums","inputs":[{"name":"","type":"uint256","internalType":"uint256"}],"outputs":[{"name":"shareCount","type":"uint256","internalType":"uint256"},{"name":"singerId","type":"uint256","internalType":"uint256"},{"name":"metadataUrl","type":"string","internalType":"string"}],"stateMutability":"view"},{"type":"function","name":"balanceOf","inputs":[{"name":"account","type":"address","internalType":"address"},{"name":"id","type":"uint256","internalType":"uint256"}],"outputs":[{"name":"","type":"uint256","internalType":"uint256"}],"stateMutability":"view"},{"type":"function","name":"balanceOfBatch","inputs":[{"name":"accounts","type":"address[]","internalType":"address[]"},{"name":"ids","type":"uint256[]","internalType":"uint256[]"}],"outputs":[{"name":"","type":"uint256[]","internalType":"uint256[]"}],"stateMutability":"view"},{"type":"function","name":"createAlbum","inputs":[{"name":"_shareCount","type":"uint256","internalType":"uint256"},{"name":"_singerId","type":"uint256","internalType":"uint256"},{"name":"_metadataUrl","type":"string","internalType":"string"}],"outputs":[],"stateMutability":"nonpayable"},{"type":"function","name":"createSinger","inputs":[{"name":"_stageName","type":"string","internalType":"string"},{"name":"_description","type":"string","internalType":"string"},{"name":"_genre","type":"string","internalType":"string"},{"name":"_imageUrl","type":"string","internalType":"string"}],"outputs":[],"stateMutability":"nonpayable"},{"type":"function","name":"exists","inputs":[{"name":"id","type":"uint256","internalType":"uint256"}],"outputs":[{"name":"","type":"bool","internalType":"bool"}],"stateMutability":"view"},{"type":"function","name":"factory","inputs":[],"outputs":[{"name":"","type":"address","internalType":"contract INFTFactory"}],"stateMutability":"view"},{"type":"function","name":"getRoleAdmin","inputs":[{"name":"role","type":"bytes32","internalType":"bytes32"}],"outputs":[{"name":"","type":"bytes32","internalType":"bytes32"}],"stateMutability":"view"},{"type":"function","name":"getSingers","inputs":[{"name":"_start","type":"uint256","internalType":"uint256"},{"name":"_end","type":"uint256","internalType":"uint256"}],"outputs":[{"name":"","type":"tuple[]","internalType":"struct NFT.Singer[]","components":[{"name":"stageName","type":"string","internalType":"string"},{"name":"description","type":"string","internalType":"string"},{"name":"genre","type":"string","internalType":"string"},{"name":"imageUrl","type":"string","internalType":"string"},{"name":"exists","type":"bool","internalType":"bool"}]}],"stateMutability":"view"},{"type":"function","name":"grantRole","inputs":[{"name":"_role","type":"bytes32","internalType":"bytes32"},{"name":"_account","type":"address","internalType":"address"}],"outputs":[],"stateMutability":"nonpayable"},{"type":"function","name":"hasRole","inputs":[{"name":"role","type":"bytes32","internalType":"bytes32"},{"name":"account","type":"address","internalType":"address"}],"outputs":[{"name":"","type":"bool","internalType":"bool"}],"stateMutability":"view"},{"type":"function","name":"isApprovedForAll","inputs":[{"name":"account","type":"address","internalType":"address"},{"name":"operator","type":"address","internalType":"address"}],"outputs":[{"name":"","type":"bool","internalType":"bool"}],"stateMutability":"view"},{"type":"function","name":"name","inputs":[],"outputs":[{"name":"","type":"string","internalType":"string"}],"stateMutability":"view"},{"type":"function","name":"recordCompanyFee","inputs":[],"outputs":[{"name":"","type":"uint256","internalType":"uint256"}],"stateMutability":"view"},{"type":"function","name":"renounceRole","inputs":[{"name":"role","type":"bytes32","internalType":"bytes32"},{"name":"callerConfirmation","type":"address","internalType":"address"}],"outputs":[],"stateMutability":"nonpayable"},{"type":"function","name":"revokeRole","inputs":[{"name":"_role","type":"bytes32","internalType":"bytes32"},{"name":"_account","type":"address","internalType":"address"}],"outputs":[],"stateMutability":"nonpayable"},{"type":"function","name":"safeBatchTransferFrom","inputs":[{"name":"from","type":"address","internalType":"address"},{"name":"to","type":"address","internalType":"address"},{"name":"ids","type":"uint256[]","internalType":"uint256[]"},{"name":"values","type":"uint256[]","internalType":"uint256[]"},{"name":"data","type":"bytes","internalType":"bytes"}],"outputs":[],"stateMutability":"nonpayable"},{"type":"function","name":"safeTransferFrom","inputs":[{"name":"from","type":"address","internalType":"address"},{"name":"to","type":"address","internalType":"address"},{"name":"id","type":"uint256","internalType":"uint256"},{"name":"value","type":"uint256","internalType":"uint256"},{"name":"data","type":"bytes","internalType":"bytes"}],"outputs":[],"stateMutability":"nonpayable"},{"type":"function","name":"setApprovalForAll","inputs":[{"name":"operator","type":"address","internalType":"address"},{"name":"approved","type":"bool","internalType":"bool"}],"outputs":[],"stateMutability":"nonpayable"},{"type":"function","name":"singerIdCounter","inputs":[],"outputs":[{"name":"","type":"uint256","internalType":"uint256"}],"stateMutability":"view"},{"type":"function","name":"singers","inputs":[{"name":"","type":"uint256","internalType":"uint256"}],"outputs":[{"name":"stageName","type":"string","internalType":"string"},{"name":"description","type":"string","internalType":"string"},{"name":"genre","type":"string","internalType":"string"},{"name":"imageUrl","type":"string","internalType":"string"},{"name":"exists","type":"bool","internalType":"bool"}],"stateMutability":"view"},{"type":"function","name":"supportsInterface","inputs":[{"name":"_interfaceId","type":"bytes4","internalType":"bytes4"}],"outputs":[{"name":"","type":"bool","internalType":"bool"}],"stateMutability":"view"},{"type":"function","name":"totalSupply","inputs":[],"outputs":[{"name":"","type":"uint256","internalType":"uint256"}],"stateMutability":"view"},{"type":"function","name":"totalSupply","inputs":[{"name":"id","type":"uint256","internalType":"uint256"}],"outputs":[{"name":"","type":"uint256","internalType":"uint256"}],"stateMutability":"view"},{"type":"function","name":"treasury","inputs":[],"outputs":[{"name":"","type":"address","internalType":"address"}],"stateMutability":"view"},{"type":"function","name":"updateRecordCompanyFee","inputs":[{"name":"_newFee","type":"uint256","internalType":"uint256"}],"outputs":[],"stateMutability":"nonpayable"},{"type":"function","name":"updateRecordTreasury","inputs":[{"name":"_treasury","type":"address","internalType":"address"}],"outputs":[],"stateMutability":"nonpayable"},{"type":"function","name":"uri","inputs":[{"name":"_id","type":"uint256","internalType":"uint256"}],"outputs":[{"name":"","type":"string","internalType":"string"}],"stateMutability":"view"},{"type":"event","name":"ApprovalForAll","inputs":[{"name":"account","type":"address","indexed":true,"internalType":"address"},{"name":"operator","type":"address","indexed":true,"internalType":"address"},{"name":"approved","type":"bool","indexed":false,"internalType":"bool"}],"anonymous":false},{"type":"event","name":"RoleAdminChanged","inputs":[{"name":"role","type":"bytes32","indexed":true,"internalType":"bytes32"},{"name":"previousAdminRole","type":"bytes32","indexed":true,"internalType":"bytes32"},{"name":"newAdminRole","type":"bytes32","indexed":true,"internalType":"bytes32"}],"anonymous":false},{"type":"event","name":"RoleGranted","inputs":[{"name":"role","type":"bytes32","indexed":true,"internalType":"bytes32"},{"name":"account","type":"address","indexed":true,"internalType":"address"},{"name":"sender","type":"address","indexed":true,"internalType":"address"}],"anonymous":false},{"type":"event","name":"RoleRevoked","inputs":[{"name":"role","type":"bytes32","indexed":true,"internalType":"bytes32"},{"name":"account","type":"address","indexed":true,"internalType":"address"},{"name":"sender","type":"address","indexed":true,"internalType":"address"}],"anonymous":false},{"type":"event","name":"TransferBatch","inputs":[{"name":"operator","type":"address","indexed":true,"internalType":"address"},{"name":"from","type":"address","indexed":true,"internalType":"address"},{"name":"to","type":"address","indexed":true,"internalType":"address"},{"name":"ids","type":"uint256[]","indexed":false,"internalType":"uint256[]"},{"name":"values","type":"uint256[]","indexed":false,"internalType":"uint256[]"}],"anonymous":false},{"type":"event","name":"TransferSingle","inputs":[{"name":"operator","type":"address","indexed":true,"internalType":"address"},{"name":"from","type":"address","indexed":true,"internalType":"address"},{"name":"to","type":"address","indexed":true,"internalType":"address"},{"name":"id","type":"uint256","indexed":false,"internalType":"uint256"},{"name":"value","type":"uint256","indexed":false,"internalType":"uint256"}],"anonymous":false},{"type":"event","name":"URI","inputs":[{"name":"value","type":"string","indexed":false,"internalType":"string"},{"name":"id","type":"uint256","indexed":true,"internalType":"uint256"}],"anonymous":false},{"type":"error","name":"AccessControlBadConfirmation","inputs":[]},{"type":"error","name":"AccessControlUnauthorizedAccount","inputs":[{"name":"account","type":"address","internalType":"address"},{"name":"neededRole","type":"bytes32","internalType":"bytes32"}]},{"type":"error","name":"ERC1155InsufficientBalance","inputs":[{"name":"sender","type":"address","internalType":"address"},{"name":"balance","type":"uint256","internalType":"uint256"},{"name":"needed","type":"uint256","internalType":"uint256"},{"name":"tokenId","type":"uint256","internalType":"uint256"}]},{"type":"error","name":"ERC1155InvalidApprover","inputs":[{"name":"approver","type":"address","internalType":"address"}]},{"type":"error","name":"ERC1155InvalidArrayLength","inputs":[{"name":"idsLength","type":"uint256","internalType":"uint256"},{"name":"valuesLength","type":"uint256","internalType":"uint256"}]},{"type":"error","name":"ERC1155InvalidOperator","inputs":[{"name":"operator","type":"address","internalType":"address"}]},{"type":"error","name":"ERC1155InvalidReceiver","inputs":[{"name":"receiver","type":"address","internalType":"address"}]},{"type":"error","name":"ERC1155InvalidSender","inputs":[{"name":"sender","type":"address","internalType":"address"}]},{"type":"error","name":"ERC1155MissingApprovalForAll","inputs":[{"name":"operator","type":"address","internalType":"address"},{"name":"owner","type":"address","internalType":"address"}]}],"bytecode":{"object":"0x6080604052346103635760006125998038038061001b81610368565b9283398101916080828403126103605781516001600160401b03811161035c57820183601f8201121561035c578051906001600160401b0382116103485761006c601f8301601f1916602001610368565b948286526020838301011161034457908291825b82811061032d5750506020908501015261009c6020830161038d565b9160606100ab6040830161038d565b91015192602092806100bc85610368565b5250600254600181811c91168015610323575b848210146102c057601f81116102f6575b506100f99060006002556100f3326103a1565b5061041d565b5060008051602061255983398151915260005260058252600080516020612559833981519152600160406000200154816000526005845281600160406000200155817fbd79b86ffe0ab8e8776151514217cd7cacd52c909f66475c3af44e129f0b00ff600080a4600d80546001600160a01b0319166001600160a01b03929092169190911790558251906001600160401b0382116102e057600c54600181811c911680156102d6575b828210146102c057601f8111610279575b5080601f83116001146102115750819293600092610206575b50508160011b916000199060031b1c191617600c555b600b55600e80546001600160a01b0319163317905560405161207190816104c88239f35b0151905038806101cc565b90601f19831694600c60005282600020926000905b878210610261575050836001959610610248575b505050811b01600c556101e2565b015160001960f88460031b161c1916905538808061023a565b80600185968294968601518155019501930190610226565b600c60005281600020601f840160051c8101918385106102b6575b601f0160051c01905b8181106102aa57506101b3565b6000815560010161029d565b9091508190610294565b634e487b7160e01b600052602260045260246000fd5b90607f16906101a2565b634e487b7160e01b600052604160045260246000fd5b6002600052601f84600020910160051c8101905b81811061031757506100e0565b6000815560010161030a565b90607f16906100cf565b602082820181015188830182015285945001610080565b8280fd5b634e487b7160e01b83526041600452602483fd5b5080fd5b80fd5b600080fd5b6040519190601f01601f191682016001600160401b038111838210176102e057604052565b51906001600160a01b038216820361036357565b6001600160a01b0381166000908152600080516020612579833981519152602052604090205460ff16610417576001600160a01b0316600081815260008051602061257983398151915260205260408120805460ff191660011790553391906000805160206125398339815191528180a4600190565b50600090565b6001600160a01b03811660009081527f79ed740027bf2a2d788cad2f071271c4cc92108c1a879ef33ec044da1905c17f602052604090205460ff16610417576001600160a01b031660008181527f79ed740027bf2a2d788cad2f071271c4cc92108c1a879ef33ec044da1905c17f60205260408120805460ff19166001179055339190600080516020612559833981519152906000805160206125398339815191529080a460019056fe6080604052600436101561001257600080fd5b60003560e01c8062fdd58e1461020657806301ffc9a714610201578063047a35a4146101fc578063061f8aa6146101f757806306fdde03146101f25780630d1e691a146101ed5780630e89341c146101e85780630fe18841146101e357806318160ddd146101de578063248a9ca3146101d95780632d6c8ed5146101d45780632eb2c2d6146101cf5780632f2ff15d146101ca57806336568abe146101c557806344663cc2146101c05780634e1273f4146101bb5780634f558e79146101b657806350a8ae61146101b1578063535ca46c146101ac57806361d027b3146101a75780636d7d4cb2146101a2578063846a98981461019d57806391d1485414610198578063a217fddf14610193578063a22cb4651461018e578063bd85b03914610189578063c45a015514610184578063d547741f1461017f578063e985e9c51461017a578063ea5df059146101755763f242432a1461017057600080fd5b611205565b6111b0565b61115f565b6110be565b611095565b611069565b610fb0565b610f94565b610f41565b610f23565b610f05565b610edc565b610e71565b610dc2565b610d8c565b610ccd565b610bba565b610ac0565b6109f5565b61096b565b6108ce565b610899565b61087b565b610790565b61070c565b6106c9565b6105ec565b610418565b610343565b6102af565b610250565b600435906001600160a01b038216820361022157565b600080fd5b602435906001600160a01b038216820361022157565b35906001600160a01b038216820361022157565b3461022157604036600319011261022157602061029461026e61020b565b6024356000526000835260406000209060018060a01b0316600052602052604060002090565b54604051908152f35b6001600160e01b031981160361022157565b34610221576020366003190112610221576004356102cc8161029d565b63ffffffff60e01b16637965db0b60e01b81149081156102f5575b506040519015158152602090f35b636cdb3d1360e11b811491508115610327575b8115610316575b50386102e7565b6301ffc9a760e01b1490503861030f565b6303a24d0760e21b81149150610308565b600091031261022157565b34610221576000366003190112610221576020600b54604051908152f35b634e487b7160e01b600052604160045260246000fd5b60a081019081106001600160401b0382111761039257604052565b610361565b90601f801991011681019081106001600160401b0382111761039257604052565b6001600160401b03811161039257601f01601f191660200190565b81601f82011215610221576020813591016103ed826103b8565b926103fb6040519485610397565b828452828201116102215781600092602092838601378301015290565b34610221576080366003190112610221576004356001600160401b038111610221576104489036906004016103d3565b6024356001600160401b038111610221576104679036906004016103d3565b906044356001600160401b038111610221576104879036906004016103d3565b606435926001600160401b038411610221576104aa6104b09436906004016103d3565b92611314565b005b90600182811c921680156104e2575b60208310146104cc57565b634e487b7160e01b600052602260045260246000fd5b91607f16916104c1565b9060405191826000825492610500846104b2565b808452936001811690811561056e5750600114610527575b5061052592500383610397565b565b90506000929192526020600020906000915b8183106105525750509060206105259282010138610518565b6020919350806001915483858901015201910190918492610539565b90506020925061052594915060ff191682840152151560051b82010138610518565b60005b8381106105a35750506000910152565b8181015183820152602001610593565b906020916105cc81518092818552858086019101610590565b601f01601f1916010190565b9060206105e99281815201906105b3565b90565b34610221576000366003190112610221576040516000600c5461060e816104b2565b80845290600181169081156106a55750600114610646575b6106428361063681850382610397565b604051918291826105d8565b0390f35b600c60009081527fdf6966c971051c3d54ec59162606531493a51404a002842f56009d7e5cf4a8c7939250905b80821061068b57509091508101602001610636610626565b919260018160209254838588010152019101909291610673565b60ff191660208086019190915291151560051b840190910191506106369050610626565b34610221576020366003190112610221576106e261020b565b6106ea6117e2565b600d80546001600160a01b0319166001600160a01b0392909216919091179055005b3461022157602036600319011261022157600435610737816000526003602052604060002054151590565b1561075757600052600760205261064261063660026040600020016104ec565b60405162461bcd60e51b81526020600482015260116024820152702737b732bc34b9ba32b73a103a37b5b2b760791b6044820152606490fd5b34610221576060366003190112610221576024356004356044356001600160401b038111610221576107c69036906004016103d3565b916107cf6117e2565b80600052600660205260ff600460406000200154161561083e5761082b928291610812610808600a546000526007602052604060002090565b926002840161146a565b600182015555600a5490610824611565565b913361187f565b6104b0610839600a54611551565b600a55565b60405162461bcd60e51b815260206004820152601560248201527414da5b99d95c88191bd95cc81b9bdd08195e1a5cdd605a1b6044820152606490fd5b34610221576000366003190112610221576020600454604051908152f35b346102215760203660031901126102215760206108c6600435600052600560205260016040600020015490565b604051908152f35b3461022157600036600319011261022157602060405160008051602061201c8339815191528152f35b6001600160401b0381116103925760051b60200190565b9080601f83011215610221578135610925816108f7565b926109336040519485610397565b81845260208085019260051b82010192831161022157602001905b82821061095b5750505090565b813581526020918201910161094e565b346102215760a03660031901126102215761098461020b565b61098c610226565b906044356001600160401b038111610221576109ac90369060040161090e565b6064356001600160401b038111610221576109cb90369060040161090e565b90608435936001600160401b038511610221576109ef6104b09536906004016103d3565b9361157a565b346102215760403660031901126102215760043560008051602061201c833981519152610a20610226565b91610a41610a3c82600052600560205260016040600020015490565b611842565b610a4b8382611964565b5014610a5357005b600e546001600160a01b0316803b156102215760405163be2d146f60e01b81526001600160a01b0390921660048301523060248301526000908290818381604481015b03925af18015610abb57610aa657005b80610ab560006104b093610397565b80610338565b6115d7565b3461022157604036600319011261022157600435610adc610226565b336001600160a01b03821603610af5576104b0916119f8565b63334bd91960e11b60005260046000fd5b602081016020825282518091526040820191602060408360051b8301019401926000915b838310610b3957505050505090565b9091929394602080600192603f19858203018652885190608080610ba3610b91610b7f610b6f875160a0885260a08801906105b3565b888801518782038a8901526105b3565b604087015186820360408801526105b3565b606086015185820360608701526105b3565b930151151591015297019301930191939290610b2a565b34610221576040366003190112610221576004356024356009548111610c5557610be6828210156115e3565b610bf8610bf38383611624565b611631565b91805b828110610c1057604051806106428682610b06565b80610c4e610c2a6001936000526006602052604060002090565b610c3d610c378685611624565b916116cd565b610c4782896116a3565b52866116a3565b5001610bfb565b60405162461bcd60e51b815260206004820152600b60248201526a125b9d985b1a5908195b9960aa1b6044820152606490fd5b906020808351928381520192019060005b818110610ca65750505090565b8251845260209384019390920191600101610c99565b9060206105e9928181520190610c88565b34610221576040366003190112610221576004356001600160401b038111610221573660238201121561022157806004013590610d09826108f7565b91610d176040519384610397565b8083526024602084019160051b8301019136831161022157602401905b828210610d7457836024356001600160401b0381116102215761064291610d62610d6892369060040161090e565b9061172a565b60405191829182610cbc565b60208091610d818461023c565b815201910190610d34565b34610221576020366003190112610221576020610db86004356000526003602052604060002054151590565b6040519015158152f35b34610221576020366003190112610221576004356000526006602052610e3b6040600020610def816104ec565b90610e65610dff600183016104ec565b91610e57610e0f600283016104ec565b610e4960ff6004610e22600387016104ec565b950154169560405198899860a08a5260a08a01906105b3565b9088820360208a01526105b3565b9086820360408801526105b3565b9084820360608601526105b3565b90151560808301520390f35b34610221576020366003190112610221573360009081527f05b8ccbb9d4d8fb16ea74ce3c29a41f1b461fbdaff4714a0d9a8eb05499746bc60205260409020546004359060ff1615610ec257600b55005b63e2517d3f60e01b60005233600452600060245260446000fd5b3461022157600036600319011261022157600d546040516001600160a01b039091168152602090f35b34610221576000366003190112610221576020600a54604051908152f35b34610221576000366003190112610221576020600954604051908152f35b3461022157604036600319011261022157602060ff610f88600435610f64610226565b906000526005845260406000209060018060a01b0316600052602052604060002090565b54166040519015158152f35b3461022157600036600319011261022157602060405160008152f35b3461022157604036600319011261022157610fc961020b565b6024359081151590818303610221576001600160a01b038116928315611054576110156110269233600052600160205260406000209060018060a01b0316600052602052604060002090565b9060ff801983541691151516179055565b6040519081527f17307eab39ab6107e8899845ad3d59bd9653f200f220920489ca2b5937696c3160203392a3005b62ced3e160e81b600052600060045260246000fd5b346102215760203660031901126102215760043560005260036020526020604060002054604051908152f35b3461022157600036600319011261022157600e546040516001600160a01b039091168152602090f35b346102215760403660031901126102215760043560008051602061201c8339815191526110e9610226565b91611105610a3c82600052600560205260016040600020015490565b61110f83826119f8565b501461111757005b600e546001600160a01b0316803b156102215760405163be2d146f60e01b81526001600160a01b03909216600483015260006024830181905290829081838160448101610a96565b3461022157604036600319011261022157602060ff610f8861117f61020b565b611187610226565b6001600160a01b0391821660009081526001865260408082209290931681526020919091522090565b34610221576020366003190112610221576004356000526007602052604060002080546106426111e76002600185015494016104ec565b604051938493845260208401526060604084015260608301906105b3565b346102215760a03660031901126102215761121e61020b565b611226610226565b60443590606435926084356001600160401b0381116102215761124d9036906004016103d3565b926001600160a01b03821633811415806112f0575b6112d8576001600160a01b038416156112c257156112ad576104b0946112a560405192600184526020840152604083019160018352606084015260808301604052565b929091611a83565b626a0d4560e21b600052600060045260246000fd5b632bfa23e760e11b600052600060045260246000fd5b63711bec9160e11b6000523360045260245260446000fd5b50600081815260016020908152604080832033845290915290205460ff1615611262565b909161131e6117e2565b60ff611329836113f2565b54166113b5576004611395936113826113a2966113796113909561137061135c6009546000526006602052604060002090565b956113678a8861146a565b6001870161146a565b6002850161146a565b6003830161146a565b01805460ff19166001179055565b6113f2565b805460ff19166001179055565b6105256113b0600954611551565b600955565b60405162461bcd60e51b815260206004820152601560248201527453696e67657220616c72656164792065786973747360581b6044820152606490fd5b602061140b918160405193828580945193849201610590565b8101600881520301902090565b601f821161142557505050565b6000526020600020906020601f840160051c83019310611460575b601f0160051c01905b818110611454575050565b60008155600101611449565b9091508190611440565b91909182516001600160401b038111610392576114918161148b84546104b2565b84611418565b6020601f82116001146114d25781906114c39394956000926114c7575b50508160011b916000199060031b1c19161790565b9055565b0151905038806114ae565b601f198216906114e784600052602060002090565b9160005b8181106115235750958360019596971061150a575b505050811b019055565b015160001960f88460031b161c19169055388080611500565b9192602060018192868b0151815501940192016114eb565b634e487b7160e01b600052601160045260246000fd5b60001981146115605760010190565b61153b565b60405190611574602083610397565b60008252565b939291906001600160a01b03851633811415806115b3575b6112d8576001600160a01b038216156112c257156112ad5761052594611a83565b50600081815260016020908152604080832033845290915290205460ff1615611592565b6040513d6000823e3d90fd5b156115ea57565b60405162461bcd60e51b8152602060048201526012602482015271496e76616c696420706172616d657465727360701b6044820152606490fd5b9190820391821161156057565b9061163b826108f7565b6116486040519182610397565b8281528092611659601f19916108f7565b019060005b82811061166a57505050565b60209060405161167981610377565b6060815260608382015260606040820152606080820152600060808201528282850101520161165e565b80518210156116b75760209160051b010190565b634e487b7160e01b600052603260045260246000fd5b906040516116da81610377565b608060ff600483956116eb816104ec565b85526116f9600182016104ec565b602086015261170a600282016104ec565b604086015261171b600382016104ec565b60608601520154161515910152565b919091805183518082036117cb575050805190611746826108f7565b916117546040519384610397565b808352611763601f19916108f7565b0136602084013760005b81518110156117c457806117b360019260051b60208082870101519189010151906000918252602082815260408084206001600160a01b03909316845291905290205490565b6117bd82866116a3565b520161176d565b5090925050565b635b05999160e01b60005260045260245260446000fd5b3360009081527f79ed740027bf2a2d788cad2f071271c4cc92108c1a879ef33ec044da1905c17f602052604090205460ff161561181b57565b63e2517d3f60e01b6000523360045260008051602061201c83398151915260245260446000fd5b600081815260056020908152604080832033845290915290205460ff16156118675750565b63e2517d3f60e01b6000523360045260245260446000fd5b93916001600160a01b038516156112c2576118b760405192600184526020840152604083019160018352606084015260808301604052565b90916118c68284876000611e3e565b600094855b845187101561191e576119166001916118e489876116a3565b51906119046118f38b8a6116a3565b516000526003602052604060002090565b61190f838254611b9f565b9055611b9f565b9601956118cb565b61193891959492965061193390600454611b9f565b600455565b805160010361195857906020806105259593015191015191600033611d79565b61052593600033611c44565b60008181526005602090815260408083206001600160a01b038616845290915290205460ff166119f15760008181526005602090815260408083206001600160a01b03861684529091529020805460ff1916600117905533916001600160a01b0316907f2f8788117e7eff1d82e926ec794901d17c78024a50270940304540a733656f0d600080a4600190565b5050600090565b60008181526005602090815260408083206001600160a01b038616845290915290205460ff16156119f15760008181526005602090815260408083206001600160a01b03861684529091529020805460ff1916905533916001600160a01b0316907ff6391f5c32d9c69d2a47ea670b442974b53935d1edc7fd64eb21e047a839171b600080a4600190565b91939290611a9382868386611e3e565b6001600160a01b03831615611b4d575b6001600160a01b0381161580611af8575b15611ac1575b5050505050565b8451600103611ae757602080611add9601519201519233611d79565b3880808080611aba565b611af394919233611c44565b611add565b94936000939091845b8651861015611b3557600190611b1787876116a3565b5190611b266118f3898b6116a3565b82815403905501950194611b01565b611b489193969792955060045403600455565b611ab4565b9392600092835b8551851015611b8457611b7c600191611b6d87876116a3565b51906119046118f3898b6116a3565b940193611b54565b611b9a9194506119339096929596600454611b9f565b611aa3565b9190820180921161156057565b9081602091031261022157516105e98161029d565b6001600160a01b0391821681529116602082015260a0604082018190526105e99491939192611c069291611bf89190860190610c88565b908482036060860152610c88565b9160808184039101526105b3565b3d15611c3f573d90611c25826103b8565b91611c336040519384610397565b82523d6000602084013e565b606090565b9091949293853b611c58575b505050505050565b602093611c7a91604051968795869563bc197c8160e01b875260048701611bc1565b038160006001600160a01b0387165af160009181611d0f575b50611ccf5750611ca1611c14565b8051919082611cc857632bfa23e760e11b6000526001600160a01b03821660045260246000fd5b9050602001fd5b6001600160e01b0319166343e6837f60e01b01611cf25750388080808080611c50565b632bfa23e760e11b6000526001600160a01b031660045260246000fd5b611d3291925060203d602011611d39575b611d2a8183610397565b810190611bac565b9038611c93565b503d611d20565b6001600160a01b039182168152911660208201526040810191909152606081019190915260a0608082018190526105e9929101906105b3565b9091949293853b611d8c57505050505050565b602093611dae91604051968795869563f23a6e6160e01b875260048701611d40565b038160006001600160a01b0387165af160009181611df8575b50611dd55750611ca1611c14565b6001600160e01b031916630dc5919f60e01b01611cf25750388080808080611c50565b611e1291925060203d602011611d3957611d2a8183610397565b9038611dc7565b9091611e306105e993604084526040840190610c88565b916020818403910152610c88565b939291805183519081810361200457505060005b8151811015611f5e578060051b90602080838501015192860101518460018060a01b038916611edb575b6001936001600160a01b038216611e97575b50505001611e52565b611ed191611eb2611ec9926000526000602052604060002090565b9060018060a01b0316600052602052604060002090565b918254611b9f565b9055388481611e8e565b509091611ef688611eb2836000526000602052604060002090565b54828110611f2757829160019493879203611f1f8b611eb2846000526000602052604060002090565b559350611e7c565b6040516303dee4c560e01b81526001600160a01b038a16600482015260248101919091526044810183905260648101829052608490fd5b508051939493919291600103611fc1576020908101519181015160408051938452918301526001600160a01b03928316939092169133917fc3d58168c5ae7397731d063d5bbf3d657854427343f4c083240f7aacaa2d0f6291819081015b0390a4565b6040516001600160a01b03938416949093169233927f4a39dc06d4c0dbc64b70af90fd698a233a518aa5d07e595d983b8c0526c8f7fb928291611fbc9183611e19565b635b05999160e01b60005260045260245260446000fdfe768dd85fed03ac9c2c0f14fe090b045c29124f162b5fa7d6dd8ca0009807d4dba26469706673582212204f7b7b68e46298f6cd73e0cf81c647a148c70999f1402003b2f4ece100e855fd64736f6c634300081a00332f8788117e7eff1d82e926ec794901d17c78024a50270940304540a733656f0d768dd85fed03ac9c2c0f14fe090b045c29124f162b5fa7d6dd8ca0009807d4db05b8ccbb9d4d8fb16ea74ce3c29a41f1b461fbdaff4714a0d9a8eb05499746bc","linkReferences":{}},"methodIdentifiers":{"DEFAULT_ADMIN_ROLE()":"a217fddf","RECORD_COMPANY_ROLE()":"2d6c8ed5","albumIdCounter()":"6d7d4cb2","albums(uint256)":"ea5df059","balanceOf(address,uint256)":"00fdd58e","balanceOfBatch(address[],uint256[])":"4e1273f4","createAlbum(uint256,uint256,string)":"0fe18841","createSinger(string,string,string,string)":"061f8aa6","exists(uint256)":"4f558e79","factory()":"c45a0155","getRoleAdmin(bytes32)":"248a9ca3","getSingers(uint256,uint256)":"44663cc2","grantRole(bytes32,address)":"2f2ff15d","hasRole(bytes32,address)":"91d14854","isApprovedForAll(address,address)":"e985e9c5","name()":"06fdde03","recordCompanyFee()":"047a35a4","renounceRole(bytes32,address)":"36568abe","revokeRole(bytes32,address)":"d547741f","safeBatchTransferFrom(address,address,uint256[],uint256[],bytes)":"2eb2c2d6","safeTransferFrom(address,address,uint256,uint256,bytes)":"f242432a","setApprovalForAll(address,bool)":"a22cb465","singerIdCounter()":"846a9898","singers(uint256)":"50a8ae61","supportsInterface(bytes4)":"01ffc9a7","totalSupply()":"18160ddd","totalSupply(uint256)":"bd85b039","treasury()":"61d027b3","updateRecordCompanyFee(uint256)":"535ca46c","updateRecordTreasury(address)":"0d1e691a","uri(uint256)":"0e89341c"},"id":50}