{"abi":[{"type":"constructor","inputs":[{"name":"_nftFactory","type":"address","internalType":"address"},{"name":"_mpFeesCollector","type":"address","internalType":"address"},{"name":"_mpFeesPercentage","type":"uint256","internalType":"uint256"}],"stateMutability":"nonpayable"},{"type":"function","name":"DEFAULT_ADMIN_ROLE","inputs":[],"outputs":[{"name":"","type":"bytes32","internalType":"bytes32"}],"stateMutability":"view"},{"type":"function","name":"PERCENT_DIVIDER","inputs":[],"outputs":[{"name":"","type":"uint256","internalType":"uint256"}],"stateMutability":"view"},{"type":"function","name":"auctionCounter","inputs":[],"outputs":[{"name":"","type":"uint256","internalType":"uint256"}],"stateMutability":"view"},{"type":"function","name":"auctions","inputs":[{"name":"","type":"uint256","internalType":"uint256"}],"outputs":[{"name":"tokenId","type":"uint256","internalType":"uint256"},{"name":"paymentToken","type":"address","internalType":"address"},{"name":"basePrice","type":"uint256","internalType":"uint256"},{"name":"minIncrement","type":"uint256","internalType":"uint256"},{"name":"deadline","type":"uint256","internalType":"uint256"},{"name":"highestBid","type":"uint256","internalType":"uint256"},{"name":"amount","type":"uint256","internalType":"uint256"},{"name":"owner","type":"address","internalType":"address"},{"name":"collection","type":"address","internalType":"address"},{"name":"highestBidder","type":"address","internalType":"address"},{"name":"claimed","type":"bool","internalType":"bool"},{"name":"id","type":"uint256","internalType":"uint256"}],"stateMutability":"view"},{"type":"function","name":"bid","inputs":[{"name":"_auctionId","type":"uint256","internalType":"uint256"},{"name":"_amount","type":"uint256","internalType":"uint256"}],"outputs":[],"stateMutability":"payable"},{"type":"function","name":"buy","inputs":[{"name":"_orderId","type":"uint256","internalType":"uint256"},{"name":"_buyAmount","type":"uint256","internalType":"uint256"}],"outputs":[],"stateMutability":"payable"},{"type":"function","name":"cancel","inputs":[{"name":"_id","type":"uint256","internalType":"uint256"}],"outputs":[],"stateMutability":"nonpayable"},{"type":"function","name":"createAuction","inputs":[{"name":"_collection","type":"address","internalType":"address"},{"name":"_tokenId","type":"uint256","internalType":"uint256"},{"name":"_amount","type":"uint256","internalType":"uint256"},{"name":"_basePrice","type":"uint256","internalType":"uint256"},{"name":"_minIncrement","type":"uint256","internalType":"uint256"},{"name":"_deadline","type":"uint256","internalType":"uint256"},{"name":"_paymentToken","type":"address","internalType":"address"}],"outputs":[],"stateMutability":"nonpayable"},{"type":"function","name":"createOrder","inputs":[{"name":"_collection","type":"address","internalType":"address"},{"name":"_tokenId","type":"uint256","internalType":"uint256"},{"name":"_amount","type":"uint256","internalType":"uint256"},{"name":"_price","type":"uint256","internalType":"uint256"},{"name":"_paymentToken","type":"address","internalType":"address"}],"outputs":[],"stateMutability":"nonpayable"},{"type":"function","name":"endAuction","inputs":[{"name":"_auctionId","type":"uint256","internalType":"uint256"}],"outputs":[],"stateMutability":"nonpayable"},{"type":"function","name":"getAuctions","inputs":[{"name":"_start","type":"uint256","internalType":"uint256"},{"name":"_end","type":"uint256","internalType":"uint256"},{"name":"_owner","type":"address","internalType":"address"},{"name":"_bidder","type":"address","internalType":"address"}],"outputs":[{"name":"","type":"tuple[]","internalType":"struct Marketplace.Auction[]","components":[{"name":"tokenId","type":"uint256","internalType":"uint256"},{"name":"paymentToken","type":"address","internalType":"address"},{"name":"basePrice","type":"uint256","internalType":"uint256"},{"name":"minIncrement","type":"uint256","internalType":"uint256"},{"name":"deadline","type":"uint256","internalType":"uint256"},{"name":"highestBid","type":"uint256","internalType":"uint256"},{"name":"amount","type":"uint256","internalType":"uint256"},{"name":"owner","type":"address","internalType":"address"},{"name":"collection","type":"address","internalType":"address"},{"name":"highestBidder","type":"address","internalType":"address"},{"name":"claimed","type":"bool","internalType":"bool"},{"name":"id","type":"uint256","internalType":"uint256"}]},{"name":"","type":"string[]","internalType":"string[]"},{"name":"","type":"uint256","internalType":"uint256"}],"stateMutability":"view"},{"type":"function","name":"getOrders","inputs":[{"name":"_start","type":"uint256","internalType":"uint256"},{"name":"_end","type":"uint256","internalType":"uint256"},{"name":"_owner","type":"address","internalType":"address"}],"outputs":[{"name":"","type":"tuple[]","internalType":"struct Marketplace.Order[]","components":[{"name":"paymentToken","type":"address","internalType":"address"},{"name":"price","type":"uint256","internalType":"uint256"},{"name":"amount","type":"uint256","internalType":"uint256"},{"name":"left","type":"uint256","internalType":"uint256"},{"name":"tokenId","type":"uint256","internalType":"uint256"},{"name":"owner","type":"address","internalType":"address"},{"name":"collection","type":"address","internalType":"address"},{"name":"id","type":"uint256","internalType":"uint256"}]},{"name":"","type":"string[]","internalType":"string[]"},{"name":"","type":"uint256","internalType":"uint256"}],"stateMutability":"view"},{"type":"function","name":"getRoleAdmin","inputs":[{"name":"role","type":"bytes32","internalType":"bytes32"}],"outputs":[{"name":"","type":"bytes32","internalType":"bytes32"}],"stateMutability":"view"},{"type":"function","name":"grantRole","inputs":[{"name":"role","type":"bytes32","internalType":"bytes32"},{"name":"account","type":"address","internalType":"address"}],"outputs":[],"stateMutability":"nonpayable"},{"type":"function","name":"hasRole","inputs":[{"name":"role","type":"bytes32","internalType":"bytes32"},{"name":"account","type":"address","internalType":"address"}],"outputs":[{"name":"","type":"bool","internalType":"bool"}],"stateMutability":"view"},{"type":"function","name":"isAuction","inputs":[{"name":"","type":"uint256","internalType":"uint256"}],"outputs":[{"name":"","type":"bool","internalType":"bool"}],"stateMutability":"view"},{"type":"function","name":"mpFeesCollector","inputs":[],"outputs":[{"name":"","type":"address","internalType":"address"}],"stateMutability":"view"},{"type":"function","name":"mpFeesPercentage","inputs":[],"outputs":[{"name":"","type":"uint256","internalType":"uint256"}],"stateMutability":"view"},{"type":"function","name":"nftFactory","inputs":[],"outputs":[{"name":"","type":"address","internalType":"contract INFTFactory"}],"stateMutability":"view"},{"type":"function","name":"onERC1155Received","inputs":[{"name":"","type":"address","internalType":"address"},{"name":"","type":"address","internalType":"address"},{"name":"","type":"uint256","internalType":"uint256"},{"name":"","type":"uint256","internalType":"uint256"},{"name":"","type":"bytes","internalType":"bytes"}],"outputs":[{"name":"","type":"bytes4","internalType":"bytes4"}],"stateMutability":"pure"},{"type":"function","name":"orderCounter","inputs":[],"outputs":[{"name":"","type":"uint256","internalType":"uint256"}],"stateMutability":"view"},{"type":"function","name":"orders","inputs":[{"name":"","type":"uint256","internalType":"uint256"}],"outputs":[{"name":"paymentToken","type":"address","internalType":"address"},{"name":"price","type":"uint256","internalType":"uint256"},{"name":"amount","type":"uint256","internalType":"uint256"},{"name":"left","type":"uint256","internalType":"uint256"},{"name":"tokenId","type":"uint256","internalType":"uint256"},{"name":"owner","type":"address","internalType":"address"},{"name":"collection","type":"address","internalType":"address"},{"name":"id","type":"uint256","internalType":"uint256"}],"stateMutability":"view"},{"type":"function","name":"renounceRole","inputs":[{"name":"role","type":"bytes32","internalType":"bytes32"},{"name":"callerConfirmation","type":"address","internalType":"address"}],"outputs":[],"stateMutability":"nonpayable"},{"type":"function","name":"revokeRole","inputs":[{"name":"role","type":"bytes32","internalType":"bytes32"},{"name":"account","type":"address","internalType":"address"}],"outputs":[],"stateMutability":"nonpayable"},{"type":"function","name":"setMarketPlaceFee","inputs":[{"name":"_newMPFeesPercentage","type":"uint256","internalType":"uint256"}],"outputs":[],"stateMutability":"nonpayable"},{"type":"function","name":"setNFTFactory","inputs":[{"name":"_newFactory","type":"address","internalType":"address"}],"outputs":[],"stateMutability":"nonpayable"},{"type":"function","name":"setNewTreasury","inputs":[{"name":"_newMPFeesCollector","type":"address","internalType":"address"}],"outputs":[],"stateMutability":"nonpayable"},{"type":"function","name":"supportsInterface","inputs":[{"name":"interfaceId","type":"bytes4","internalType":"bytes4"}],"outputs":[{"name":"","type":"bool","internalType":"bool"}],"stateMutability":"view"},{"type":"event","name":"AuctionEnded","inputs":[{"name":"auctionId","type":"uint256","indexed":true,"internalType":"uint256"},{"name":"winner","type":"address","indexed":true,"internalType":"address"},{"name":"winningBid","type":"uint256","indexed":false,"internalType":"uint256"}],"anonymous":false},{"type":"event","name":"NewAuction","inputs":[{"name":"auctionId","type":"uint256","indexed":true,"internalType":"uint256"},{"name":"basePrice","type":"uint256","indexed":false,"internalType":"uint256"},{"name":"minIncrement","type":"uint256","indexed":false,"internalType":"uint256"},{"name":"deadline","type":"uint256","indexed":false,"internalType":"uint256"}],"anonymous":false},{"type":"event","name":"NewBid","inputs":[{"name":"auctionId","type":"uint256","indexed":true,"internalType":"uint256"},{"name":"bidder","type":"address","indexed":true,"internalType":"address"},{"name":"bidAmount","type":"uint256","indexed":false,"internalType":"uint256"}],"anonymous":false},{"type":"event","name":"NewMPFees","inputs":[{"name":"_newMPFees","type":"uint256","indexed":true,"internalType":"uint256"}],"anonymous":false},{"type":"event","name":"NewOrder","inputs":[{"name":"orderId","type":"uint256","indexed":true,"internalType":"uint256"},{"name":"collection","type":"address","indexed":true,"internalType":"address"},{"name":"tokenId","type":"uint256","indexed":true,"internalType":"uint256"},{"name":"amount","type":"uint256","indexed":false,"internalType":"uint256"},{"name":"price","type":"uint256","indexed":false,"internalType":"uint256"},{"name":"owner","type":"address","indexed":false,"internalType":"address"}],"anonymous":false},{"type":"event","name":"OrderCancelled","inputs":[{"name":"orderId","type":"uint256","indexed":true,"internalType":"uint256"}],"anonymous":false},{"type":"event","name":"OrderFilled","inputs":[{"name":"orderId","type":"uint256","indexed":true,"internalType":"uint256"},{"name":"buyer","type":"address","indexed":true,"internalType":"address"},{"name":"amount","type":"uint256","indexed":false,"internalType":"uint256"}],"anonymous":false},{"type":"event","name":"PaymentTokenAdded","inputs":[{"name":"token","type":"address","indexed":true,"internalType":"address"}],"anonymous":false},{"type":"event","name":"PaymentTokenRemoved","inputs":[{"name":"token","type":"address","indexed":true,"internalType":"address"}],"anonymous":false},{"type":"event","name":"RoleAdminChanged","inputs":[{"name":"role","type":"bytes32","indexed":true,"internalType":"bytes32"},{"name":"previousAdminRole","type":"bytes32","indexed":true,"internalType":"bytes32"},{"name":"newAdminRole","type":"bytes32","indexed":true,"internalType":"bytes32"}],"anonymous":false},{"type":"event","name":"RoleGranted","inputs":[{"name":"role","type":"bytes32","indexed":true,"internalType":"bytes32"},{"name":"account","type":"address","indexed":true,"internalType":"address"},{"name":"sender","type":"address","indexed":true,"internalType":"address"}],"anonymous":false},{"type":"event","name":"RoleRevoked","inputs":[{"name":"role","type":"bytes32","indexed":true,"internalType":"bytes32"},{"name":"account","type":"address","indexed":true,"internalType":"address"},{"name":"sender","type":"address","indexed":true,"internalType":"address"}],"anonymous":false},{"type":"error","name":"AccessControlBadConfirmation","inputs":[]},{"type":"error","name":"AccessControlUnauthorizedAccount","inputs":[{"name":"account","type":"address","internalType":"address"},{"name":"neededRole","type":"bytes32","internalType":"bytes32"}]},{"type":"error","name":"AddressEmptyCode","inputs":[{"name":"target","type":"address","internalType":"address"}]},{"type":"error","name":"AddressInsufficientBalance","inputs":[{"name":"account","type":"address","internalType":"address"}]},{"type":"error","name":"FailedInnerCall","inputs":[]},{"type":"error","name":"ReentrancyGuardReentrantCall","inputs":[]},{"type":"error","name":"SafeERC20FailedOperation","inputs":[{"name":"token","type":"address","internalType":"address"}]}],"bytecode":{"object":"0x6080346100a857601f61275438819003918201601f19168301916001600160401b038311848410176100ac578084926060946040528339810103126100a857610047816100c0565b906040610056602083016100c0565b91015160018055600680546001600160a01b039485166001600160a01b03199182161790915560028054949093169316929092179055600355610098336100d4565b506040516125d6908161015e8239f35b5f80fd5b634e487b7160e01b5f52604160045260245ffd5b51906001600160a01b03821682036100a857565b6001600160a01b0381165f9081525f80516020612734833981519152602052604090205460ff16610158576001600160a01b03165f8181525f8051602061273483398151915260205260408120805460ff191660011790553391907f2f8788117e7eff1d82e926ec794901d17c78024a50270940304540a733656f0d8180a4600190565b505f9056fe6080806040526004361015610012575f80fd5b5f905f3560e01c90816301ffc9a714611cd157508063248a9ca314611c9f5780632554dda814611c7757806329fc7bd814611c5a5780632f2ff15d14611c1d57806336568abe14611bd757806340e58ee514611a88578063571a26a0146119bf578063598647f814611762578063815b5a64146114835780638237016b1461122b5780638704f2a3146111fc5780638c717291146111de5780638f9a372d1461119e57806391d1485414611155578063a217fddf14611139578063a7e766441461111b578063a85c38ef1461108b578063b789bf521461106d578063b9a2de3a14610c72578063c20925c914610beb578063c21b27a214610838578063cb2d93ce146107f8578063d547741f146107b1578063d63843cd14610788578063d6febde8146103c3578063dbe11bb3146101ce5763f23a6e6114610152575f80fd5b346101c35760a03660031901126101c35761016b611d50565b50610174611d24565b5060843567ffffffffffffffff81116101ca57366023820112156101ca57806004013567ffffffffffffffff81116101c657369101602401116101c35760405163f23a6e6160e01b8152602090f35b80fd5b8280fd5b5080fd5b50346101c35760a03660031901126101c3576101e8611d50565b60443590602435906084356064356001600160a01b038216820361037a576102118515156120a9565b6006546040516319afa63b60e11b81526001600160a01b0394851660048201819052949091602091839160249183918c91165af180156103b85761025c918891610389575b5061210d565b823b1561037a57604051637921219560e11b815286908181806102858a8a303360048601611e68565b038183895af1801561037e5761035d575b5061035760078686867fda48d1d468794cea4155aceb51a52f16b0c495ed6a5fbe3283972f05d95c823f60608c896004548a528760205260408a209460018060a01b03166001600160601b0360a01b8654161785558060018601558160028601558660048601556005850160018060a01b0333166001600160601b0360a01b82541617905560068501866001600160601b0360a01b8254161790558160038601556004548098819601556040519182526020820152336040820152a461209b565b60045580f35b8161036c919695949396611e46565b61037a57909192855f610296565b8580fd5b6040513d84823e3d90fd5b6103ab915060203d6020116103b1575b6103a38183611e46565b8101906120f5565b5f610256565b503d610399565b6040513d89823e3d90fd5b506103cd36611d66565b906103d66123c1565b80835260076020526040832082156107535760038101908154841161070e57600681019060018060a01b0382541661041286600184015461214e565b92620f42406104236003548661214e565b049360405163011e8d6960e21b81526020816004818d885af1908115610703578a916106cb575b50610459620f4240918361214e565b049061046e826104698884611f8e565b611f8e565b85549091908b906001600160a01b03168061061c57505034106105e2576002548a96879560209290916104b3916001600160a01b0316906104ad612180565b91612452565b6004604051809781936361d027b360e01b83525af19384156105d757600494610501936104ea9289926105a6575b506104ad6121bb565b60058501546001600160a01b0316906104ad612200565b54910154906001600160a01b0316803b156101c65785839161053c9383604051809681958294637921219560e11b8452333060048601611e68565b03925af1801561037e5761058d575b5050610558838254611f8e565b90556040519182527f1e7abafb1a786c4e6394b5c494f50a97e3802ff2ce462eca4fe6a2dd4e1f92e860203393a36001805580f35b8161059791611e46565b6105a257835f61054b565b8380fd5b6105c991925060203d6020116105d0575b6105c18183611e46565b810190612161565b905f6104e1565b503d6105b7565b6040513d88823e3d90fd5b60405162461bcd60e51b8152602060048201526012602482015271496e73756666696369656e742066756e647360701b6044820152606490fd5b61064a926106339199929997959730903390612493565b86546002546001600160a01b0390811691166123e1565b85602060018060a01b03875416936004604051809481936361d027b360e01b83525af19485156103b8576004956106a59461068c938a926106aa575b506123e1565b845460058601546001600160a01b0390811691166123e1565b610501565b6106c491925060203d6020116105d0576105c18183611e46565b905f610686565b90506020813d6020116106fb575b816106e660209383611e46565b810103126106f7575161045961044a565b5f80fd5b3d91506106d9565b6040513d8c823e3d90fd5b60405162461bcd60e51b815260206004820152601860248201527f4e6f7420656e6f75676820746f6b656e7320746f2062757900000000000000006044820152606490fd5b60405162461bcd60e51b815260206004820152600d60248201526c125b9d985b1a48185b5bdd5b9d609a1b6044820152606490fd5b50346101c357806003193601126101c3576006546040516001600160a01b039091168152602090f35b50346101c35760403660031901126101c3576107f46004356107d1611d24565b906107ef6107ea825f525f602052600160405f20015490565b612281565b612341565b5080f35b50346101c35760203660031901126101c357610812611d50565b61081a612232565b60018060a01b03166001600160601b0360a01b600654161760065580f35b50346101c35760803660031901126101c35760243590600435610859611d3a565b6064356001600160a01b0381169291908390036105a2579361087f600554821115611f08565b61088a818310611f42565b83926108968383611f8e565b956108a087611faf565b966108ae6040519889611e46565b8088526108bd601f1991611faf565b01865b818110610b825750506108db6108d68585611f8e565b611fc7565b936001600160a01b039091168015929091831591905b8581106109e25750505050505060405192606084016060855285518091526020608086019601915b818110610940575050508361093691848096036020860152611da0565b9060408301520390f35b8251805188526020818101516001600160a01b03908116828b0152604080840151908b0152606080840151908b0152608080840151908b015260a080840151908b015260c080840151908b015260e0808401518216908b0152610100808401518216908b015261012080840151909116908a0152610140808301511515908a015261016091820151918901919091526101809097019690920191600101610919565b80895260086020526040892089604051916109fc83611e29565b8054835260018101546001600160a01b039081166020850152600282015460408501526003820154606085015260048201546080850152600582015460a080860191909152600683015460c08601526007830154821660e08601819052600884015483166101008701908152600985015493841661012088018190529390921c60ff161515610140870152600a90930154610160860152918e918a918a908a610b78575b505081610b5c575b50610aba575b505050506001016108f1565b8b8185610acc83989f610ad295612010565b52612010565b505191516040516303a24d0760e21b8152600481019190915291829060249082906001600160a01b03165afa9081156107035791610b30916001938c91610b3a575b50610b1f828b612010565b52610b2a818a612010565b5061209b565b9790895f8c610aae565b610b5691503d808e833e610b4e8183611e46565b810190612038565b5f610b14565b871591508115610b6e575b505f610aa8565b905086145f610b67565b149150895f610aa0565b602090604095939551610b9481611e29565b89815289838201528960408201528960608201528960808201528960a08201528960c08201528960e08201528961010082015289610120820152896101408201528961016082015282828c010152019391936108c0565b50346101c35760203660031901126101c357600435610c08612232565b620f42408111610c3d57806003557fd5af243a680d416ec0ded4cb5fd54058051276938f03d5822332c896d808f5c58280a280f35b60405162461bcd60e51b815260206004820152600d60248201526c466565206f766572203130302560981b6044820152606490fd5b50346101c35760203660031901126101c357600435610c8f6123c1565b8082526009602052610ca760ff604084205416611ea0565b808252600860205260408220906004820154421061102857600982019160ff835460a01c16610fe3578360058201918254600282015411155f14610f47576008810160018060a01b038154168454620f4240610d056003548361214e565b60405163011e8d6960e21b8152919004916020826004818a885af19182156103b8578792610f0f575b50610d3e8792620f42409261214e565b0492610d4f84610469858b54611f8e565b6001870180549194916001600160a01b031680610e9157505060025460209291610d85916001600160a01b0316906104ad612180565b6004604051809481936361d027b360e01b83525af180156105d757610dce93610db79288926105a657506104ad6121bb565b60078401546001600160a01b0316906104ad612200565b54855482546006909301546001600160a01b0391821692909116803b15610e8d57610e149385809460405196879586948593637921219560e11b85523060048601611e68565b03925af1801561037e57610e78575b505060207fd2aa34a4fdbbc6dff6a3e56f46e0f3ae2a31d7785ff3487aa5c95c642acea501915b845460ff60a01b198116600160a01b17909555546040519081526001600160a01b0390941693a36001805580f35b81610e8291611e46565b6105a257835f610e23565b8480fd5b91610eab919493969260018060a01b0360025416906123e1565b602060018060a01b03845416956004604051809581936361d027b360e01b83525af18015610f0457610eff95610ee7938a926106aa57506123e1565b5460078501546001600160a01b0390811691166123e1565b610dce565b6040513d8a823e3d90fd5b915095506020813d602011610f3f575b81610f2c60209383611e46565b810103126106f757518995610d3e610d2e565b3d9150610f1f565b6008810154600782015482546006909301546001600160a01b0391821692909116803b15610e8d57610f949385809460405196879586948593637921219560e11b85523060048601611e68565b03925af1801561037e57610fce575b505060207fd2aa34a4fdbbc6dff6a3e56f46e0f3ae2a31d7785ff3487aa5c95c642acea50191610e4a565b81610fd891611e46565b6105a257835f610fa3565b60405162461bcd60e51b815260206004820152601760248201527f41756374696f6e20616c726561647920636c61696d65640000000000000000006044820152606490fd5b60405162461bcd60e51b815260206004820152601860248201527f41756374696f6e206973207374696c6c206f6e676f696e6700000000000000006044820152606490fd5b50346101c357806003193601126101c3576020600454604051908152f35b50346101c35760203660031901126101c357604061010091600435815260076020522060018060a01b03815416906001810154906002810154600382015460048301549060018060a01b0360058501541692600760018060a01b0360068701541695015495604051978852602088015260408701526060860152608085015260a084015260c083015260e0820152f35b50346101c357806003193601126101c3576020600554604051908152f35b50346101c357806003193601126101c357602090604051908152f35b50346101c35760403660031901126101c3576040611171611d24565b91600435815280602052209060018060a01b03165f52602052602060ff60405f2054166040519015158152f35b50346101c35760203660031901126101c3576111b8611d50565b6111c0612232565b60018060a01b03166001600160601b0360a01b600254161760025580f35b50346101c357806003193601126101c3576020600354604051908152f35b50346101c35760203660031901126101c35760ff60406020926004358152600984522054166040519015158152f35b50346101c35760e03660031901126101c357611245611d50565b60c4359060a435906084359060643590602435906044356001600160a01b038716870361142f576112778115156120a9565b4286111561143e576006546040516319afa63b60e11b81526001600160a01b0393841660048201819052939091602091839160249183918e91165af18015611433576112c9918a91610389575061210d565b813b1561142f57604051637921219560e11b815288908181806112f28689303360048601611e68565b038183885af1801561037e57611412575b505061140c966060937fa3e9c29f3df21edd1eb86fe6ed70e85cf557539b86a3e94e33ce37dbe3026ca39593600a936005548c52600860205260408c2093600185019060018060a01b03166001600160601b0360a01b8254161790558560028501558860038501558960048501558b600585015560068401556007830160018060a01b0333166001600160601b0360a01b82541617905560088301906001600160601b0360a01b82541617905560098201906001600160601b0360a01b8254168255825560ff60a01b19815416905560055491829101558752600960205260408720600160ff1982541617905560055494859460405192835260208301526040820152a261209b565b60055580f35b816114209196949596611e46565b61142f57875f94939294611303565b8780fd5b6040513d8b823e3d90fd5b60405162461bcd60e51b815260206004820152601e60248201527f446561646c696e65206d75737420626520696e207468652066757475726500006044820152606490fd5b50346101c35760603660031901126101c357600435906024356114a4611d3a565b926114b3600454831115611f08565b6114be828210611f42565b82916114ca8282611f8e565b946114d486611faf565b956114e26040519788611e46565b8087526114f1601f1991611faf565b01855b81811061171b57505061150a6108d68484611f8e565b925b8281106115c45750505060405192606084016060855285518091526020608086019601915b81811061154e575050508361093691848096036020860152611da0565b909195602061010060019260e08a51858060a01b0381511683528481015185840152604081015160408401526060810151606084015260808101516080840152858060a01b0360a08201511660a0840152858060a01b0360c08201511660c0840152015160e08201520197019101919091611531565b80865260076020526040862086604051916115de83611df8565b80546001600160a01b03908116845260018201546020850152600282015460408501526003820154606085018190526004830154608086019081526005840154831660a08701819052600685015490931660c0870190815260079094015460e0870152949190151590816116f3575b5061165f575b5050505060010161150c565b61166c898c9a969a612010565b52611677848b612010565b505191516040516303a24d0760e21b8152600481019190915291829060249082906001600160a01b03165afa9081156103b857916116cf9160019389916116d9575b506116c48288612010565b52610b2a8187612010565b9490865f80611653565b6116ed91503d808b833e610b4e8183611e46565b5f6116b9565b6001600160a01b03881680159250908215611711575b50505f61164d565b1490505f80611709565b60209060405161172a81611df8565b88815288838201528860408201528860608201528860808201528860a08201528860c08201528860e082015282828b010152016114f4565b5061176c36611d66565b6117746123c1565b90808352600960205261178d60ff604085205416611ea0565b8083526008602052604083206004810154421015611986576001810180546001600160a01b0316801592918361197e575b600283015486106119395760058301918254600385015481018082116119255788106118e05760098895019560018060a01b038754169081611871575b505091546001600160a01b031691508390508161185d575b50505580546001600160a01b03191633908117909155604051928352917f558a0d5d5468d74b0db24c74eb348b42271c2ebb4c9e953ced38aaed95fa436190602090a36001805580f35b61186a9130903390612493565b5f82611813565b156118d257505084548354604080516118c99450926001600160a01b03169061189a9084611e46565b601f83527f556e61626c6520746f2072657061792070726576696f757320626964646572006020840152612452565b5f8080806117fb565b6118db926123e1565b6118c9565b60405162461bcd60e51b815260206004820152601860248201527f42696420696e6372656d656e7420697320746f6f206c6f7700000000000000006044820152606490fd5b634e487b7160e01b8a52601160045260248afd5b60405162461bcd60e51b815260206004820152601f60248201527f426964206d757374206265206174206c656173742062617365207072696365006044820152606490fd5b3495506117be565b60405162461bcd60e51b8152602060048201526011602482015270105d58dd1a5bdb881a185cc8195b991959607a1b6044820152606490fd5b50346101c35760203660031901126101c357604061018091600435815260086020522080549060ff60018060a01b0360018301541691600281015460038201546004830154600584015460068501549160018060a01b036007870154169360018060a01b0360088801541695600a6009890154980154996040519b8c5260208c015260408b015260608a0152608089015260a088015260c087015260e086015261010085015260018060a01b03811661012085015260a01c161515610140830152610160820152f35b50346106f75760203660031901126106f757600435600454811015611b9f575f81815260076020526040902060058101546001600160a01b03163303611b685760018060a01b0360068201541660048201546002830154823b156106f757611b0b925f9283604051809681958294637921219560e11b8452333060048601611e68565b03925af18015611b5d57611b48575b506003839101557f61b9399f2f0f32ca39ce8d7be32caed5ec22fe07a6daba3a467ed479ec6065828280a280f35b600393505f611b5691611e46565b5f92611b1a565b6040513d5f823e3d90fd5b60405162461bcd60e51b815260206004820152600f60248201526e2737ba103a37b5b2b71037bbb732b960891b6044820152606490fd5b60405162461bcd60e51b815260206004820152601060248201526f125b9d985b1a59081bdc99195c881a5960821b6044820152606490fd5b346106f75760403660031901126106f757611bf0611d24565b336001600160a01b03821603611c0e57611c0c90600435612341565b005b63334bd91960e11b5f5260045ffd5b346106f75760403660031901126106f757611c0c600435611c3c611d24565b90611c556107ea825f525f602052600160405f20015490565b6122b9565b346106f7575f3660031901126106f7576020604051620f42408152f35b346106f7575f3660031901126106f7576002546040516001600160a01b039091168152602090f35b346106f75760203660031901126106f7576020611cc96004355f525f602052600160405f20015490565b604051908152f35b346106f75760203660031901126106f7576004359063ffffffff60e01b82168092036106f757602091637965db0b60e01b8114908115611d13575b5015158152f35b6301ffc9a760e01b14905083611d0c565b602435906001600160a01b03821682036106f757565b604435906001600160a01b03821682036106f757565b600435906001600160a01b03821682036106f757565b60409060031901126106f7576004359060243590565b805180835260209291819084018484015e5f828201840152601f01601f1916010190565b9080602083519182815201916020808360051b8301019401925f915b838310611dcb57505050505090565b9091929394602080611de9600193601f198682030187528951611d7c565b97019301930191939290611dbc565b610100810190811067ffffffffffffffff821117611e1557604052565b634e487b7160e01b5f52604160045260245ffd5b610180810190811067ffffffffffffffff821117611e1557604052565b90601f8019910116810190811067ffffffffffffffff821117611e1557604052565b6001600160a01b039182168152911660208201526040810191909152606081019190915260a0608082018190525f9082015260c00190565b15611ea757565b60405162461bcd60e51b815260206004820152601760248201527f4f72646572206973206e6f7420616e2061756374696f6e0000000000000000006044820152606490fd5b67ffffffffffffffff8111611e1557601f01601f191660200190565b15611f0f57565b60405162461bcd60e51b815260206004820152600b60248201526a125b9d985b1a5908195b9960aa1b6044820152606490fd5b15611f4957565b60405162461bcd60e51b815260206004820152601e60248201527f5374617274206d75737420626520736d616c6c6572207468616e20656e6400006044820152606490fd5b91908203918211611f9b57565b634e487b7160e01b5f52601160045260245ffd5b67ffffffffffffffff8111611e155760051b60200190565b90611fd182611faf565b611fde6040519182611e46565b8281528092611fef601f1991611faf565b01905f5b828110611fff57505050565b806060602080938501015201611ff3565b80518210156120245760209160051b010190565b634e487b7160e01b5f52603260045260245ffd5b6020818303126106f75780519067ffffffffffffffff82116106f7570181601f820112156106f75780519061206c82611eec565b9261207a6040519485611e46565b828452602083830101116106f757815f9260208093018386015e8301015290565b5f198114611f9b5760010190565b156120b057565b60405162461bcd60e51b815260206004820152601d60248201527f416d6f756e74206d7573742062652067726561746572207468616e20300000006044820152606490fd5b908160209103126106f7575180151581036106f75790565b1561211457565b60405162461bcd60e51b815260206004820152601260248201527124b73b30b634b21031b7b63632b1ba34b7b760711b6044820152606490fd5b81810292918115918404141715611f9b57565b908160209103126106f757516001600160a01b03811681036106f75790565b6040519061218f604083611e46565b601c82527f556e61626c6520746f20706179206665657320636f6c6c6563746f72000000006020830152565b604051906121ca606083611e46565b60218252607360f81b6040837f556e61626c6520746f20706179207265636f726420636f6d70616e792066656560208201520152565b6040519061220f604083611e46565b60148252732ab730b13632903a37903830bc9039b2b63632b960611b6020830152565b335f9081527fad3228b676f7d3cd4284a5443f17f1962b36e491b30a40b2405849e597ba5fb5602052604090205460ff161561226a57565b63e2517d3f60e01b5f52336004525f60245260445ffd5b5f8181526020818152604080832033845290915290205460ff16156122a35750565b63e2517d3f60e01b5f523360045260245260445ffd5b5f818152602081815260408083206001600160a01b038616845290915290205460ff1661233b575f818152602081815260408083206001600160a01b0395909516808452949091528120805460ff19166001179055339291907f2f8788117e7eff1d82e926ec794901d17c78024a50270940304540a733656f0d9080a4600190565b50505f90565b5f818152602081815260408083206001600160a01b038616845290915290205460ff161561233b575f818152602081815260408083206001600160a01b0395909516808452949091528120805460ff19169055339291907ff6391f5c32d9c69d2a47ea670b442974b53935d1edc7fd64eb21e047a839171b9080a4600190565b6002600154146123d2576002600155565b633ee5aeb560e01b5f5260045ffd5b60405163a9059cbb60e01b60208201526001600160a01b0390921660248301526044808301939093529181526124219161241c606483611e46565b6124d7565b565b3d1561244d573d9061243482611eec565b916124426040519384611e46565b82523d5f602084013e565b606090565b5f80809381935af1612462612423565b501561246b5750565b60405162461bcd60e51b81526020600482015290819061248f906024830190611d7c565b0390fd5b6040516323b872dd60e01b60208201526001600160a01b0392831660248201529290911660448301526064808301939093529181526124219161241c608483611e46565b5f806124ff9260018060a01b03169360208151910182865af16124f8612423565b9083612542565b8051908115159182612527575b50506125155750565b635274afe760e01b5f5260045260245ffd5b61253a92506020809183010191016120f5565b155f8061250c565b90612566575080511561255757805190602001fd5b630a12f52160e11b5f5260045ffd5b81511580612597575b612577575090565b639996b31560e01b5f9081526001600160a01b0391909116600452602490fd5b50803b1561256f56fea26469706673582212205c229a7aaefe0097c571c96015eaf6b98da8ac918ca86910b602b7f7960ee1d864736f6c634300081a0033ad3228b676f7d3cd4284a5443f17f1962b36e491b30a40b2405849e597ba5fb5","linkReferences":{}},"methodIdentifiers":{"DEFAULT_ADMIN_ROLE()":"a217fddf","PERCENT_DIVIDER()":"29fc7bd8","auctionCounter()":"a7e76644","auctions(uint256)":"571a26a0","bid(uint256,uint256)":"598647f8","buy(uint256,uint256)":"d6febde8","cancel(uint256)":"40e58ee5","createAuction(address,uint256,uint256,uint256,uint256,uint256,address)":"8237016b","createOrder(address,uint256,uint256,uint256,address)":"dbe11bb3","endAuction(uint256)":"b9a2de3a","getAuctions(uint256,uint256,address,address)":"c21b27a2","getOrders(uint256,uint256,address)":"815b5a64","getRoleAdmin(bytes32)":"248a9ca3","grantRole(bytes32,address)":"2f2ff15d","hasRole(bytes32,address)":"91d14854","isAuction(uint256)":"8704f2a3","mpFeesCollector()":"2554dda8","mpFeesPercentage()":"8c717291","nftFactory()":"d63843cd","onERC1155Received(address,address,uint256,uint256,bytes)":"f23a6e61","orderCounter()":"b789bf52","orders(uint256)":"a85c38ef","renounceRole(bytes32,address)":"36568abe","revokeRole(bytes32,address)":"d547741f","setMarketPlaceFee(uint256)":"c20925c9","setNFTFactory(address)":"cb2d93ce","setNewTreasury(address)":"8f9a372d","supportsInterface(bytes4)":"01ffc9a7"},"id":48}