{"abi":[{"type":"constructor","inputs":[{"name":"_nftFactory","type":"address","internalType":"address"},{"name":"_mpFeesCollector","type":"address","internalType":"address"},{"name":"_mpFeesPercentage","type":"uint256","internalType":"uint256"}],"stateMutability":"nonpayable"},{"type":"function","name":"DEFAULT_ADMIN_ROLE","inputs":[],"outputs":[{"name":"","type":"bytes32","internalType":"bytes32"}],"stateMutability":"view"},{"type":"function","name":"PERCENT_DIVIDER","inputs":[],"outputs":[{"name":"","type":"uint256","internalType":"uint256"}],"stateMutability":"view"},{"type":"function","name":"auctionCounter","inputs":[],"outputs":[{"name":"","type":"uint256","internalType":"uint256"}],"stateMutability":"view"},{"type":"function","name":"auctions","inputs":[{"name":"","type":"uint256","internalType":"uint256"}],"outputs":[{"name":"auctionId","type":"uint256","internalType":"uint256"},{"name":"paymentToken","type":"address","internalType":"address"},{"name":"basePrice","type":"uint256","internalType":"uint256"},{"name":"minIncrement","type":"uint256","internalType":"uint256"},{"name":"deadline","type":"uint256","internalType":"uint256"},{"name":"highestBid","type":"uint256","internalType":"uint256"},{"name":"amount","type":"uint256","internalType":"uint256"},{"name":"owner","type":"address","internalType":"address"},{"name":"collection","type":"address","internalType":"address"},{"name":"highestBidder","type":"address","internalType":"address"}],"stateMutability":"view"},{"type":"function","name":"bid","inputs":[{"name":"_auctionId","type":"uint256","internalType":"uint256"},{"name":"_amount","type":"uint256","internalType":"uint256"}],"outputs":[],"stateMutability":"payable"},{"type":"function","name":"buy","inputs":[{"name":"_orderId","type":"uint256","internalType":"uint256"},{"name":"_buyAmount","type":"uint256","internalType":"uint256"}],"outputs":[],"stateMutability":"payable"},{"type":"function","name":"cancel","inputs":[{"name":"_id","type":"uint256","internalType":"uint256"}],"outputs":[],"stateMutability":"nonpayable"},{"type":"function","name":"createAuction","inputs":[{"name":"_collection","type":"address","internalType":"address"},{"name":"_tokenId","type":"uint256","internalType":"uint256"},{"name":"_amount","type":"uint256","internalType":"uint256"},{"name":"_basePrice","type":"uint256","internalType":"uint256"},{"name":"_minIncrement","type":"uint256","internalType":"uint256"},{"name":"_deadline","type":"uint256","internalType":"uint256"},{"name":"_paymentToken","type":"address","internalType":"address"}],"outputs":[],"stateMutability":"nonpayable"},{"type":"function","name":"createOrder","inputs":[{"name":"_collection","type":"address","internalType":"address"},{"name":"_tokenId","type":"uint256","internalType":"uint256"},{"name":"_amount","type":"uint256","internalType":"uint256"},{"name":"_price","type":"uint256","internalType":"uint256"},{"name":"_paymentToken","type":"address","internalType":"address"}],"outputs":[],"stateMutability":"nonpayable"},{"type":"function","name":"endAuction","inputs":[{"name":"_auctionId","type":"uint256","internalType":"uint256"}],"outputs":[],"stateMutability":"nonpayable"},{"type":"function","name":"getRoleAdmin","inputs":[{"name":"role","type":"bytes32","internalType":"bytes32"}],"outputs":[{"name":"","type":"bytes32","internalType":"bytes32"}],"stateMutability":"view"},{"type":"function","name":"grantRole","inputs":[{"name":"role","type":"bytes32","internalType":"bytes32"},{"name":"account","type":"address","internalType":"address"}],"outputs":[],"stateMutability":"nonpayable"},{"type":"function","name":"hasRole","inputs":[{"name":"role","type":"bytes32","internalType":"bytes32"},{"name":"account","type":"address","internalType":"address"}],"outputs":[{"name":"","type":"bool","internalType":"bool"}],"stateMutability":"view"},{"type":"function","name":"isAuction","inputs":[{"name":"","type":"uint256","internalType":"uint256"}],"outputs":[{"name":"","type":"bool","internalType":"bool"}],"stateMutability":"view"},{"type":"function","name":"mpFeesCollector","inputs":[],"outputs":[{"name":"","type":"address","internalType":"address"}],"stateMutability":"view"},{"type":"function","name":"mpFeesPercentage","inputs":[],"outputs":[{"name":"","type":"uint256","internalType":"uint256"}],"stateMutability":"view"},{"type":"function","name":"nftFactory","inputs":[],"outputs":[{"name":"","type":"address","internalType":"contract INFTFactory"}],"stateMutability":"view"},{"type":"function","name":"onERC1155Received","inputs":[{"name":"","type":"address","internalType":"address"},{"name":"","type":"address","internalType":"address"},{"name":"","type":"uint256","internalType":"uint256"},{"name":"","type":"uint256","internalType":"uint256"},{"name":"","type":"bytes","internalType":"bytes"}],"outputs":[{"name":"","type":"bytes4","internalType":"bytes4"}],"stateMutability":"pure"},{"type":"function","name":"orderCounter","inputs":[],"outputs":[{"name":"","type":"uint256","internalType":"uint256"}],"stateMutability":"view"},{"type":"function","name":"orders","inputs":[{"name":"","type":"uint256","internalType":"uint256"}],"outputs":[{"name":"paymentToken","type":"address","internalType":"address"},{"name":"price","type":"uint256","internalType":"uint256"},{"name":"amount","type":"uint256","internalType":"uint256"},{"name":"left","type":"uint256","internalType":"uint256"},{"name":"tokenId","type":"uint256","internalType":"uint256"},{"name":"owner","type":"address","internalType":"address"},{"name":"collection","type":"address","internalType":"address"}],"stateMutability":"view"},{"type":"function","name":"renounceRole","inputs":[{"name":"role","type":"bytes32","internalType":"bytes32"},{"name":"callerConfirmation","type":"address","internalType":"address"}],"outputs":[],"stateMutability":"nonpayable"},{"type":"function","name":"revokeRole","inputs":[{"name":"role","type":"bytes32","internalType":"bytes32"},{"name":"account","type":"address","internalType":"address"}],"outputs":[],"stateMutability":"nonpayable"},{"type":"function","name":"setMarketPlaceFee","inputs":[{"name":"_newMPFeesPercentage","type":"uint256","internalType":"uint256"}],"outputs":[],"stateMutability":"nonpayable"},{"type":"function","name":"setNFTFactory","inputs":[{"name":"_newFactory","type":"address","internalType":"address"}],"outputs":[],"stateMutability":"nonpayable"},{"type":"function","name":"setNewTreasury","inputs":[{"name":"_newMPFeesCollector","type":"address","internalType":"address"}],"outputs":[],"stateMutability":"nonpayable"},{"type":"function","name":"supportsInterface","inputs":[{"name":"interfaceId","type":"bytes4","internalType":"bytes4"}],"outputs":[{"name":"","type":"bool","internalType":"bool"}],"stateMutability":"view"},{"type":"event","name":"AuctionEnded","inputs":[{"name":"auctionId","type":"uint256","indexed":true,"internalType":"uint256"},{"name":"winner","type":"address","indexed":true,"internalType":"address"},{"name":"winningBid","type":"uint256","indexed":false,"internalType":"uint256"}],"anonymous":false},{"type":"event","name":"NewAuction","inputs":[{"name":"auctionId","type":"uint256","indexed":true,"internalType":"uint256"},{"name":"basePrice","type":"uint256","indexed":false,"internalType":"uint256"},{"name":"minIncrement","type":"uint256","indexed":false,"internalType":"uint256"},{"name":"deadline","type":"uint256","indexed":false,"internalType":"uint256"}],"anonymous":false},{"type":"event","name":"NewBid","inputs":[{"name":"auctionId","type":"uint256","indexed":true,"internalType":"uint256"},{"name":"bidder","type":"address","indexed":true,"internalType":"address"},{"name":"bidAmount","type":"uint256","indexed":false,"internalType":"uint256"}],"anonymous":false},{"type":"event","name":"NewMPFees","inputs":[{"name":"_newMPFees","type":"uint256","indexed":true,"internalType":"uint256"}],"anonymous":false},{"type":"event","name":"NewOrder","inputs":[{"name":"orderId","type":"uint256","indexed":true,"internalType":"uint256"},{"name":"collection","type":"address","indexed":true,"internalType":"address"},{"name":"tokenId","type":"uint256","indexed":true,"internalType":"uint256"},{"name":"amount","type":"uint256","indexed":false,"internalType":"uint256"},{"name":"price","type":"uint256","indexed":false,"internalType":"uint256"},{"name":"owner","type":"address","indexed":false,"internalType":"address"}],"anonymous":false},{"type":"event","name":"OrderCancelled","inputs":[{"name":"orderId","type":"uint256","indexed":true,"internalType":"uint256"}],"anonymous":false},{"type":"event","name":"OrderFilled","inputs":[{"name":"orderId","type":"uint256","indexed":true,"internalType":"uint256"},{"name":"buyer","type":"address","indexed":true,"internalType":"address"},{"name":"amount","type":"uint256","indexed":false,"internalType":"uint256"}],"anonymous":false},{"type":"event","name":"PaymentTokenAdded","inputs":[{"name":"token","type":"address","indexed":true,"internalType":"address"}],"anonymous":false},{"type":"event","name":"PaymentTokenRemoved","inputs":[{"name":"token","type":"address","indexed":true,"internalType":"address"}],"anonymous":false},{"type":"event","name":"RoleAdminChanged","inputs":[{"name":"role","type":"bytes32","indexed":true,"internalType":"bytes32"},{"name":"previousAdminRole","type":"bytes32","indexed":true,"internalType":"bytes32"},{"name":"newAdminRole","type":"bytes32","indexed":true,"internalType":"bytes32"}],"anonymous":false},{"type":"event","name":"RoleGranted","inputs":[{"name":"role","type":"bytes32","indexed":true,"internalType":"bytes32"},{"name":"account","type":"address","indexed":true,"internalType":"address"},{"name":"sender","type":"address","indexed":true,"internalType":"address"}],"anonymous":false},{"type":"event","name":"RoleRevoked","inputs":[{"name":"role","type":"bytes32","indexed":true,"internalType":"bytes32"},{"name":"account","type":"address","indexed":true,"internalType":"address"},{"name":"sender","type":"address","indexed":true,"internalType":"address"}],"anonymous":false},{"type":"error","name":"AccessControlBadConfirmation","inputs":[]},{"type":"error","name":"AccessControlUnauthorizedAccount","inputs":[{"name":"account","type":"address","internalType":"address"},{"name":"neededRole","type":"bytes32","internalType":"bytes32"}]},{"type":"error","name":"AddressEmptyCode","inputs":[{"name":"target","type":"address","internalType":"address"}]},{"type":"error","name":"AddressInsufficientBalance","inputs":[{"name":"account","type":"address","internalType":"address"}]},{"type":"error","name":"FailedInnerCall","inputs":[]},{"type":"error","name":"ReentrancyGuardReentrantCall","inputs":[]},{"type":"error","name":"SafeERC20FailedOperation","inputs":[{"name":"token","type":"address","internalType":"address"}]}],"bytecode":{"object":"0x6080346100a857601f611dcb38819003918201601f19168301916001600160401b038311848410176100ac578084926060946040528339810103126100a857610047816100c0565b906040610056602083016100c0565b91015160018055600680546001600160a01b039485166001600160a01b03199182161790915560028054949093169316929092179055600355610098336100d4565b50604051611c4d908161015e8239f35b5f80fd5b634e487b7160e01b5f52604160045260245ffd5b51906001600160a01b03821682036100a857565b6001600160a01b0381165f9081525f80516020611dab833981519152602052604090205460ff16610158576001600160a01b03165f8181525f80516020611dab83398151915260205260408120805460ff191660011790553391907f2f8788117e7eff1d82e926ec794901d17c78024a50270940304540a733656f0d8180a4600190565b505f9056fe6080806040526004361015610012575f80fd5b5f905f3560e01c90816301ffc9a71461157b57508063248a9ca3146115495780632554dda81461152157806329fc7bd8146115045780632f2ff15d146114c757806336568abe1461148157806340e58ee514611332578063571a26a014611282578063598647f8146110255780638237016b14610de65780638704f2a314610db75780638c71729114610d995780638f9a372d14610d5957806391d1485414610d10578063a217fddf14610cf4578063a7e7664414610cd6578063a85c38ef14610c51578063b789bf5214610c33578063b9a2de3a1461089a578063c20925c914610813578063cb2d93ce146107d3578063d547741f1461078c578063d63843cd14610763578063d6febde81461039e578063dbe11bb3146101b85763f23a6e611461013c575f80fd5b346101ad5760a03660031901126101ad576101556115e4565b5061015e6115ce565b5060843567ffffffffffffffff81116101b457366023820112156101b457806004013567ffffffffffffffff81116101b057369101602401116101ad5760405163f23a6e6160e01b8152602090f35b80fd5b8280fd5b5080fd5b50346101ad5760a03660031901126101ad576101d26115e4565b6084359060443590602435906064356001600160a01b0385168503610355576101fc8415156116ca565b6006546040516319afa63b60e11b81526001600160a01b0393841660048201819052939091602091839160249183918c91165af1801561039357610247918891610364575b5061172e565b813b1561035557604051637921219560e11b815286908181806102708989303360048601611646565b038183885af1801561035957610340575b505083600361033a9660045489526007602052604089209060018060a01b03166001600160601b0360a01b8254161781558360018201558260028201558560048201556005810160018060a01b0333166001600160601b0360a01b82541617905560068101856001600160601b0360a01b82541617905501557fda48d1d468794cea4155aceb51a52f16b0c495ed6a5fbe3283972f05d95c823f60606004549586936040519182526020820152336040820152a461176f565b60045580f35b8161034a91611610565b61035557855f610281565b8580fd5b6040513d84823e3d90fd5b610386915060203d60201161038c575b61037e8183611610565b810190611716565b5f610241565b503d610374565b6040513d89823e3d90fd5b506103a8366115fa565b906103b1611a11565b808352600760205260408320821561072e576003810190815484116106e957600681019060018060a01b038254166103ed866001840154611791565b92620f42406103fe60035486611791565b049360405163011e8d6960e21b81526020816004818d885af19081156106de578a916106a6575b50610434620f42409183611791565b04906104498261044488846117a4565b6117a4565b85549091908b906001600160a01b0316806105f757505034106105bd576002548a968795602092909161048e916001600160a01b0316906104886117d0565b91611ab2565b6004604051809781936361d027b360e01b83525af19384156105b2576004946104dc936104c5928992610581575b5061048861180b565b60058501546001600160a01b031690610488611850565b54910154906001600160a01b0316803b156101b0578583916105179383604051809681958294637921219560e11b8452333060048601611646565b03925af1801561035957610568575b50506105338382546117a4565b90556040519182527f1e7abafb1a786c4e6394b5c494f50a97e3802ff2ce462eca4fe6a2dd4e1f92e860203393a36001805580f35b8161057291611610565b61057d57835f610526565b8380fd5b6105a491925060203d6020116105ab575b61059c8183611610565b8101906117b1565b905f6104bc565b503d610592565b6040513d88823e3d90fd5b60405162461bcd60e51b8152602060048201526012602482015271496e73756666696369656e742066756e647360701b6044820152606490fd5b6106259261060e9199929997959730903390611b0a565b86546002546001600160a01b039081169116611a31565b85602060018060a01b03875416936004604051809481936361d027b360e01b83525af19485156103935760049561068094610667938a92610685575b50611a31565b845460058601546001600160a01b039081169116611a31565b6104dc565b61069f91925060203d6020116105ab5761059c8183611610565b905f610661565b90506020813d6020116106d6575b816106c160209383611610565b810103126106d25751610434610425565b5f80fd5b3d91506106b4565b6040513d8c823e3d90fd5b60405162461bcd60e51b815260206004820152601860248201527f4e6f7420656e6f75676820746f6b656e7320746f2062757900000000000000006044820152606490fd5b60405162461bcd60e51b815260206004820152600d60248201526c125b9d985b1a48185b5bdd5b9d609a1b6044820152606490fd5b50346101ad57806003193601126101ad576006546040516001600160a01b039091168152602090f35b50346101ad5760403660031901126101ad576107cf6004356107ac6115ce565b906107ca6107c5825f525f602052600160405f20015490565b6118d1565b611991565b5080f35b50346101ad5760203660031901126101ad576107ed6115e4565b6107f5611882565b60018060a01b03166001600160601b0360a01b600654161760065580f35b50346101ad5760203660031901126101ad57600435610830611882565b620f4240811161086557806003557fd5af243a680d416ec0ded4cb5fd54058051276938f03d5822332c896d808f5c58280a280f35b60405162461bcd60e51b815260206004820152600d60248201526c466565206f766572203130302560981b6044820152606490fd5b50346101ad5760203660031901126101ad576004356108b7611a11565b80825260096020526108cf60ff60408420541661167e565b8082526008602052604082209060048201544210610bee57600582018054600284015491939111610b5157836008820160018060a01b038154168554620f424061091b60035483611791565b60405163011e8d6960e21b81529190049160208260048189885af19182156105b2578692610b19575b506109548692620f424092611791565b049261096584610444858c546117a4565b6001880180549194916001600160a01b031680610aa65750506002546020929161099b916001600160a01b0316906104886117d0565b6004604051809481936361d027b360e01b83525af18015610a9b576109e4936109cd928792610581575061048861180b565b60078501546001600160a01b031690610488611850565b5460098301548354600685015490926001600160a01b039283169216803b15610a9757610a2c9385809460405196879586948593637921219560e11b85523060048601611646565b03925af1801561035957610a82575b505060207fd2aa34a4fdbbc6dff6a3e56f46e0f3ae2a31d7785ff3487aa5c95c642acea501915b6009015493546040519081526001600160a01b0390941693a36001805580f35b81610a8c91611610565b61057d57835f610a3b565b8480fd5b6040513d87823e3d90fd5b91610ac0919493969260018060a01b036002541690611a31565b602060018060a01b03845416956004604051809581936361d027b360e01b83525af1801561039357610b1495610afc9389926106855750611a31565b5460078601546001600160a01b039081169116611a31565b6109e4565b915094506020813d602011610b49575b81610b3660209383611610565b810103126106d257518894610954610944565b3d9150610b29565b6008810154600782015482546006840154879391926001600160a01b039081169216803b15610a9757610b9f9385809460405196879586948593637921219560e11b85523060048601611646565b03925af1801561035957610bd9575b505060207fd2aa34a4fdbbc6dff6a3e56f46e0f3ae2a31d7785ff3487aa5c95c642acea50191610a62565b81610be391611610565b61057d57835f610bae565b60405162461bcd60e51b815260206004820152601860248201527f41756374696f6e206973207374696c6c206f6e676f696e6700000000000000006044820152606490fd5b50346101ad57806003193601126101ad576020600454604051908152f35b50346101ad5760203660031901126101ad57604060e091600435815260076020522060018060a01b03815416906001810154906002810154600382015460048301549160018060a01b0360058501541693600660018060a01b039101541694604051968752602087015260408601526060850152608084015260a083015260c0820152f35b50346101ad57806003193601126101ad576020600554604051908152f35b50346101ad57806003193601126101ad57602090604051908152f35b50346101ad5760403660031901126101ad576040610d2c6115ce565b91600435815280602052209060018060a01b03165f52602052602060ff60405f2054166040519015158152f35b50346101ad5760203660031901126101ad57610d736115e4565b610d7b611882565b60018060a01b03166001600160601b0360a01b600254161760025580f35b50346101ad57806003193601126101ad576020600354604051908152f35b50346101ad5760203660031901126101ad5760ff60406020926004358152600984522054166040519015158152f35b50346101ad5760e03660031901126101ad57610e006115e4565b6064359060a435906084359060c435906044356001600160a01b0383168303610fd157610e2e8115156116ca565b42851115610fe0576006546040516319afa63b60e11b81526001600160a01b0393841660048201819052939091602091839160249183918d91165af18015610fd557610e80918991610364575061172e565b813b15610fd157604051637921219560e11b81528790818180610eab86602435303360048601611646565b038183885af1801561035957610fb8575b50509460097fa3e9c29f3df21edd1eb86fe6ed70e85cf557539b86a3e94e33ce37dbe3026ca393606093610fb29860055492838c52600860205260408c20938455600184019060018060a01b03166001600160601b0360a01b8254161790558460028401558760038401558860048401558a600584015560068301556007820160018060a01b0333166001600160601b0360a01b82541617905560088201906001600160601b0360a01b825416179055016001600160601b0360a01b81541690556005548752600960205260408720600160ff1982541617905560055494859460405192835260208301526040820152a261176f565b60055580f35b81610fc591989398611610565b610fd15794865f610ebc565b8680fd5b6040513d8a823e3d90fd5b60405162461bcd60e51b815260206004820152601e60248201527f446561646c696e65206d75737420626520696e207468652066757475726500006044820152606490fd5b5061102f366115fa565b611037611a11565b90808352600960205261105060ff60408520541661167e565b8083526008602052604083206004810154421015611249576001810180546001600160a01b03168015929183611241575b600283015486106111fc5760058301918254600385015481018082116111e85788106111a35760098895019560018060a01b038754169081611134575b505091546001600160a01b0316915083905081611120575b50505580546001600160a01b03191633908117909155604051928352917f558a0d5d5468d74b0db24c74eb348b42271c2ebb4c9e953ced38aaed95fa436190602090a36001805580f35b61112d9130903390611b0a565b5f826110d6565b15611195575050845483546040805161118c9450926001600160a01b03169061115d9084611610565b601f83527f556e61626c6520746f2072657061792070726576696f757320626964646572006020840152611ab2565b5f8080806110be565b61119e92611a31565b61118c565b60405162461bcd60e51b815260206004820152601860248201527f42696420696e6372656d656e7420697320746f6f206c6f7700000000000000006044820152606490fd5b634e487b7160e01b8a52601160045260248afd5b60405162461bcd60e51b815260206004820152601f60248201527f426964206d757374206265206174206c656173742062617365207072696365006044820152606490fd5b349550611081565b60405162461bcd60e51b8152602060048201526011602482015270105d58dd1a5bdb881a185cc8195b991959607a1b6044820152606490fd5b50346101ad5760203660031901126101ad57604061014091600435815260086020522080549060018060a01b036001820154169060028101546003820154600483015460058401549060068501549260018060a01b036007870154169460018060a01b0360088801541696600960018060a01b039101541697604051998a5260208a015260408901526060880152608087015260a086015260c085015260e0840152610100830152610120820152f35b50346106d25760203660031901126106d257600435600454811015611449575f81815260076020526040902060058101546001600160a01b031633036114125760018060a01b0360068201541660048201546002830154823b156106d2576113b5925f9283604051809681958294637921219560e11b8452333060048601611646565b03925af18015611407576113f2575b506003839101557f61b9399f2f0f32ca39ce8d7be32caed5ec22fe07a6daba3a467ed479ec6065828280a280f35b600393505f61140091611610565b5f926113c4565b6040513d5f823e3d90fd5b60405162461bcd60e51b815260206004820152600f60248201526e2737ba103a37b5b2b71037bbb732b960891b6044820152606490fd5b60405162461bcd60e51b815260206004820152601060248201526f125b9d985b1a59081bdc99195c881a5960821b6044820152606490fd5b346106d25760403660031901126106d25761149a6115ce565b336001600160a01b038216036114b8576114b690600435611991565b005b63334bd91960e11b5f5260045ffd5b346106d25760403660031901126106d2576114b66004356114e66115ce565b906114ff6107c5825f525f602052600160405f20015490565b611909565b346106d2575f3660031901126106d2576020604051620f42408152f35b346106d2575f3660031901126106d2576002546040516001600160a01b039091168152602090f35b346106d25760203660031901126106d25760206115736004355f525f602052600160405f20015490565b604051908152f35b346106d25760203660031901126106d2576004359063ffffffff60e01b82168092036106d257602091637965db0b60e01b81149081156115bd575b5015158152f35b6301ffc9a760e01b149050836115b6565b602435906001600160a01b03821682036106d257565b600435906001600160a01b03821682036106d257565b60409060031901126106d2576004359060243590565b90601f8019910116810190811067ffffffffffffffff82111761163257604052565b634e487b7160e01b5f52604160045260245ffd5b6001600160a01b039182168152911660208201526040810191909152606081019190915260a0608082018190525f9082015260c00190565b1561168557565b60405162461bcd60e51b815260206004820152601760248201527f4f72646572206973206e6f7420616e2061756374696f6e0000000000000000006044820152606490fd5b156116d157565b60405162461bcd60e51b815260206004820152601d60248201527f416d6f756e74206d7573742062652067726561746572207468616e20300000006044820152606490fd5b908160209103126106d2575180151581036106d25790565b1561173557565b60405162461bcd60e51b815260206004820152601260248201527124b73b30b634b21031b7b63632b1ba34b7b760711b6044820152606490fd5b5f19811461177d5760010190565b634e487b7160e01b5f52601160045260245ffd5b8181029291811591840414171561177d57565b9190820391821161177d57565b908160209103126106d257516001600160a01b03811681036106d25790565b604051906117df604083611610565b601c82527f556e61626c6520746f20706179206665657320636f6c6c6563746f72000000006020830152565b6040519061181a606083611610565b60218252607360f81b6040837f556e61626c6520746f20706179207265636f726420636f6d70616e792066656560208201520152565b6040519061185f604083611610565b60148252732ab730b13632903a37903830bc9039b2b63632b960611b6020830152565b335f9081527fad3228b676f7d3cd4284a5443f17f1962b36e491b30a40b2405849e597ba5fb5602052604090205460ff16156118ba57565b63e2517d3f60e01b5f52336004525f60245260445ffd5b5f8181526020818152604080832033845290915290205460ff16156118f35750565b63e2517d3f60e01b5f523360045260245260445ffd5b5f818152602081815260408083206001600160a01b038616845290915290205460ff1661198b575f818152602081815260408083206001600160a01b0395909516808452949091528120805460ff19166001179055339291907f2f8788117e7eff1d82e926ec794901d17c78024a50270940304540a733656f0d9080a4600190565b50505f90565b5f818152602081815260408083206001600160a01b038616845290915290205460ff161561198b575f818152602081815260408083206001600160a01b0395909516808452949091528120805460ff19169055339291907ff6391f5c32d9c69d2a47ea670b442974b53935d1edc7fd64eb21e047a839171b9080a4600190565b600260015414611a22576002600155565b633ee5aeb560e01b5f5260045ffd5b60405163a9059cbb60e01b60208201526001600160a01b039092166024830152604480830193909352918152611a7191611a6c606483611610565b611b4e565b565b3d15611aad573d9067ffffffffffffffff82116116325760405191611aa2601f8201601f191660200184611610565b82523d5f602084013e565b606090565b5f80809381935af1611ac2611a73565b5015611acb5750565b604460209160405192839162461bcd60e51b83528160048401528051918291826024860152018484015e5f828201840152601f01601f19168101030190fd5b6040516323b872dd60e01b60208201526001600160a01b039283166024820152929091166044830152606480830193909352918152611a7191611a6c608483611610565b5f80611b769260018060a01b03169360208151910182865af1611b6f611a73565b9083611bb9565b8051908115159182611b9e575b5050611b8c5750565b635274afe760e01b5f5260045260245ffd5b611bb19250602080918301019101611716565b155f80611b83565b90611bdd5750805115611bce57805190602001fd5b630a12f52160e11b5f5260045ffd5b81511580611c0e575b611bee575090565b639996b31560e01b5f9081526001600160a01b0391909116600452602490fd5b50803b15611be656fea2646970667358221220f2d577970f62c5d97d1fdcc1dee6a93d0846480dbd0fda4b7215d5fc7a89761264736f6c634300081a0033ad3228b676f7d3cd4284a5443f17f1962b36e491b30a40b2405849e597ba5fb5","linkReferences":{}},"methodIdentifiers":{"DEFAULT_ADMIN_ROLE()":"a217fddf","PERCENT_DIVIDER()":"29fc7bd8","auctionCounter()":"a7e76644","auctions(uint256)":"571a26a0","bid(uint256,uint256)":"598647f8","buy(uint256,uint256)":"d6febde8","cancel(uint256)":"40e58ee5","createAuction(address,uint256,uint256,uint256,uint256,uint256,address)":"8237016b","createOrder(address,uint256,uint256,uint256,address)":"dbe11bb3","endAuction(uint256)":"b9a2de3a","getRoleAdmin(bytes32)":"248a9ca3","grantRole(bytes32,address)":"2f2ff15d","hasRole(bytes32,address)":"91d14854","isAuction(uint256)":"8704f2a3","mpFeesCollector()":"2554dda8","mpFeesPercentage()":"8c717291","nftFactory()":"d63843cd","onERC1155Received(address,address,uint256,uint256,bytes)":"f23a6e61","orderCounter()":"b789bf52","orders(uint256)":"a85c38ef","renounceRole(bytes32,address)":"36568abe","revokeRole(bytes32,address)":"d547741f","setMarketPlaceFee(uint256)":"c20925c9","setNFTFactory(address)":"cb2d93ce","setNewTreasury(address)":"8f9a372d","supportsInterface(bytes4)":"01ffc9a7"},"id":48}