{"abi":[{"type":"constructor","inputs":[{"name":"_nftFactory","type":"address","internalType":"address"},{"name":"_mpFeesCollector","type":"address","internalType":"address"},{"name":"_mpFeesPercentage","type":"uint256","internalType":"uint256"}],"stateMutability":"nonpayable"},{"type":"function","name":"DEFAULT_ADMIN_ROLE","inputs":[],"outputs":[{"name":"","type":"bytes32","internalType":"bytes32"}],"stateMutability":"view"},{"type":"function","name":"PERCENT_DIVIDER","inputs":[],"outputs":[{"name":"","type":"uint256","internalType":"uint256"}],"stateMutability":"view"},{"type":"function","name":"auctionCounter","inputs":[],"outputs":[{"name":"","type":"uint256","internalType":"uint256"}],"stateMutability":"view"},{"type":"function","name":"auctions","inputs":[{"name":"","type":"uint256","internalType":"uint256"}],"outputs":[{"name":"tokenId","type":"uint256","internalType":"uint256"},{"name":"paymentToken","type":"address","internalType":"address"},{"name":"basePrice","type":"uint256","internalType":"uint256"},{"name":"minIncrement","type":"uint256","internalType":"uint256"},{"name":"deadline","type":"uint256","internalType":"uint256"},{"name":"highestBid","type":"uint256","internalType":"uint256"},{"name":"amount","type":"uint256","internalType":"uint256"},{"name":"owner","type":"address","internalType":"address"},{"name":"collection","type":"address","internalType":"address"},{"name":"highestBidder","type":"address","internalType":"address"}],"stateMutability":"view"},{"type":"function","name":"bid","inputs":[{"name":"_auctionId","type":"uint256","internalType":"uint256"},{"name":"_amount","type":"uint256","internalType":"uint256"}],"outputs":[],"stateMutability":"payable"},{"type":"function","name":"buy","inputs":[{"name":"_orderId","type":"uint256","internalType":"uint256"},{"name":"_buyAmount","type":"uint256","internalType":"uint256"}],"outputs":[],"stateMutability":"payable"},{"type":"function","name":"cancel","inputs":[{"name":"_id","type":"uint256","internalType":"uint256"}],"outputs":[],"stateMutability":"nonpayable"},{"type":"function","name":"createAuction","inputs":[{"name":"_collection","type":"address","internalType":"address"},{"name":"_tokenId","type":"uint256","internalType":"uint256"},{"name":"_amount","type":"uint256","internalType":"uint256"},{"name":"_basePrice","type":"uint256","internalType":"uint256"},{"name":"_minIncrement","type":"uint256","internalType":"uint256"},{"name":"_deadline","type":"uint256","internalType":"uint256"},{"name":"_paymentToken","type":"address","internalType":"address"}],"outputs":[],"stateMutability":"nonpayable"},{"type":"function","name":"createOrder","inputs":[{"name":"_collection","type":"address","internalType":"address"},{"name":"_tokenId","type":"uint256","internalType":"uint256"},{"name":"_amount","type":"uint256","internalType":"uint256"},{"name":"_price","type":"uint256","internalType":"uint256"},{"name":"_paymentToken","type":"address","internalType":"address"}],"outputs":[],"stateMutability":"nonpayable"},{"type":"function","name":"endAuction","inputs":[{"name":"_auctionId","type":"uint256","internalType":"uint256"}],"outputs":[],"stateMutability":"nonpayable"},{"type":"function","name":"getAuctions","inputs":[{"name":"_start","type":"uint256","internalType":"uint256"},{"name":"_end","type":"uint256","internalType":"uint256"},{"name":"_owner","type":"address","internalType":"address"},{"name":"_bidder","type":"address","internalType":"address"}],"outputs":[{"name":"","type":"tuple[]","internalType":"struct Marketplace.Auction[]","components":[{"name":"tokenId","type":"uint256","internalType":"uint256"},{"name":"paymentToken","type":"address","internalType":"address"},{"name":"basePrice","type":"uint256","internalType":"uint256"},{"name":"minIncrement","type":"uint256","internalType":"uint256"},{"name":"deadline","type":"uint256","internalType":"uint256"},{"name":"highestBid","type":"uint256","internalType":"uint256"},{"name":"amount","type":"uint256","internalType":"uint256"},{"name":"owner","type":"address","internalType":"address"},{"name":"collection","type":"address","internalType":"address"},{"name":"highestBidder","type":"address","internalType":"address"}]},{"name":"","type":"uint256","internalType":"uint256"}],"stateMutability":"view"},{"type":"function","name":"getOrders","inputs":[{"name":"_start","type":"uint256","internalType":"uint256"},{"name":"_end","type":"uint256","internalType":"uint256"},{"name":"_owner","type":"address","internalType":"address"}],"outputs":[{"name":"","type":"tuple[]","internalType":"struct Marketplace.Order[]","components":[{"name":"paymentToken","type":"address","internalType":"address"},{"name":"price","type":"uint256","internalType":"uint256"},{"name":"amount","type":"uint256","internalType":"uint256"},{"name":"left","type":"uint256","internalType":"uint256"},{"name":"tokenId","type":"uint256","internalType":"uint256"},{"name":"owner","type":"address","internalType":"address"},{"name":"collection","type":"address","internalType":"address"}]},{"name":"","type":"uint256","internalType":"uint256"}],"stateMutability":"view"},{"type":"function","name":"getRoleAdmin","inputs":[{"name":"role","type":"bytes32","internalType":"bytes32"}],"outputs":[{"name":"","type":"bytes32","internalType":"bytes32"}],"stateMutability":"view"},{"type":"function","name":"grantRole","inputs":[{"name":"role","type":"bytes32","internalType":"bytes32"},{"name":"account","type":"address","internalType":"address"}],"outputs":[],"stateMutability":"nonpayable"},{"type":"function","name":"hasRole","inputs":[{"name":"role","type":"bytes32","internalType":"bytes32"},{"name":"account","type":"address","internalType":"address"}],"outputs":[{"name":"","type":"bool","internalType":"bool"}],"stateMutability":"view"},{"type":"function","name":"isAuction","inputs":[{"name":"","type":"uint256","internalType":"uint256"}],"outputs":[{"name":"","type":"bool","internalType":"bool"}],"stateMutability":"view"},{"type":"function","name":"mpFeesCollector","inputs":[],"outputs":[{"name":"","type":"address","internalType":"address"}],"stateMutability":"view"},{"type":"function","name":"mpFeesPercentage","inputs":[],"outputs":[{"name":"","type":"uint256","internalType":"uint256"}],"stateMutability":"view"},{"type":"function","name":"nftFactory","inputs":[],"outputs":[{"name":"","type":"address","internalType":"contract INFTFactory"}],"stateMutability":"view"},{"type":"function","name":"onERC1155Received","inputs":[{"name":"","type":"address","internalType":"address"},{"name":"","type":"address","internalType":"address"},{"name":"","type":"uint256","internalType":"uint256"},{"name":"","type":"uint256","internalType":"uint256"},{"name":"","type":"bytes","internalType":"bytes"}],"outputs":[{"name":"","type":"bytes4","internalType":"bytes4"}],"stateMutability":"pure"},{"type":"function","name":"orderCounter","inputs":[],"outputs":[{"name":"","type":"uint256","internalType":"uint256"}],"stateMutability":"view"},{"type":"function","name":"orders","inputs":[{"name":"","type":"uint256","internalType":"uint256"}],"outputs":[{"name":"paymentToken","type":"address","internalType":"address"},{"name":"price","type":"uint256","internalType":"uint256"},{"name":"amount","type":"uint256","internalType":"uint256"},{"name":"left","type":"uint256","internalType":"uint256"},{"name":"tokenId","type":"uint256","internalType":"uint256"},{"name":"owner","type":"address","internalType":"address"},{"name":"collection","type":"address","internalType":"address"}],"stateMutability":"view"},{"type":"function","name":"renounceRole","inputs":[{"name":"role","type":"bytes32","internalType":"bytes32"},{"name":"callerConfirmation","type":"address","internalType":"address"}],"outputs":[],"stateMutability":"nonpayable"},{"type":"function","name":"revokeRole","inputs":[{"name":"role","type":"bytes32","internalType":"bytes32"},{"name":"account","type":"address","internalType":"address"}],"outputs":[],"stateMutability":"nonpayable"},{"type":"function","name":"setMarketPlaceFee","inputs":[{"name":"_newMPFeesPercentage","type":"uint256","internalType":"uint256"}],"outputs":[],"stateMutability":"nonpayable"},{"type":"function","name":"setNFTFactory","inputs":[{"name":"_newFactory","type":"address","internalType":"address"}],"outputs":[],"stateMutability":"nonpayable"},{"type":"function","name":"setNewTreasury","inputs":[{"name":"_newMPFeesCollector","type":"address","internalType":"address"}],"outputs":[],"stateMutability":"nonpayable"},{"type":"function","name":"supportsInterface","inputs":[{"name":"interfaceId","type":"bytes4","internalType":"bytes4"}],"outputs":[{"name":"","type":"bool","internalType":"bool"}],"stateMutability":"view"},{"type":"event","name":"AuctionEnded","inputs":[{"name":"auctionId","type":"uint256","indexed":true,"internalType":"uint256"},{"name":"winner","type":"address","indexed":true,"internalType":"address"},{"name":"winningBid","type":"uint256","indexed":false,"internalType":"uint256"}],"anonymous":false},{"type":"event","name":"NewAuction","inputs":[{"name":"auctionId","type":"uint256","indexed":true,"internalType":"uint256"},{"name":"basePrice","type":"uint256","indexed":false,"internalType":"uint256"},{"name":"minIncrement","type":"uint256","indexed":false,"internalType":"uint256"},{"name":"deadline","type":"uint256","indexed":false,"internalType":"uint256"}],"anonymous":false},{"type":"event","name":"NewBid","inputs":[{"name":"auctionId","type":"uint256","indexed":true,"internalType":"uint256"},{"name":"bidder","type":"address","indexed":true,"internalType":"address"},{"name":"bidAmount","type":"uint256","indexed":false,"internalType":"uint256"}],"anonymous":false},{"type":"event","name":"NewMPFees","inputs":[{"name":"_newMPFees","type":"uint256","indexed":true,"internalType":"uint256"}],"anonymous":false},{"type":"event","name":"NewOrder","inputs":[{"name":"orderId","type":"uint256","indexed":true,"internalType":"uint256"},{"name":"collection","type":"address","indexed":true,"internalType":"address"},{"name":"tokenId","type":"uint256","indexed":true,"internalType":"uint256"},{"name":"amount","type":"uint256","indexed":false,"internalType":"uint256"},{"name":"price","type":"uint256","indexed":false,"internalType":"uint256"},{"name":"owner","type":"address","indexed":false,"internalType":"address"}],"anonymous":false},{"type":"event","name":"OrderCancelled","inputs":[{"name":"orderId","type":"uint256","indexed":true,"internalType":"uint256"}],"anonymous":false},{"type":"event","name":"OrderFilled","inputs":[{"name":"orderId","type":"uint256","indexed":true,"internalType":"uint256"},{"name":"buyer","type":"address","indexed":true,"internalType":"address"},{"name":"amount","type":"uint256","indexed":false,"internalType":"uint256"}],"anonymous":false},{"type":"event","name":"PaymentTokenAdded","inputs":[{"name":"token","type":"address","indexed":true,"internalType":"address"}],"anonymous":false},{"type":"event","name":"PaymentTokenRemoved","inputs":[{"name":"token","type":"address","indexed":true,"internalType":"address"}],"anonymous":false},{"type":"event","name":"RoleAdminChanged","inputs":[{"name":"role","type":"bytes32","indexed":true,"internalType":"bytes32"},{"name":"previousAdminRole","type":"bytes32","indexed":true,"internalType":"bytes32"},{"name":"newAdminRole","type":"bytes32","indexed":true,"internalType":"bytes32"}],"anonymous":false},{"type":"event","name":"RoleGranted","inputs":[{"name":"role","type":"bytes32","indexed":true,"internalType":"bytes32"},{"name":"account","type":"address","indexed":true,"internalType":"address"},{"name":"sender","type":"address","indexed":true,"internalType":"address"}],"anonymous":false},{"type":"event","name":"RoleRevoked","inputs":[{"name":"role","type":"bytes32","indexed":true,"internalType":"bytes32"},{"name":"account","type":"address","indexed":true,"internalType":"address"},{"name":"sender","type":"address","indexed":true,"internalType":"address"}],"anonymous":false},{"type":"error","name":"AccessControlBadConfirmation","inputs":[]},{"type":"error","name":"AccessControlUnauthorizedAccount","inputs":[{"name":"account","type":"address","internalType":"address"},{"name":"neededRole","type":"bytes32","internalType":"bytes32"}]},{"type":"error","name":"AddressEmptyCode","inputs":[{"name":"target","type":"address","internalType":"address"}]},{"type":"error","name":"AddressInsufficientBalance","inputs":[{"name":"account","type":"address","internalType":"address"}]},{"type":"error","name":"FailedInnerCall","inputs":[]},{"type":"error","name":"ReentrancyGuardReentrantCall","inputs":[]},{"type":"error","name":"SafeERC20FailedOperation","inputs":[{"name":"token","type":"address","internalType":"address"}]}],"bytecode":{"object":"0x6080346100a857601f6123ed38819003918201601f19168301916001600160401b038311848410176100ac578084926060946040528339810103126100a857610047816100c0565b906040610056602083016100c0565b91015160018055600680546001600160a01b039485166001600160a01b03199182161790915560028054949093169316929092179055600355610098336100d4565b5060405161226f908161015e8239f35b5f80fd5b634e487b7160e01b5f52604160045260245ffd5b51906001600160a01b03821682036100a857565b6001600160a01b0381165f9081525f805160206123cd833981519152602052604090205460ff16610158576001600160a01b03165f8181525f805160206123cd83398151915260205260408120805460ff191660011790553391907f2f8788117e7eff1d82e926ec794901d17c78024a50270940304540a733656f0d8180a4600190565b505f9056fe6080806040526004361015610012575f80fd5b5f905f3560e01c90816301ffc9a714611a8857508063248a9ca314611a565780632554dda814611a2e57806329fc7bd814611a115780632f2ff15d146119d457806336568abe1461198e57806340e58ee51461183f578063571a26a01461178f578063598647f814611532578063815b5a64146113085780638237016b146110c25780638704f2a3146110935780638c717291146110755780638f9a372d1461103557806391d1485414610fec578063a217fddf14610fd0578063a7e7664414610fb2578063a85c38ef14610f2d578063b789bf5214610f0f578063b9a2de3a14610b7a578063c20925c914610af3578063c21b27a214610829578063cb2d93ce146107e9578063d547741f146107a2578063d63843cd14610779578063d6febde8146103b4578063dbe11bb3146101ce5763f23a6e6114610152575f80fd5b346101c35760a03660031901126101c35761016b611b07565b50610174611adb565b5060843567ffffffffffffffff81116101ca57366023820112156101ca57806004013567ffffffffffffffff81116101c657369101602401116101c35760405163f23a6e6160e01b8152602090f35b80fd5b8280fd5b5080fd5b50346101c35760a03660031901126101c3576101e8611b07565b6084359060443590602435906064356001600160a01b038516850361036b57610212841515611d1b565b6006546040516319afa63b60e11b81526001600160a01b0393841660048201819052939091602091839160249183918c91165af180156103a95761025d91889161037a575b50611d7f565b813b1561036b57604051637921219560e11b815286908181806102868989303360048601611ba2565b038183885af1801561036f57610356575b50508360036103509660045489526007602052604089209060018060a01b03166001600160601b0360a01b8254161781558360018201558260028201558560048201556005810160018060a01b0333166001600160601b0360a01b82541617905560068101856001600160601b0360a01b82541617905501557fda48d1d468794cea4155aceb51a52f16b0c495ed6a5fbe3283972f05d95c823f60606004549586936040519182526020820152336040820152a4611d0d565b60045580f35b8161036091611b80565b61036b57855f610297565b8580fd5b6040513d84823e3d90fd5b61039c915060203d6020116103a2575b6103948183611b80565b810190611d67565b5f610257565b503d61038a565b6040513d89823e3d90fd5b506103be36611b1d565b906103c7612033565b8083526007602052604083208215610744576003810190815484116106ff57600681019060018060a01b03825416610403866001840154611dc0565b92620f424061041460035486611dc0565b049360405163011e8d6960e21b81526020816004818d885af19081156106f4578a916106bc575b5061044a620f42409183611dc0565b049061045f8261045a8884611cac565b611cac565b85549091908b906001600160a01b03168061060d57505034106105d3576002548a96879560209290916104a4916001600160a01b03169061049e611df2565b916120d4565b6004604051809781936361d027b360e01b83525af19384156105c8576004946104f2936104db928992610597575b5061049e611e2d565b60058501546001600160a01b03169061049e611e72565b54910154906001600160a01b0316803b156101c65785839161052d9383604051809681958294637921219560e11b8452333060048601611ba2565b03925af1801561036f5761057e575b5050610549838254611cac565b90556040519182527f1e7abafb1a786c4e6394b5c494f50a97e3802ff2ce462eca4fe6a2dd4e1f92e860203393a36001805580f35b8161058891611b80565b61059357835f61053c565b8380fd5b6105ba91925060203d6020116105c1575b6105b28183611b80565b810190611dd3565b905f6104d2565b503d6105a8565b6040513d88823e3d90fd5b60405162461bcd60e51b8152602060048201526012602482015271496e73756666696369656e742066756e647360701b6044820152606490fd5b61063b92610624919992999795973090339061212c565b86546002546001600160a01b039081169116612053565b85602060018060a01b03875416936004604051809481936361d027b360e01b83525af19485156103a9576004956106969461067d938a9261069b575b50612053565b845460058601546001600160a01b039081169116612053565b6104f2565b6106b591925060203d6020116105c1576105b28183611b80565b905f610677565b90506020813d6020116106ec575b816106d760209383611b80565b810103126106e8575161044a61043b565b5f80fd5b3d91506106ca565b6040513d8c823e3d90fd5b60405162461bcd60e51b815260206004820152601860248201527f4e6f7420656e6f75676820746f6b656e7320746f2062757900000000000000006044820152606490fd5b60405162461bcd60e51b815260206004820152600d60248201526c125b9d985b1a48185b5bdd5b9d609a1b6044820152606490fd5b50346101c357806003193601126101c3576006546040516001600160a01b039091168152602090f35b50346101c35760403660031901126101c3576107e56004356107c2611adb565b906107e06107db825f525f602052600160405f20015490565b611ef3565b611fb3565b5080f35b50346101c35760203660031901126101c357610803611b07565b61080b611ea4565b60018060a01b03166001600160601b0360a01b600654161760065580f35b50346101c35760803660031901126101c357602435600435610849611af1565b6064356001600160a01b03811690819003610aef5761086f600594929454831115611c26565b61087a828410611c60565b84936108868484611cac565b9361089085611ccd565b9461089e6040519687611b80565b8086526108ad601f1991611ccd565b01875b818110610a945750506001600160a01b039091169182158015925b85811061099357888888604051916040830193604084528251809552602060608501930190945b80861061090757505082935060208301520390f35b8151805185526020818101516001600160a01b039081168288015260408084015190880152606080840151908801526080808401519088015260a0808401519088015260c0808401519088015260e080840151821690880152610100808401518216908801526101209283015116918601919091526001969096019561014090940193909101906108f2565b80895260086020526040892084604051916109ad83611b63565b8054835260018101546001600160a01b039081166020850152600282015460408501526003820154606085015260048201546080850152600582015460a0850152600682015460c08501526007820154811660e0850181905260088301548216610100860152600990920154166101208401819052859290918991610a8a575b505081610a6e575b50610a44575b506001016108cb565b88610a6791610a566001949b8b611ce5565b52610a61818a611ce5565b50611d0d565b9790610a3b565b851591508115610a80575b505f610a35565b905084145f610a79565b149150875f610a2d565b602090604096949651610aa681611b63565b8a81528a838201528a60408201528a60608201528a60808201528a60a08201528a60c08201528a60e08201528a6101008201528a61012082015282828a010152019492946108b0565b8480fd5b50346101c35760203660031901126101c357600435610b10611ea4565b620f42408111610b4557806003557fd5af243a680d416ec0ded4cb5fd54058051276938f03d5822332c896d808f5c58280a280f35b60405162461bcd60e51b815260206004820152600d60248201526c466565206f766572203130302560981b6044820152606490fd5b50346101c35760203660031901126101c357600435610b97612033565b8082526009602052610baf60ff604084205416611bda565b8082526008602052604082209060048201544210610eca57600582018054600284015491939111610e2d57836008820160018060a01b038154168554620f4240610bfb60035483611dc0565b60405163011e8d6960e21b81529190049160208260048189885af19182156105c8578692610df5575b50610c348692620f424092611dc0565b0492610c458461045a858c54611cac565b6001880180549194916001600160a01b031680610d8257505060025460209291610c7b916001600160a01b03169061049e611df2565b6004604051809481936361d027b360e01b83525af18015610d7757610cc493610cad928792610597575061049e611e2d565b60078501546001600160a01b03169061049e611e72565b5460098301548354600685015490926001600160a01b039283169216803b15610aef57610d0c9385809460405196879586948593637921219560e11b85523060048601611ba2565b03925af1801561036f57610d62575b505060207fd2aa34a4fdbbc6dff6a3e56f46e0f3ae2a31d7785ff3487aa5c95c642acea501915b6009015493546040519081526001600160a01b0390941693a36001805580f35b81610d6c91611b80565b61059357835f610d1b565b6040513d87823e3d90fd5b91610d9c919493969260018060a01b036002541690612053565b602060018060a01b03845416956004604051809581936361d027b360e01b83525af180156103a957610df095610dd893899261069b5750612053565b5460078601546001600160a01b039081169116612053565b610cc4565b915094506020813d602011610e25575b81610e1260209383611b80565b810103126106e857518894610c34610c24565b3d9150610e05565b6008810154600782015482546006840154879391926001600160a01b039081169216803b15610aef57610e7b9385809460405196879586948593637921219560e11b85523060048601611ba2565b03925af1801561036f57610eb5575b505060207fd2aa34a4fdbbc6dff6a3e56f46e0f3ae2a31d7785ff3487aa5c95c642acea50191610d42565b81610ebf91611b80565b61059357835f610e8a565b60405162461bcd60e51b815260206004820152601860248201527f41756374696f6e206973207374696c6c206f6e676f696e6700000000000000006044820152606490fd5b50346101c357806003193601126101c3576020600454604051908152f35b50346101c35760203660031901126101c357604060e091600435815260076020522060018060a01b03815416906001810154906002810154600382015460048301549160018060a01b0360058501541693600660018060a01b039101541694604051968752602087015260408601526060850152608084015260a083015260c0820152f35b50346101c357806003193601126101c3576020600554604051908152f35b50346101c357806003193601126101c357602090604051908152f35b50346101c35760403660031901126101c3576040611008611adb565b91600435815280602052209060018060a01b03165f52602052602060ff60405f2054166040519015158152f35b50346101c35760203660031901126101c35761104f611b07565b611057611ea4565b60018060a01b03166001600160601b0360a01b600254161760025580f35b50346101c357806003193601126101c3576020600354604051908152f35b50346101c35760203660031901126101c35760ff60406020926004358152600984522054166040519015158152f35b50346101c35760e03660031901126101c3576110dc611b07565b6064359060a43590608435906024359060c435906044356001600160a01b03831683036112b45761110e811515611d1b565b428611156112c3576006546040516319afa63b60e11b81526001600160a01b0393841660048201819052939091602091839160249183918e91165af180156112b857611160918a9161037a5750611d7f565b813b156112b457604051637921219560e11b81528890818180611189868a303360048601611ba2565b038183885af1801561036f57611295575b50509260609261128f97927fa3e9c29f3df21edd1eb86fe6ed70e85cf557539b86a3e94e33ce37dbe3026ca3956005548b52600860205260408b2092600184019060018060a01b03166001600160601b0360a01b8254161790558460028401558760038401558860048401558a600584015560068301556007820160018060a01b0333166001600160601b0360a01b82541617905560088201906001600160601b0360a01b825416179055600981016001600160601b0360a01b8154169055556005548752600960205260408720600160ff1982541617905560055494859460405192835260208301526040820152a2611d0d565b60055580f35b816112a591999496939599611b80565b6112b45792909591875f61119a565b8780fd5b6040513d8b823e3d90fd5b60405162461bcd60e51b815260206004820152601e60248201527f446561646c696e65206d75737420626520696e207468652066757475726500006044820152606490fd5b50346101c35760603660031901126101c357602435600435611328611af1565b91611337600454821115611c26565b611342818310611c60565b839261134e8383611cac565b9261135884611ccd565b936113666040519586611b80565b808552611375601f1991611ccd565b01865b8181106114eb5750506001600160a01b03909116801591821591905b84811061143a57878787604051916040830193604084528251809552602060608501930190945b8086106113d057505082935060208301520390f35b9092602060e06001928651848060a01b0381511682528381015184830152604081015160408301526060810151606083015260808101516080830152848060a01b0360a08201511660a083015260c0858060a01b039101511660c0820152019401950194906113bb565b80885260076020526040882083836040519261145584611b33565b80546001600160a01b039081168552600182015460208601526002820154604086015260038201546060860152600482015460808601526005820154811660a086018190526006909201541660c085015287926114e1575b50506114bd575b50600101611394565b876114da916114cf6001949a8a611ce5565b52610a618189611ce5565b96906114b4565b149050835f6114ad565b6020906040959495516114fd81611b33565b89815289838201528960408201528960608201528960808201528960a08201528960c082015282828901015201939293611378565b5061153c36611b1d565b611544612033565b90808352600960205261155d60ff604085205416611bda565b8083526008602052604083206004810154421015611756576001810180546001600160a01b0316801592918361174e575b600283015486106117095760058301918254600385015481018082116116f55788106116b05760098895019560018060a01b038754169081611641575b505091546001600160a01b031691508390508161162d575b50505580546001600160a01b03191633908117909155604051928352917f558a0d5d5468d74b0db24c74eb348b42271c2ebb4c9e953ced38aaed95fa436190602090a36001805580f35b61163a913090339061212c565b5f826115e3565b156116a257505084548354604080516116999450926001600160a01b03169061166a9084611b80565b601f83527f556e61626c6520746f2072657061792070726576696f7573206269646465720060208401526120d4565b5f8080806115cb565b6116ab92612053565b611699565b60405162461bcd60e51b815260206004820152601860248201527f42696420696e6372656d656e7420697320746f6f206c6f7700000000000000006044820152606490fd5b634e487b7160e01b8a52601160045260248afd5b60405162461bcd60e51b815260206004820152601f60248201527f426964206d757374206265206174206c656173742062617365207072696365006044820152606490fd5b34955061158e565b60405162461bcd60e51b8152602060048201526011602482015270105d58dd1a5bdb881a185cc8195b991959607a1b6044820152606490fd5b50346101c35760203660031901126101c357604061014091600435815260086020522080549060018060a01b036001820154169060028101546003820154600483015460058401549060068501549260018060a01b036007870154169460018060a01b0360088801541696600960018060a01b039101541697604051998a5260208a015260408901526060880152608087015260a086015260c085015260e0840152610100830152610120820152f35b50346106e85760203660031901126106e857600435600454811015611956575f81815260076020526040902060058101546001600160a01b0316330361191f5760018060a01b0360068201541660048201546002830154823b156106e8576118c2925f9283604051809681958294637921219560e11b8452333060048601611ba2565b03925af18015611914576118ff575b506003839101557f61b9399f2f0f32ca39ce8d7be32caed5ec22fe07a6daba3a467ed479ec6065828280a280f35b600393505f61190d91611b80565b5f926118d1565b6040513d5f823e3d90fd5b60405162461bcd60e51b815260206004820152600f60248201526e2737ba103a37b5b2b71037bbb732b960891b6044820152606490fd5b60405162461bcd60e51b815260206004820152601060248201526f125b9d985b1a59081bdc99195c881a5960821b6044820152606490fd5b346106e85760403660031901126106e8576119a7611adb565b336001600160a01b038216036119c5576119c390600435611fb3565b005b63334bd91960e11b5f5260045ffd5b346106e85760403660031901126106e8576119c36004356119f3611adb565b90611a0c6107db825f525f602052600160405f20015490565b611f2b565b346106e8575f3660031901126106e8576020604051620f42408152f35b346106e8575f3660031901126106e8576002546040516001600160a01b039091168152602090f35b346106e85760203660031901126106e8576020611a806004355f525f602052600160405f20015490565b604051908152f35b346106e85760203660031901126106e8576004359063ffffffff60e01b82168092036106e857602091637965db0b60e01b8114908115611aca575b5015158152f35b6301ffc9a760e01b14905083611ac3565b602435906001600160a01b03821682036106e857565b604435906001600160a01b03821682036106e857565b600435906001600160a01b03821682036106e857565b60409060031901126106e8576004359060243590565b60e0810190811067ffffffffffffffff821117611b4f57604052565b634e487b7160e01b5f52604160045260245ffd5b610140810190811067ffffffffffffffff821117611b4f57604052565b90601f8019910116810190811067ffffffffffffffff821117611b4f57604052565b6001600160a01b039182168152911660208201526040810191909152606081019190915260a0608082018190525f9082015260c00190565b15611be157565b60405162461bcd60e51b815260206004820152601760248201527f4f72646572206973206e6f7420616e2061756374696f6e0000000000000000006044820152606490fd5b15611c2d57565b60405162461bcd60e51b815260206004820152600b60248201526a125b9d985b1a5908195b9960aa1b6044820152606490fd5b15611c6757565b60405162461bcd60e51b815260206004820152601e60248201527f5374617274206d75737420626520736d616c6c6572207468616e20656e6400006044820152606490fd5b91908203918211611cb957565b634e487b7160e01b5f52601160045260245ffd5b67ffffffffffffffff8111611b4f5760051b60200190565b8051821015611cf95760209160051b010190565b634e487b7160e01b5f52603260045260245ffd5b5f198114611cb95760010190565b15611d2257565b60405162461bcd60e51b815260206004820152601d60248201527f416d6f756e74206d7573742062652067726561746572207468616e20300000006044820152606490fd5b908160209103126106e8575180151581036106e85790565b15611d8657565b60405162461bcd60e51b815260206004820152601260248201527124b73b30b634b21031b7b63632b1ba34b7b760711b6044820152606490fd5b81810292918115918404141715611cb957565b908160209103126106e857516001600160a01b03811681036106e85790565b60405190611e01604083611b80565b601c82527f556e61626c6520746f20706179206665657320636f6c6c6563746f72000000006020830152565b60405190611e3c606083611b80565b60218252607360f81b6040837f556e61626c6520746f20706179207265636f726420636f6d70616e792066656560208201520152565b60405190611e81604083611b80565b60148252732ab730b13632903a37903830bc9039b2b63632b960611b6020830152565b335f9081527fad3228b676f7d3cd4284a5443f17f1962b36e491b30a40b2405849e597ba5fb5602052604090205460ff1615611edc57565b63e2517d3f60e01b5f52336004525f60245260445ffd5b5f8181526020818152604080832033845290915290205460ff1615611f155750565b63e2517d3f60e01b5f523360045260245260445ffd5b5f818152602081815260408083206001600160a01b038616845290915290205460ff16611fad575f818152602081815260408083206001600160a01b0395909516808452949091528120805460ff19166001179055339291907f2f8788117e7eff1d82e926ec794901d17c78024a50270940304540a733656f0d9080a4600190565b50505f90565b5f818152602081815260408083206001600160a01b038616845290915290205460ff1615611fad575f818152602081815260408083206001600160a01b0395909516808452949091528120805460ff19169055339291907ff6391f5c32d9c69d2a47ea670b442974b53935d1edc7fd64eb21e047a839171b9080a4600190565b600260015414612044576002600155565b633ee5aeb560e01b5f5260045ffd5b60405163a9059cbb60e01b60208201526001600160a01b0390921660248301526044808301939093529181526120939161208e606483611b80565b612170565b565b3d156120cf573d9067ffffffffffffffff8211611b4f57604051916120c4601f8201601f191660200184611b80565b82523d5f602084013e565b606090565b5f80809381935af16120e4612095565b50156120ed5750565b604460209160405192839162461bcd60e51b83528160048401528051918291826024860152018484015e5f828201840152601f01601f19168101030190fd5b6040516323b872dd60e01b60208201526001600160a01b0392831660248201529290911660448301526064808301939093529181526120939161208e608483611b80565b5f806121989260018060a01b03169360208151910182865af1612191612095565b90836121db565b80519081151591826121c0575b50506121ae5750565b635274afe760e01b5f5260045260245ffd5b6121d39250602080918301019101611d67565b155f806121a5565b906121ff57508051156121f057805190602001fd5b630a12f52160e11b5f5260045ffd5b81511580612230575b612210575090565b639996b31560e01b5f9081526001600160a01b0391909116600452602490fd5b50803b1561220856fea26469706673582212202e238f559237c4216dbeab65d23007fe6d3aecebbeec6b0a1ca96fb630e1b3e064736f6c634300081a0033ad3228b676f7d3cd4284a5443f17f1962b36e491b30a40b2405849e597ba5fb5","linkReferences":{}},"methodIdentifiers":{"DEFAULT_ADMIN_ROLE()":"a217fddf","PERCENT_DIVIDER()":"29fc7bd8","auctionCounter()":"a7e76644","auctions(uint256)":"571a26a0","bid(uint256,uint256)":"598647f8","buy(uint256,uint256)":"d6febde8","cancel(uint256)":"40e58ee5","createAuction(address,uint256,uint256,uint256,uint256,uint256,address)":"8237016b","createOrder(address,uint256,uint256,uint256,address)":"dbe11bb3","endAuction(uint256)":"b9a2de3a","getAuctions(uint256,uint256,address,address)":"c21b27a2","getOrders(uint256,uint256,address)":"815b5a64","getRoleAdmin(bytes32)":"248a9ca3","grantRole(bytes32,address)":"2f2ff15d","hasRole(bytes32,address)":"91d14854","isAuction(uint256)":"8704f2a3","mpFeesCollector()":"2554dda8","mpFeesPercentage()":"8c717291","nftFactory()":"d63843cd","onERC1155Received(address,address,uint256,uint256,bytes)":"f23a6e61","orderCounter()":"b789bf52","orders(uint256)":"a85c38ef","renounceRole(bytes32,address)":"36568abe","revokeRole(bytes32,address)":"d547741f","setMarketPlaceFee(uint256)":"c20925c9","setNFTFactory(address)":"cb2d93ce","setNewTreasury(address)":"8f9a372d","supportsInterface(bytes4)":"01ffc9a7"},"id":46}