{"abi":[{"type":"constructor","inputs":[{"name":"_nftFactory","type":"address","internalType":"address"},{"name":"_mpFeesCollector","type":"address","internalType":"address"},{"name":"_mpFeesPercentage","type":"uint256","internalType":"uint256"}],"stateMutability":"nonpayable"},{"type":"function","name":"DEFAULT_ADMIN_ROLE","inputs":[],"outputs":[{"name":"","type":"bytes32","internalType":"bytes32"}],"stateMutability":"view"},{"type":"function","name":"PERCENT_DIVIDER","inputs":[],"outputs":[{"name":"","type":"uint256","internalType":"uint256"}],"stateMutability":"view"},{"type":"function","name":"auctionCounter","inputs":[],"outputs":[{"name":"","type":"uint256","internalType":"uint256"}],"stateMutability":"view"},{"type":"function","name":"auctions","inputs":[{"name":"","type":"uint256","internalType":"uint256"}],"outputs":[{"name":"auctionId","type":"uint256","internalType":"uint256"},{"name":"paymentToken","type":"address","internalType":"address"},{"name":"basePrice","type":"uint256","internalType":"uint256"},{"name":"minIncrement","type":"uint256","internalType":"uint256"},{"name":"deadline","type":"uint256","internalType":"uint256"},{"name":"highestBid","type":"uint256","internalType":"uint256"},{"name":"amount","type":"uint256","internalType":"uint256"},{"name":"owner","type":"address","internalType":"address"},{"name":"collection","type":"address","internalType":"address"},{"name":"highestBidder","type":"address","internalType":"address"}],"stateMutability":"view"},{"type":"function","name":"bid","inputs":[{"name":"_auctionId","type":"uint256","internalType":"uint256"},{"name":"_amount","type":"uint256","internalType":"uint256"}],"outputs":[],"stateMutability":"payable"},{"type":"function","name":"buy","inputs":[{"name":"_orderId","type":"uint256","internalType":"uint256"},{"name":"_buyAmount","type":"uint256","internalType":"uint256"}],"outputs":[],"stateMutability":"payable"},{"type":"function","name":"cancel","inputs":[{"name":"_id","type":"uint256","internalType":"uint256"}],"outputs":[],"stateMutability":"nonpayable"},{"type":"function","name":"createAuction","inputs":[{"name":"_collection","type":"address","internalType":"address"},{"name":"_tokenId","type":"uint256","internalType":"uint256"},{"name":"_amount","type":"uint256","internalType":"uint256"},{"name":"_basePrice","type":"uint256","internalType":"uint256"},{"name":"_minIncrement","type":"uint256","internalType":"uint256"},{"name":"_deadline","type":"uint256","internalType":"uint256"},{"name":"_paymentToken","type":"address","internalType":"address"}],"outputs":[],"stateMutability":"nonpayable"},{"type":"function","name":"createOrder","inputs":[{"name":"_collection","type":"address","internalType":"address"},{"name":"_tokenId","type":"uint256","internalType":"uint256"},{"name":"_amount","type":"uint256","internalType":"uint256"},{"name":"_price","type":"uint256","internalType":"uint256"},{"name":"_paymentToken","type":"address","internalType":"address"}],"outputs":[],"stateMutability":"nonpayable"},{"type":"function","name":"endAuction","inputs":[{"name":"_auctionId","type":"uint256","internalType":"uint256"}],"outputs":[],"stateMutability":"nonpayable"},{"type":"function","name":"getOrders","inputs":[{"name":"_start","type":"uint256","internalType":"uint256"},{"name":"_end","type":"uint256","internalType":"uint256"},{"name":"_owner","type":"address","internalType":"address"}],"outputs":[{"name":"","type":"tuple[]","internalType":"struct Marketplace.Order[]","components":[{"name":"paymentToken","type":"address","internalType":"address"},{"name":"price","type":"uint256","internalType":"uint256"},{"name":"amount","type":"uint256","internalType":"uint256"},{"name":"left","type":"uint256","internalType":"uint256"},{"name":"tokenId","type":"uint256","internalType":"uint256"},{"name":"owner","type":"address","internalType":"address"},{"name":"collection","type":"address","internalType":"address"}]}],"stateMutability":"view"},{"type":"function","name":"getRoleAdmin","inputs":[{"name":"role","type":"bytes32","internalType":"bytes32"}],"outputs":[{"name":"","type":"bytes32","internalType":"bytes32"}],"stateMutability":"view"},{"type":"function","name":"grantRole","inputs":[{"name":"role","type":"bytes32","internalType":"bytes32"},{"name":"account","type":"address","internalType":"address"}],"outputs":[],"stateMutability":"nonpayable"},{"type":"function","name":"hasRole","inputs":[{"name":"role","type":"bytes32","internalType":"bytes32"},{"name":"account","type":"address","internalType":"address"}],"outputs":[{"name":"","type":"bool","internalType":"bool"}],"stateMutability":"view"},{"type":"function","name":"isAuction","inputs":[{"name":"","type":"uint256","internalType":"uint256"}],"outputs":[{"name":"","type":"bool","internalType":"bool"}],"stateMutability":"view"},{"type":"function","name":"mpFeesCollector","inputs":[],"outputs":[{"name":"","type":"address","internalType":"address"}],"stateMutability":"view"},{"type":"function","name":"mpFeesPercentage","inputs":[],"outputs":[{"name":"","type":"uint256","internalType":"uint256"}],"stateMutability":"view"},{"type":"function","name":"nftFactory","inputs":[],"outputs":[{"name":"","type":"address","internalType":"contract INFTFactory"}],"stateMutability":"view"},{"type":"function","name":"onERC1155Received","inputs":[{"name":"","type":"address","internalType":"address"},{"name":"","type":"address","internalType":"address"},{"name":"","type":"uint256","internalType":"uint256"},{"name":"","type":"uint256","internalType":"uint256"},{"name":"","type":"bytes","internalType":"bytes"}],"outputs":[{"name":"","type":"bytes4","internalType":"bytes4"}],"stateMutability":"pure"},{"type":"function","name":"orderCounter","inputs":[],"outputs":[{"name":"","type":"uint256","internalType":"uint256"}],"stateMutability":"view"},{"type":"function","name":"orders","inputs":[{"name":"","type":"uint256","internalType":"uint256"}],"outputs":[{"name":"paymentToken","type":"address","internalType":"address"},{"name":"price","type":"uint256","internalType":"uint256"},{"name":"amount","type":"uint256","internalType":"uint256"},{"name":"left","type":"uint256","internalType":"uint256"},{"name":"tokenId","type":"uint256","internalType":"uint256"},{"name":"owner","type":"address","internalType":"address"},{"name":"collection","type":"address","internalType":"address"}],"stateMutability":"view"},{"type":"function","name":"renounceRole","inputs":[{"name":"role","type":"bytes32","internalType":"bytes32"},{"name":"callerConfirmation","type":"address","internalType":"address"}],"outputs":[],"stateMutability":"nonpayable"},{"type":"function","name":"revokeRole","inputs":[{"name":"role","type":"bytes32","internalType":"bytes32"},{"name":"account","type":"address","internalType":"address"}],"outputs":[],"stateMutability":"nonpayable"},{"type":"function","name":"setMarketPlaceFee","inputs":[{"name":"_newMPFeesPercentage","type":"uint256","internalType":"uint256"}],"outputs":[],"stateMutability":"nonpayable"},{"type":"function","name":"setNFTFactory","inputs":[{"name":"_newFactory","type":"address","internalType":"address"}],"outputs":[],"stateMutability":"nonpayable"},{"type":"function","name":"setNewTreasury","inputs":[{"name":"_newMPFeesCollector","type":"address","internalType":"address"}],"outputs":[],"stateMutability":"nonpayable"},{"type":"function","name":"supportsInterface","inputs":[{"name":"interfaceId","type":"bytes4","internalType":"bytes4"}],"outputs":[{"name":"","type":"bool","internalType":"bool"}],"stateMutability":"view"},{"type":"event","name":"AuctionEnded","inputs":[{"name":"auctionId","type":"uint256","indexed":true,"internalType":"uint256"},{"name":"winner","type":"address","indexed":true,"internalType":"address"},{"name":"winningBid","type":"uint256","indexed":false,"internalType":"uint256"}],"anonymous":false},{"type":"event","name":"NewAuction","inputs":[{"name":"auctionId","type":"uint256","indexed":true,"internalType":"uint256"},{"name":"basePrice","type":"uint256","indexed":false,"internalType":"uint256"},{"name":"minIncrement","type":"uint256","indexed":false,"internalType":"uint256"},{"name":"deadline","type":"uint256","indexed":false,"internalType":"uint256"}],"anonymous":false},{"type":"event","name":"NewBid","inputs":[{"name":"auctionId","type":"uint256","indexed":true,"internalType":"uint256"},{"name":"bidder","type":"address","indexed":true,"internalType":"address"},{"name":"bidAmount","type":"uint256","indexed":false,"internalType":"uint256"}],"anonymous":false},{"type":"event","name":"NewMPFees","inputs":[{"name":"_newMPFees","type":"uint256","indexed":true,"internalType":"uint256"}],"anonymous":false},{"type":"event","name":"NewOrder","inputs":[{"name":"orderId","type":"uint256","indexed":true,"internalType":"uint256"},{"name":"collection","type":"address","indexed":true,"internalType":"address"},{"name":"tokenId","type":"uint256","indexed":true,"internalType":"uint256"},{"name":"amount","type":"uint256","indexed":false,"internalType":"uint256"},{"name":"price","type":"uint256","indexed":false,"internalType":"uint256"},{"name":"owner","type":"address","indexed":false,"internalType":"address"}],"anonymous":false},{"type":"event","name":"OrderCancelled","inputs":[{"name":"orderId","type":"uint256","indexed":true,"internalType":"uint256"}],"anonymous":false},{"type":"event","name":"OrderFilled","inputs":[{"name":"orderId","type":"uint256","indexed":true,"internalType":"uint256"},{"name":"buyer","type":"address","indexed":true,"internalType":"address"},{"name":"amount","type":"uint256","indexed":false,"internalType":"uint256"}],"anonymous":false},{"type":"event","name":"PaymentTokenAdded","inputs":[{"name":"token","type":"address","indexed":true,"internalType":"address"}],"anonymous":false},{"type":"event","name":"PaymentTokenRemoved","inputs":[{"name":"token","type":"address","indexed":true,"internalType":"address"}],"anonymous":false},{"type":"event","name":"RoleAdminChanged","inputs":[{"name":"role","type":"bytes32","indexed":true,"internalType":"bytes32"},{"name":"previousAdminRole","type":"bytes32","indexed":true,"internalType":"bytes32"},{"name":"newAdminRole","type":"bytes32","indexed":true,"internalType":"bytes32"}],"anonymous":false},{"type":"event","name":"RoleGranted","inputs":[{"name":"role","type":"bytes32","indexed":true,"internalType":"bytes32"},{"name":"account","type":"address","indexed":true,"internalType":"address"},{"name":"sender","type":"address","indexed":true,"internalType":"address"}],"anonymous":false},{"type":"event","name":"RoleRevoked","inputs":[{"name":"role","type":"bytes32","indexed":true,"internalType":"bytes32"},{"name":"account","type":"address","indexed":true,"internalType":"address"},{"name":"sender","type":"address","indexed":true,"internalType":"address"}],"anonymous":false},{"type":"error","name":"AccessControlBadConfirmation","inputs":[]},{"type":"error","name":"AccessControlUnauthorizedAccount","inputs":[{"name":"account","type":"address","internalType":"address"},{"name":"neededRole","type":"bytes32","internalType":"bytes32"}]},{"type":"error","name":"AddressEmptyCode","inputs":[{"name":"target","type":"address","internalType":"address"}]},{"type":"error","name":"AddressInsufficientBalance","inputs":[{"name":"account","type":"address","internalType":"address"}]},{"type":"error","name":"FailedInnerCall","inputs":[]},{"type":"error","name":"ReentrancyGuardReentrantCall","inputs":[]},{"type":"error","name":"SafeERC20FailedOperation","inputs":[{"name":"token","type":"address","internalType":"address"}]}],"bytecode":{"object":"0x6080346100a857601f6120c338819003918201601f19168301916001600160401b038311848410176100ac578084926060946040528339810103126100a857610047816100c0565b906040610056602083016100c0565b91015160018055600680546001600160a01b039485166001600160a01b03199182161790915560028054949093169316929092179055600355610098336100d4565b50604051611f45908161015e8239f35b5f80fd5b634e487b7160e01b5f52604160045260245ffd5b51906001600160a01b03821682036100a857565b6001600160a01b0381165f9081525f805160206120a3833981519152602052604090205460ff16610158576001600160a01b03165f8181525f805160206120a383398151915260205260408120805460ff191660011790553391907f2f8788117e7eff1d82e926ec794901d17c78024a50270940304540a733656f0d8180a4600190565b505f9056fe6080806040526004361015610012575f80fd5b5f905f3560e01c90816301ffc9a71461181757508063248a9ca3146117e55780632554dda8146117bd57806329fc7bd8146117a05780632f2ff15d1461176357806336568abe1461171d57806340e58ee5146115ce578063571a26a01461151e578063598647f8146112c1578063815b5a64146110305780638237016b14610df15780638704f2a314610dc25780638c71729114610da45780638f9a372d14610d6457806391d1485414610d1b578063a217fddf14610cff578063a7e7664414610ce1578063a85c38ef14610c5c578063b789bf5214610c3e578063b9a2de3a146108a5578063c20925c91461081e578063cb2d93ce146107de578063d547741f14610797578063d63843cd1461076e578063d6febde8146103a9578063dbe11bb3146101c35763f23a6e6114610147575f80fd5b346101b85760a03660031901126101b857610160611880565b5061016961186a565b5060843567ffffffffffffffff81116101bf57366023820112156101bf57806004013567ffffffffffffffff81116101bb57369101602401116101b85760405163f23a6e6160e01b8152602090f35b80fd5b8280fd5b5080fd5b50346101b85760a03660031901126101b8576101dd611880565b6084359060443590602435906064356001600160a01b0385168503610360576102078415156119f1565b6006546040516319afa63b60e11b81526001600160a01b0393841660048201819052939091602091839160249183918c91165af1801561039e5761025291889161036f575b50611a55565b813b1561036057604051637921219560e11b8152869081818061027b89893033600486016118fe565b038183885af180156103645761034b575b50508360036103459660045489526007602052604089209060018060a01b03166001600160601b0360a01b8254161781558360018201558260028201558560048201556005810160018060a01b0333166001600160601b0360a01b82541617905560068101856001600160601b0360a01b82541617905501557fda48d1d468794cea4155aceb51a52f16b0c495ed6a5fbe3283972f05d95c823f60606004549586936040519182526020820152336040820152a46119e3565b60045580f35b81610355916118dc565b61036057855f61028c565b8580fd5b6040513d84823e3d90fd5b610391915060203d602011610397575b61038981836118dc565b810190611a3d565b5f61024c565b503d61037f565b6040513d89823e3d90fd5b506103b336611896565b906103bc611d09565b8083526007602052604083208215610739576003810190815484116106f457600681019060018060a01b038254166103f8866001840154611a96565b92620f424061040960035486611a96565b049360405163011e8d6960e21b81526020816004818d885af19081156106e9578a916106b1575b5061043f620f42409183611a96565b04906104548261044f8884611982565b611982565b85549091908b906001600160a01b03168061060257505034106105c8576002548a9687956020929091610499916001600160a01b031690610493611ac8565b91611daa565b6004604051809781936361d027b360e01b83525af19384156105bd576004946104e7936104d092899261058c575b50610493611b03565b60058501546001600160a01b031690610493611b48565b54910154906001600160a01b0316803b156101bb578583916105229383604051809681958294637921219560e11b84523330600486016118fe565b03925af1801561036457610573575b505061053e838254611982565b90556040519182527f1e7abafb1a786c4e6394b5c494f50a97e3802ff2ce462eca4fe6a2dd4e1f92e860203393a36001805580f35b8161057d916118dc565b61058857835f610531565b8380fd5b6105af91925060203d6020116105b6575b6105a781836118dc565b810190611aa9565b905f6104c7565b503d61059d565b6040513d88823e3d90fd5b60405162461bcd60e51b8152602060048201526012602482015271496e73756666696369656e742066756e647360701b6044820152606490fd5b610630926106199199929997959730903390611e02565b86546002546001600160a01b039081169116611d29565b85602060018060a01b03875416936004604051809481936361d027b360e01b83525af194851561039e5760049561068b94610672938a92610690575b50611d29565b845460058601546001600160a01b039081169116611d29565b6104e7565b6106aa91925060203d6020116105b6576105a781836118dc565b905f61066c565b90506020813d6020116106e1575b816106cc602093836118dc565b810103126106dd575161043f610430565b5f80fd5b3d91506106bf565b6040513d8c823e3d90fd5b60405162461bcd60e51b815260206004820152601860248201527f4e6f7420656e6f75676820746f6b656e7320746f2062757900000000000000006044820152606490fd5b60405162461bcd60e51b815260206004820152600d60248201526c125b9d985b1a48185b5bdd5b9d609a1b6044820152606490fd5b50346101b857806003193601126101b8576006546040516001600160a01b039091168152602090f35b50346101b85760403660031901126101b8576107da6004356107b761186a565b906107d56107d0825f525f602052600160405f20015490565b611bc9565b611c89565b5080f35b50346101b85760203660031901126101b8576107f8611880565b610800611b7a565b60018060a01b03166001600160601b0360a01b600654161760065580f35b50346101b85760203660031901126101b85760043561083b611b7a565b620f4240811161087057806003557fd5af243a680d416ec0ded4cb5fd54058051276938f03d5822332c896d808f5c58280a280f35b60405162461bcd60e51b815260206004820152600d60248201526c466565206f766572203130302560981b6044820152606490fd5b50346101b85760203660031901126101b8576004356108c2611d09565b80825260096020526108da60ff604084205416611936565b8082526008602052604082209060048201544210610bf957600582018054600284015491939111610b5c57836008820160018060a01b038154168554620f424061092660035483611a96565b60405163011e8d6960e21b81529190049160208260048189885af19182156105bd578692610b24575b5061095f8692620f424092611a96565b04926109708461044f858c54611982565b6001880180549194916001600160a01b031680610ab1575050600254602092916109a6916001600160a01b031690610493611ac8565b6004604051809481936361d027b360e01b83525af18015610aa6576109ef936109d892879261058c5750610493611b03565b60078501546001600160a01b031690610493611b48565b5460098301548354600685015490926001600160a01b039283169216803b15610aa257610a379385809460405196879586948593637921219560e11b855230600486016118fe565b03925af1801561036457610a8d575b505060207fd2aa34a4fdbbc6dff6a3e56f46e0f3ae2a31d7785ff3487aa5c95c642acea501915b6009015493546040519081526001600160a01b0390941693a36001805580f35b81610a97916118dc565b61058857835f610a46565b8480fd5b6040513d87823e3d90fd5b91610acb919493969260018060a01b036002541690611d29565b602060018060a01b03845416956004604051809581936361d027b360e01b83525af1801561039e57610b1f95610b079389926106905750611d29565b5460078601546001600160a01b039081169116611d29565b6109ef565b915094506020813d602011610b54575b81610b41602093836118dc565b810103126106dd5751889461095f61094f565b3d9150610b34565b6008810154600782015482546006840154879391926001600160a01b039081169216803b15610aa257610baa9385809460405196879586948593637921219560e11b855230600486016118fe565b03925af1801561036457610be4575b505060207fd2aa34a4fdbbc6dff6a3e56f46e0f3ae2a31d7785ff3487aa5c95c642acea50191610a6d565b81610bee916118dc565b61058857835f610bb9565b60405162461bcd60e51b815260206004820152601860248201527f41756374696f6e206973207374696c6c206f6e676f696e6700000000000000006044820152606490fd5b50346101b857806003193601126101b8576020600454604051908152f35b50346101b85760203660031901126101b857604060e091600435815260076020522060018060a01b03815416906001810154906002810154600382015460048301549160018060a01b0360058501541693600660018060a01b039101541694604051968752602087015260408601526060850152608084015260a083015260c0820152f35b50346101b857806003193601126101b8576020600554604051908152f35b50346101b857806003193601126101b857602090604051908152f35b50346101b85760403660031901126101b8576040610d3761186a565b91600435815280602052209060018060a01b03165f52602052602060ff60405f2054166040519015158152f35b50346101b85760203660031901126101b857610d7e611880565b610d86611b7a565b60018060a01b03166001600160601b0360a01b600254161760025580f35b50346101b857806003193601126101b8576020600354604051908152f35b50346101b85760203660031901126101b85760ff60406020926004358152600984522054166040519015158152f35b50346101b85760e03660031901126101b857610e0b611880565b6064359060a435906084359060c435906044356001600160a01b0383168303610fdc57610e398115156119f1565b42851115610feb576006546040516319afa63b60e11b81526001600160a01b0393841660048201819052939091602091839160249183918d91165af18015610fe057610e8b91899161036f5750611a55565b813b15610fdc57604051637921219560e11b81528790818180610eb6866024353033600486016118fe565b038183885af1801561036457610fc3575b50509460097fa3e9c29f3df21edd1eb86fe6ed70e85cf557539b86a3e94e33ce37dbe3026ca393606093610fbd9860055492838c52600860205260408c20938455600184019060018060a01b03166001600160601b0360a01b8254161790558460028401558760038401558860048401558a600584015560068301556007820160018060a01b0333166001600160601b0360a01b82541617905560088201906001600160601b0360a01b825416179055016001600160601b0360a01b81541690556005548752600960205260408720600160ff1982541617905560055494859460405192835260208301526040820152a26119e3565b60055580f35b81610fd0919893986118dc565b610fdc5794865f610ec7565b8680fd5b6040513d8a823e3d90fd5b60405162461bcd60e51b815260206004820152601e60248201527f446561646c696e65206d75737420626520696e207468652066757475726500006044820152606490fd5b50346101b85760603660031901126101b8576004356024356044356001600160a01b0381169081900361058857600454821161128e578183101561124957836110798484611982565b93611083856119a3565b9461109160405196876118dc565b8086526110a0601f19916119a3565b01865b8181106112085750508215928315915b858110611151578688604051918291602083016020845282518091526020604085019301915b8181106110e7575050500390f35b825180516001600160a01b0390811686526020828101518188015260408084015190880152606080840151908801526080808401519088015260a08084015183169088015260c0928301519091169186019190915286955060e090940193909201916001016110d9565b80885260076020526040882083836040519261116c846118ac565b80546001600160a01b039081168552600182015460208601526002820154604086015260038201546060860152600482015460808601526005820154811660a086018190526006909201541660c085015288926111fe575b50506111d4575b506001016110b3565b846111f7916111e6600194978b6119bb565b526111f1818a6119bb565b506119e3565b93906111cb565b149050835f6111c4565b602090604051611217816118ac565b89815289838201528960408201528960608201528960808201528960a08201528960c082015282828a010152016110a3565b60405162461bcd60e51b815260206004820152601e60248201527f5374617274206d75737420626520736d616c6c6572207468616e20656e6400006044820152606490fd5b60405162461bcd60e51b815260206004820152600b60248201526a125b9d985b1a5908195b9960aa1b6044820152606490fd5b506112cb36611896565b6112d3611d09565b9080835260096020526112ec60ff604085205416611936565b80835260086020526040832060048101544210156114e5576001810180546001600160a01b031680159291836114dd575b6002830154861061149857600583019182546003850154810180821161148457881061143f5760098895019560018060a01b0387541690816113d0575b505091546001600160a01b03169150839050816113bc575b50505580546001600160a01b03191633908117909155604051928352917f558a0d5d5468d74b0db24c74eb348b42271c2ebb4c9e953ced38aaed95fa436190602090a36001805580f35b6113c99130903390611e02565b5f82611372565b1561143157505084548354604080516114289450926001600160a01b0316906113f990846118dc565b601f83527f556e61626c6520746f2072657061792070726576696f757320626964646572006020840152611daa565b5f80808061135a565b61143a92611d29565b611428565b60405162461bcd60e51b815260206004820152601860248201527f42696420696e6372656d656e7420697320746f6f206c6f7700000000000000006044820152606490fd5b634e487b7160e01b8a52601160045260248afd5b60405162461bcd60e51b815260206004820152601f60248201527f426964206d757374206265206174206c656173742062617365207072696365006044820152606490fd5b34955061131d565b60405162461bcd60e51b8152602060048201526011602482015270105d58dd1a5bdb881a185cc8195b991959607a1b6044820152606490fd5b50346101b85760203660031901126101b857604061014091600435815260086020522080549060018060a01b036001820154169060028101546003820154600483015460058401549060068501549260018060a01b036007870154169460018060a01b0360088801541696600960018060a01b039101541697604051998a5260208a015260408901526060880152608087015260a086015260c085015260e0840152610100830152610120820152f35b50346106dd5760203660031901126106dd576004356004548110156116e5575f81815260076020526040902060058101546001600160a01b031633036116ae5760018060a01b0360068201541660048201546002830154823b156106dd57611651925f9283604051809681958294637921219560e11b84523330600486016118fe565b03925af180156116a35761168e575b506003839101557f61b9399f2f0f32ca39ce8d7be32caed5ec22fe07a6daba3a467ed479ec6065828280a280f35b600393505f61169c916118dc565b5f92611660565b6040513d5f823e3d90fd5b60405162461bcd60e51b815260206004820152600f60248201526e2737ba103a37b5b2b71037bbb732b960891b6044820152606490fd5b60405162461bcd60e51b815260206004820152601060248201526f125b9d985b1a59081bdc99195c881a5960821b6044820152606490fd5b346106dd5760403660031901126106dd5761173661186a565b336001600160a01b038216036117545761175290600435611c89565b005b63334bd91960e11b5f5260045ffd5b346106dd5760403660031901126106dd5761175260043561178261186a565b9061179b6107d0825f525f602052600160405f20015490565b611c01565b346106dd575f3660031901126106dd576020604051620f42408152f35b346106dd575f3660031901126106dd576002546040516001600160a01b039091168152602090f35b346106dd5760203660031901126106dd57602061180f6004355f525f602052600160405f20015490565b604051908152f35b346106dd5760203660031901126106dd576004359063ffffffff60e01b82168092036106dd57602091637965db0b60e01b8114908115611859575b5015158152f35b6301ffc9a760e01b14905083611852565b602435906001600160a01b03821682036106dd57565b600435906001600160a01b03821682036106dd57565b60409060031901126106dd576004359060243590565b60e0810190811067ffffffffffffffff8211176118c857604052565b634e487b7160e01b5f52604160045260245ffd5b90601f8019910116810190811067ffffffffffffffff8211176118c857604052565b6001600160a01b039182168152911660208201526040810191909152606081019190915260a0608082018190525f9082015260c00190565b1561193d57565b60405162461bcd60e51b815260206004820152601760248201527f4f72646572206973206e6f7420616e2061756374696f6e0000000000000000006044820152606490fd5b9190820391821161198f57565b634e487b7160e01b5f52601160045260245ffd5b67ffffffffffffffff81116118c85760051b60200190565b80518210156119cf5760209160051b010190565b634e487b7160e01b5f52603260045260245ffd5b5f19811461198f5760010190565b156119f857565b60405162461bcd60e51b815260206004820152601d60248201527f416d6f756e74206d7573742062652067726561746572207468616e20300000006044820152606490fd5b908160209103126106dd575180151581036106dd5790565b15611a5c57565b60405162461bcd60e51b815260206004820152601260248201527124b73b30b634b21031b7b63632b1ba34b7b760711b6044820152606490fd5b8181029291811591840414171561198f57565b908160209103126106dd57516001600160a01b03811681036106dd5790565b60405190611ad76040836118dc565b601c82527f556e61626c6520746f20706179206665657320636f6c6c6563746f72000000006020830152565b60405190611b126060836118dc565b60218252607360f81b6040837f556e61626c6520746f20706179207265636f726420636f6d70616e792066656560208201520152565b60405190611b576040836118dc565b60148252732ab730b13632903a37903830bc9039b2b63632b960611b6020830152565b335f9081527fad3228b676f7d3cd4284a5443f17f1962b36e491b30a40b2405849e597ba5fb5602052604090205460ff1615611bb257565b63e2517d3f60e01b5f52336004525f60245260445ffd5b5f8181526020818152604080832033845290915290205460ff1615611beb5750565b63e2517d3f60e01b5f523360045260245260445ffd5b5f818152602081815260408083206001600160a01b038616845290915290205460ff16611c83575f818152602081815260408083206001600160a01b0395909516808452949091528120805460ff19166001179055339291907f2f8788117e7eff1d82e926ec794901d17c78024a50270940304540a733656f0d9080a4600190565b50505f90565b5f818152602081815260408083206001600160a01b038616845290915290205460ff1615611c83575f818152602081815260408083206001600160a01b0395909516808452949091528120805460ff19169055339291907ff6391f5c32d9c69d2a47ea670b442974b53935d1edc7fd64eb21e047a839171b9080a4600190565b600260015414611d1a576002600155565b633ee5aeb560e01b5f5260045ffd5b60405163a9059cbb60e01b60208201526001600160a01b039092166024830152604480830193909352918152611d6991611d646064836118dc565b611e46565b565b3d15611da5573d9067ffffffffffffffff82116118c85760405191611d9a601f8201601f1916602001846118dc565b82523d5f602084013e565b606090565b5f80809381935af1611dba611d6b565b5015611dc35750565b604460209160405192839162461bcd60e51b83528160048401528051918291826024860152018484015e5f828201840152601f01601f19168101030190fd5b6040516323b872dd60e01b60208201526001600160a01b039283166024820152929091166044830152606480830193909352918152611d6991611d646084836118dc565b5f80611e6e9260018060a01b03169360208151910182865af1611e67611d6b565b9083611eb1565b8051908115159182611e96575b5050611e845750565b635274afe760e01b5f5260045260245ffd5b611ea99250602080918301019101611a3d565b155f80611e7b565b90611ed55750805115611ec657805190602001fd5b630a12f52160e11b5f5260045ffd5b81511580611f06575b611ee6575090565b639996b31560e01b5f9081526001600160a01b0391909116600452602490fd5b50803b15611ede56fea26469706673582212202cca4ef2bef11184b804bb5de98226493f11ab63dd6637ef0815b10ab4358a0b64736f6c634300081a0033ad3228b676f7d3cd4284a5443f17f1962b36e491b30a40b2405849e597ba5fb5","linkReferences":{}},"methodIdentifiers":{"DEFAULT_ADMIN_ROLE()":"a217fddf","PERCENT_DIVIDER()":"29fc7bd8","auctionCounter()":"a7e76644","auctions(uint256)":"571a26a0","bid(uint256,uint256)":"598647f8","buy(uint256,uint256)":"d6febde8","cancel(uint256)":"40e58ee5","createAuction(address,uint256,uint256,uint256,uint256,uint256,address)":"8237016b","createOrder(address,uint256,uint256,uint256,address)":"dbe11bb3","endAuction(uint256)":"b9a2de3a","getOrders(uint256,uint256,address)":"815b5a64","getRoleAdmin(bytes32)":"248a9ca3","grantRole(bytes32,address)":"2f2ff15d","hasRole(bytes32,address)":"91d14854","isAuction(uint256)":"8704f2a3","mpFeesCollector()":"2554dda8","mpFeesPercentage()":"8c717291","nftFactory()":"d63843cd","onERC1155Received(address,address,uint256,uint256,bytes)":"f23a6e61","orderCounter()":"b789bf52","orders(uint256)":"a85c38ef","renounceRole(bytes32,address)":"36568abe","revokeRole(bytes32,address)":"d547741f","setMarketPlaceFee(uint256)":"c20925c9","setNFTFactory(address)":"cb2d93ce","setNewTreasury(address)":"8f9a372d","supportsInterface(bytes4)":"01ffc9a7"},"id":48}